:400000000080002011000000C5010000C501000008B5044B1A6803F53F5302331A6000F0D3F800BFFA46004010B5054C237833B9044B13B10448AFF300800123237010BD20
:400040002881FF1F0000000030110000084B10B51BB108480849AFF300800848036803B910BD074B002BFBD0BDE81040184700BF00000000301100002C81FF1F0881FF1F7F
:400080000000000010B50F4B00221A700E4C226E110C5970110A9970DA70D4F8FC01C0F3073000F0C1FFD4F8FC01C0F3071000F055FF00F00FFEB0FA80F0400900F0FEFDB2
:4000C00010BD00BF4481FF1F5881FF1F38B5042001214FF4804241F6FF7300F003FE054600F078FD04464FF480710246062300F08BFD20464CF2A871064A92B200F098FDDB
:400100002846214600F036FD2846012100F0EAFC38BD00BF5881FF1F38B5022001214FF48042134600F0FEFD054600F053FD044602210246032300F067FD204645F6A2310E
:400140004CF2A07200F074FD2846214600F012FD2846012100F0C6FC38BD00BF08B562B600F074FB00F0F8FA00F004FB00F09AFE0120014600F0B6FE0320012100F0A0FE98
:400180003020022100F09CFE00F086FF00F01EFFFFF7C2FFFFF79AFF084800F0FBFD084A0023137053709370D3700420014600F05BFB002000F0E6FAFBE700BF850000007A
:4001C0004481FF1FFEE700BF08B5104E104D16E029686B68AC68002204E051F8040B43F8040B0432A242F8D1E868002203E0002143F8041B04328242F9D11035013E002EC1
:40020000E6D100F05BFFFFF7A9FFFEE701000000C817000008B5134A134B1A60134A136843F40073136000230AE0032B03D8104A52F8231000E00F490F4A42F82310013354
:400240002F2BF2D90D4B1A780D4B1A700A4A0D4B1A6000F00FF900F02BFC00220A4B1A6008BD00BF0004FA050CED00E014ED00E000000000C50100000080FF1FBC76004050
:400280000481FF1F08ED00E00081FF1FFEE700BFF0B40022174611E050F82760F3B226F0FF0608E001EB420511F812406D78A5550132013BDBB2002BF4D10137152FEBD95F
:4002C000F0BC704708B50A46002100F028FF08BD38B50122244B1A80182202331A70022203F27E231A7008224FF040231A70032103F5007319701D4B1B78DBB21C490B7065
:400300001C4B1A8041F25122023B1A80002419250CE0194B1B7803F0010343EA440404F003044FF4F07000F0B3FB013D0DB1032CEFD115B90320FFF7A9FF104B4FF4807248
:400340001A8007221A7000220D490A704820023108701A700222033B1A700A4A137843F00103137038BD00BF8040004008010049A146004022420040254200400440004020
:4003800006400040A2430040F8B52B4B1B78DBB22A4E3478E4B22A4F3D78EDB203F00701284A11701B090132137044F00303337045F003033B7042F20802234B1A8042F2C3
:4003C000100210331A80812221331A7080231F4A13701021F732117040221D490A7060200C31087001211B4801700220DFF878E08EF800000EF15F0E8EF800300EF1050EAB
:400400008EF80000144803700830017042201349087004200331087025310B70104B1A7030222C331A700A2000F012FC3D70347044220C4B1A70F8BDCF010049F8460040BB
:40044000F94600406E5800400C51004009590040045A0040235A0040935A0040005B00402C5B004076580040245A004008B500F04BFE08BD38B572B63E4A137843F00403E5
:40048000137000240CE03C4963001A1952000A4423445B00C8589188FFF714FF0134E4B2072CF0D94FF090403449FFF7F1FE34480421FFF707FF334833490422FFF7D6FF2D
:4004C00032480421FFF7FEFE314832490422FFF7CDFF314831490422FFF7C8FF304A137843F0020313701032137843F0020313702C4C237843F040032370A2F58632513A7B
:40050000137843F010031370274828490822FFF7ADFF274827490A22FFF7A8FF264827490522FFF7A3FF264826490822FFF79EFF254826490822FFF799FF25482549082243
:40054000FFF794FF244A137843F008031370234D61232B70FFF7BCFE81232B700122204B1A70FFF711FF1F4821460E22FFF77EFF38BD00BFE8460040341100005800004824
:4005800000760040087600408C010048107600401876004090010048407600409401004803500140A04300400251004058010048C051004060010048CB5100406C010048BC
:4005C0001251004074010048225100407C0100483251004084010048224300400048004004000840B043004008B50A2813D00C2802D0082809D104E04FF400624FF4805168
:400600000DE080224FF4807109E0002000F01EFB0022114603E04FF400724FF480610020084B188042F2107303FB01F313F5806301D503F2FF73DB1203490B6092B2034B9E
:400640001A8008BD5883FF1F5C83FF1F5A83FF1F38B500F025FA04461E4A137843F0020313701032137843F002031370193A137843F0010313701032137843F0010313708F
:4006800002F5AA521932137843F0030313700422114B1A70013B1A7802F0BF021A701A7842F003021A700822053B1A700225A3F59753123B1D70094A137843F00803137035
:4006C0000A2000F0C5FA064B1D60204600F0ECF938BD00BFAB4300400E5900402F5B004080E200E010B504460A280DD00C2802D0082804D101E0C42207E0442205E0002041
:4007000000F0A4FAC42200E08422034B1A702046FFF76AFF10BD00BF0A59004008B5102000F0ACF90120072100F0B0FA0120074900F098FA064A137843F0060313700C20D5
:40074000FFF7D0FF0022034B1A8008BDA9070000095900406083FF1F08B5054B1B7823B9FFF7DCFF0122024B1A70FFF771FF08BD5081FF1F024A137843F0010313707047E9
:400780000859004010B5074B1B7813F0010401D10028F8D024B1012000F05AFA014B1B78204610BD09590040704700BF10B50123114A137081210E3A1170082102321170B0
:4007C0001132137000240D4B1C704FF400420C4B1A600F20072100F059FA0F20094900F041FA094B1C70094B1C70094B1C70094B1C70094B1C8010BDD6490040DC4900408E
:4008000080E100E0B90800007083FF1F6483FF1F7183FF1F7283FF1F6C83FF1F08B500F03FF9084A137843F0040313701032137843F00403137000F037F94FF40042024B73
:400840001A6008BDA543004000E100E008B5054B1B7823B9FFF7AAFF0122024B1A70FFF7DDFF08BD5181FF1F10B44FF400440B4B1C6032B113460A4A13600A4B18800A4B52
:4008800019800023094A1370094A13704FF40042084B1A605DF8044B704700BF80E100E06883FF1F6E83FF1F6C83FF1F7183FF1F7283FF1F00E100E0654B1B78DBB2654A99
:4008C000137013F0080F32D0634B1B7813F0010F1CD0624A1378DBB261490968CB5CDBB25D490B7014215A4B19701378DBB25D4A137013780133DBB213705B4A137843F08E
:40090000110313700822594B1A708EE01022504B1A70554A137843F0120313700122534B1A70534A137843F0100313707DE013F0010F7AD04D4A1278D2B2042A1ED0082A25
:400940003AD0012A68D1444B1B78DBB2414A5370484A128892B293420CD210223C4B1A703C4B5B783D4A13703E4A137004223F4B1A705AE00022364B1A7056E0394B1A784A
:400980003D4B1B889BB29A4212D2334B1B7831494B7010222E4B1A70324A1378DBB2304800684978C15413780133DBB213703CE00022274B1A7038E013F0020F1ED1294BA2
:4009C0001A782C4B1B889BB29A4210D2254A1378DBB223490968CB5CDBB21F490B7004211B4B197013780133DBB213701DE0FF22194B1A700422013B1A7016E0FF22164BF2
:400A00001A700022013B1A7017490B7803F0EF030B70164B1A7008E00023144A13700F4A1370104A13700A4A1370094B1B7813F0200F0CD00C4A137803F0EF03137000223A
:400A40000A4B1A700A4A137803F0EF0313707047D74900405281FF1FD84900407183FF1F6883FF1F7283FF1F6483FF1F7083FF1FD64900406E83FF1F6C83FF1F034B1A7848
:400A800000F0F80010431870704700BF824000400230800803D000BF01380046FCD17047EFF3108072B6704780F31088704700BF0B4A7F2313708021517007E0DA0002F14A
:400AC000804202F5F042013BDBB21370002BF5D1DB0003F1804303F5F04300221A7070470C81FF1F172815D831B103010A495A5C42F020025A5405E0030107495A5C02F005
:400B0000DF025A540001044A835C43F00103835400207047012070471070004017280BD80001064A835C03F0F10301F0070143EA4101815400207047012070471070004096
:400B400041F6FF73994201D14FF4005141F6FF739A4201D14FF40052172808D8C00000F1804000F5EC408180C280002070470120704700BF172805D8034B03EB0010417222
:400B800000207047012070471070004017281BD810B4C00000F1804404F5EC44D201D2B201F07F01114321709DF804201201D2B203F00F03134363709DF8083003F00F0335
:400BC000A3700020E07001E0012070475DF8044B704700BF10B5FFF763FF0A4B5B78182B0BD9084A1478013B5370E30003F1804303F5F0431B78137000E0FF24FFF754FF2F
:400C0000204610BD0C81FF1F10F0800F0CD111F4704F0BD1C00000F1804000F5F04001808270C37000207047012070470120704710F0800F08D1C00000F1804000F5F04009
:400C40008180C280002070470120704701BE704708B5034B1B7A03FB00F0FFF719FF08BD1481FF1F70B504460E46074B1D681F2802D90020FFF7EAFF04F01F04103455F895
:400C8000240045F8246070BD08ED00E038B504460D46072902D90020FFF7D8FF1F2C02D90020FFF7D3FF04F01F0000F1604000F564406D01EDB2057038BD00BF044A137871
:400CC00003F0FE0300F0010018431070704700BF20510040024B187800F00100704700BF21510040F0B583B086460F4616461D460B4C0823237000220092019218467146EE
:400D00003A46FFF743FF207831462A46FFF718FF20780221FFF702FF207803B0F0BD00BF2481FF1FF0B583B086460F4616461D460A4C0023237000930193184671463A46C3
:400D4000FFF724FF207831462A46FFF7F9FE20780221FFF7E3FE207803B0F0BD2581FF1F014B1B681864704708ED00E04001C0B2014B1870704700BF00E400E00122014B99
:400D80001A60704700E100E00122014B1A60704780E100E010B50446FFF7F6FF2046FFF7DFFF0720FFF7E2FFFFF7E8FF10BD00BFF8B5244A137843F01003137002F503421A
:400DC000DA32137803F0FE0313703F2308321370043213701C4D4FF480741C482946224600F092F91A482946224600F08DF919481949224600F088F94FF4007417481849F5
:400E0000224600F081F917481749224600F07CF9164C174E04F14007354620686168A268E3680FC510342E46BC42F5D10020114B187000F067F8012000F06CF8F8220E4BA5
:400E40001A70F8BDA6430040A416000000C4004000C5004000C600406411000000C00040A414000000C20040A41200006412000000C700408CC7004084C70040084A1378E4
:400E800043F0100313701032137843F01003137002F50342CA32137843F0010313707047A643004008B5054B1B7823B9FFF780FF0122024B1A70FFF7E1FF08BD5481FF1FFD
:400EC0008B00DBB219430B01DBB21943044B1A7822EA00021A701A780140114319707047B0C70040012904D1054B1A7810431870704721B9024A137823EA0000107070478A
:400F0000B4C7004000F01F00014B1870704700BF98C7004000F00F00014B1870704700BF9CC70040054A137843F0020313701032137843F002031370704700BFA843004054
:400F4000054B1A7802F0FD021A701A7800F0020010431870704700BF24580040014B1870704700BF815B0040064B1B78C3F3810303F19243063393F83031DBB2024A1370B5
:400F8000704700BF245800400946004008B5064B1A7802F0F3021A701A7800F00C0010431870FFF7E1FF08BD2458004010B50024054B1C7001331C702046FFF7E7FF204672
:400FC000FFF7BEFF10BD00BF2458004008B5074B1B7823B9FFF7EAFF0122044B1A70FFF7A1FF6420FFF7BAFF08BD00BF5581FF1F054A137843F0080313701032137843F0C1
:4010000008031370704700BFA8430040054B1A7802F0FD021A701A7800F0020010431870704700BF2C580040014B1870704700BF835B0040064B1B78C3F3810303F192433C
:40104000063393F83831DBB2024A1370704700BF2C5800400B46004008B5064B1A7802F0F3021A701A7800F00C0010431870FFF7E1FF08BD2C58004010B50024054B1C707E
:4010800001331C702046FFF7E7FF2046FFF7BEFF10BD00BF2C58004008B5074B1B7823B9FFF7EAFF0122044B1A70FFF7A1FF6420FFF7BAFF08BD00BF5681FF1F0E4B70B5AC
:4010C0001E460E4C0025E41AA410A54204D056F8253098470135F8E700F064FB084B094C1E46E41AA4100025A54204D056F8253098470135F8E770BDB0170000B0170000CA
:40110000B0170000B817000010B5431E0A44914204D011F8014B03F8014FF8E710BD03460244934202D003F8011BFAE77047000000000000C8490040190040510040300062
:40114000F0510040100000000140001000140140000800400140000A004C0140000200500140200021F805014210864064F8150181F8050143518E210000000000000000FA
:40118000000000000000000000000000000000000000000000000000000000000000000000000000000000000000000000000000000000000000000000000000000000002F
:4011C00000000000000000000000000000000000000000000000000000000000000000000000000000000000000000000000000000000000000000000000000000000000EF
:4012000000000000000000000000000000000000000000000000000000000000000000000000000000000000000000000000000000000000000000000000000000000000AE
:40124000000000000000000000000000000000000000000000000000000000000000000000000000FF3F000000000000000000000000000000000000000000000000000030
:4012800000000000000000000000000000000000000000000000000000000000000000000000000081FFFF0050FFFF000FFFFF00B9FEFF004FFEFF00D4FDFF004FFDFF0037
:4012C000CFFCFF0066FCFF0028FCFF0030FCFF009AFCFF0082FDFF0001FFFF002D01000015040000BD0700001B0C000017110000861600002A1C0000B1210000B926000076
:40130000CB2A00006A2D00000C2E00002C2C00004C270000FF1E0000F7120000090300003BEFFF00CDD7FF003CBDFF004AA0FF000182FF00AC63FF00D646FF00422DFF0024
:40134000DA18FF00A00BFF009D07FF00C80EFF00F122FF00A845FF002678FF0037BBFF00290F0000BC7300001BE80000D46A0100E0F90100A892020017320300AED403003E
:40138000A2760400F7130500A6A80500C030060093A80600CB0C0700965A0700BA8F0700B0AA0700B0AA0700BA8F0700965A0700CB0C070093A80600C0300600A6A80500E2
:4013C000F7130500A2760400AED4030017320300A8920200E0F90100D46A01001BE80000BC730000290F000037BBFF002678FF00A845FF00F122FF00C80EFF009D07FF002E
:40140000A00BFF00DA18FF00422DFF00D646FF00AC63FF000182FF004AA0FF003CBDFF00CDD7FF003BEFFF0009030000F7120000FF1E00004C2700002C2C00000C2E000014
:401440006A2D0000CB2A0000B9260000B12100002A1C000086160000171100001B0C0000BD070000150400002D01000001FFFF0082FDFF009AFCFF0030FCFF0028FCFF0093
:4014800066FCFF00CFFCFF004FFDFF00D4FDFF004FFEFF00B9FEFF000FFFFF0050FFFF0081FFFF00000000000000000000000000000000000000000000000000000000000A
:4014C00000000000000000000000000000000000000000000000000000000000000000000000000000000000000000000000000000000000000000000000000000000000EC
:4015000000000000000000000000000000000000000000000000000000000000000000000000000000000000000000000000000000000000000000000000000000000000AB
:40154000000000000000000000000000000000000000000000000000000000000000000000000000000000000000000000000000000000000000000000000000000000006B
:40158000000000000000000000000000000000000000000000000000000000000000000000000000000000000000000000000000000000000000000000000000000000002B
:4015C00000000000000000000000000000000000000000000000000000000000000000000000000000000000000000000000000000000000000000000000000000000000EB
:4016000000000000000000000000000000000000000000000000000000000000000000000000000000000000000000000000000000000000000000000000000000000000AA
:40164000000000000000000000000000000000000000000000000000000000000000000000000000000000000000000000000000000000000000000000000000000000006A
:40168000000000000000000000000000000000000000000000000000000000000000000000000000201300256117802601008026E00E8026C20C8026020080066587186D0C
:4016C0006409183E00008026032080262102187F000000000000000000000000000000000000000000000000000000000000000000000000000000000000000000000000FE
:4017000000000000000000000000000000000000000000000000000000000000000000000000000000000000000000000000000000000000000000000000000000000000A9
:401740000000000000000000000000000000000000000000000000000000000000000000000000000000000000000000000000000000000000000000000000000000000069
:40178000000000000000000000000000000000000000000000000000000000000000000000000000F8B500BFF8BC08BC9E4670474D00000015020000F8B500BFF8BC08BC62
:4017C0009E46704729000000D81700000881FF1F2000000050020000000000007F8000000F0100000000E02EC05D00001800000000366E01FFFF0000000000000000000028
:4018000000000000000000000000000000000000000000000000000000000000000000000000000000000000000000000000000000000000000000000000000000000000A8
:401840000000000000000000000000000000000000000000000000000000000000000000000000000000000000000000000000000000000000000000000000000000000068
:401880000000000000000000000000000000000000000000000000000000000000000000000000000000000000000000000000000000000000000000000000000000000028
:4018C00000000000000000000000000000000000000000000000000000000000000000000000000000000000000000000000000000000000000000000000000000000000E8
:020000040003F7
:0200000480007A
:4000000004520040015B004003030140030B0140080C0140090D0140041501400217014002190140041B01400D4001400D410140024201400143014006450140044601409E
:400040000147014007480140104901400E4C0140074D01400351014010061104600164032F84E804EC08EE04AC40B720E8023A0358045C085F31BA30D804DC08DF111B2081
:400080001C807A087E80A288AA08AE80DE84EE04E008E401E810EA01E201E604E201E604E008E401E810EA01144015041710308035103B023C403F014180C4A0CC30CEE07B
:4000C000D010108013019701A480A840A910AB11AC40AD84C410E820EC10EE203E10CE20961054205602A780AB80D402D604A780AC20B602E802A780240880088108961011
:40010000C820E280E6201220164070087508822086409908A008AA10B404C430DC80DE20E010E480EA801280132017041F8034027B107F4082808304A780C40EC601CC01AE
:40014000DE03831087409780A710AB20B402E808000F03C010AA0000000000000000EC00030000000300030000030000000200000000000000000000000030000007070041
:4001800006000000000000000000810000010000000300000008000000000000000000000000000000000000000000000000000000000000000000000000000000000000AC
:4001C00000000000000000000000000000000000000000000000000000000000000000000000000000000000000000000000000000000000000000000000000000000000FF
:4002000000000000000000000000000000000000000000000000000000000000000000000000000000000000000000000000000000000000000000000000000000000000BE
:40024000000000000000000000000000000000000000000000000000000000000000000000000000000000000000000000000000000000000000000000000000000000007E
:40028000000000000000000000000000000000000000000000000000000000000000000000000000000000000000000000000000000000000000000000000000000000003E
:0200000490006A
:0400000000004005B7
:0200000490105A
:04000000BC90ACAF55
:0200000490303A
:0200000066F0A8
:0200000490402A
:4000000000000000000000000000000000000000000000000000000000000000000000000000000000000000000000000000000000000000000000000000000000000000C0
:400040000000000000000000000000000000000000000000000000000000000000000000000000000000000000000000000000000000000000000000000000000000000080
:400080000000000000000000000000000000000000000000000000000000000000000000000000000000000000000000000000000000000000000000000000000000000040
:4000C0000000000000000000000000000000000000000000000000000000000000000000000000000000000000000000000000000000000000000000000000000000000000
:0200000490501A
:0C00000000012E16106900012E1D77591A
:00000001FF