:400000000080002011000000890000008900000008B5044B1A6803F53F5302331A6000F035F800BFFA46004010B5054C237833B9044B13B10448AFF300800123237010BD38
:400040002881FF1F0000000004060000084B10B51BB108480849AFF300800848036803B910BD074B002BFBD0BDE81040184700BF00000000040600002C81FF1F0881FF1FED
:400080000000000062B6FEE7FEE700BF08B5104E104D16E029686B68AC68002204E051F8040B43F8040B0432A242F8D1E868002203E0002143F8041B04328242F9D1103555
:4000C000013E002EE6D100F063FAFFF7DBFFFEE7010000009806000008B5134A134B1A60134A136843F40073136000230AE0032B03D8104A52F8231000E00F490F4A42F89C
:40010000231001332F2BF2D90D4B1A780D4B1A700A4A0D4B1A6000F061F900F015FA00220A4B1A6008BD00BF0004FA050CED00E014ED00E000000000890000000080FF1F9F
:40014000BC7600400481FF1F08ED00E00081FF1FFEE700BFF0B40022174611E050F82760F3B226F0FF0608E001EB420511F812406D78A5550132013BDBB2002BF4D1013736
:400180001F2FEBD9F0BC704708B50A46002100F030FA08BDF8B53A4B1B78DBB2394E3478E4B2394F3D78EDB203F00701374A11701B090132137044F00303337045F00303D7
:4001C0003B704AF24002324B1A80F02211331A70062210331A7040F20122CF331A800E2203F5CE631A7040232A4A13700232137006321370023213701022274B1A70012341
:4002000026490B7002212648017006300270254A1370802004321070812008321070603213700B321370083213702020053210704032137044F20100023210800232117059
:40024000082219480270063002701A30017004210430017004300270144A1170144914321160144904321160163213700A2000F085F93D70347044220F4B1A70F8BD00BF45
:40028000CF010049F8460040F94600406E5800400C51004001590040005A0040065A00400A5A0040145A0040005B00402C5B004012011005060104017658004008B500F00E
:4002C0008DF908BD38B50024364B1C80502202331A70032202331A80182333490B7002310A80324A13702321023211800232137041F61F4102321180023213702C482D49B5
:400300000422FFF7DBFF06222B4B1A705222A3F580731A70294B1B78DBB2294A137040F62A52284B1A8042F25122023B1A8019250CE0254B1B7803F0010343EA440404F0C2
:4003400003044FF4F07000F0EFF8013D0DB1032CEFD115B90320FFF7FBFE1C4A4FF48073138007231370002319490B704820023108701370053213700222164B1A700422D0
:400380000A331A70144A137843F01F031370013A137843F001031370013A137843F08003137038BD80400040864000408A40004000410040F8030048004300400F01004991
:4003C000A14600402242004025420040044000400640004001400040A243004038B572B66122374B1A70FFF76DFF364A137843F00403137000240BE0334963001A1952009A
:400400000A44D06BB2F84010FFF7BEFE0134E4B2072CF1D94FF090402C49FFF79BFE0A252B4B1D702B480421FFF7AEFE2A4A137843F0020313701032137843F002031370FE
:40044000264C237843F040032370A2F58632513A137843F010031370214822490822FFF72DFF214821492A46FFF728FF204821490522FFF723FF204820492A46FFF71EFF53
:400480001F4820490822FFF719FF1F481F490822FFF714FF1E481F490822FFF70FFFE4221D4B1A701D4A137843F008031370FFF771FE1B4821460E22FFF700FF38BD00BF83
:4004C00000480040E84600400806000080000048835800400076004003500140A043004002510040B8030048C0510040C0030048CB510040CC030048F0510040D4030048A3
:4005000012510040E003004822510040E803004832510040F00300485B0E014022430040B0430040000000000230800803D000BF01380046FCD17047EFF3108072B67047E7
:4005400080F31088704700BF0B4A7F2313708021517007E0DA0002F1804202F5F042013BDBB21370002BF5D1DB0003F1804303F5F04300221A7070470C81FF1F08B5034B6C
:400580001B7A03FB00F0FFF7CFFF08BD1481FF1F0E4B70B51E460E4C0025E41AA410A54204D056F8253098470135F8E700F062F8084B094C1E46E41AA4100025A54204D02F
:4005C00056F8253098470135F8E770BD8006000080060000800600008806000010B5431E0A44914204D011F8014B03F8014FF8E710BD03460244934202D003F8011BFAE782
:400600007047000000000000205B0040585B0040244300402443004008080000265B0040244300402E5B00405A5B004024430040244300402443004024430040080008081D
:4006400000000000C84900401900004F0040180040510040300000000140001000140140000800400140000A004C01400002005001402000F8B500BFF8BC08BC9E46704770
:400680004D000000D9000000F8B500BFF8BC08BC9E46704729000000A80600000881FF1F2000000020000000000000007F800000010000000000A08C401901004800000009
:4006C00000A24A040000000000000000000000000000000000000000000000000000000000000000000000000000000000000000000000000000000000000000000000000A
:4007000000000000000000000000000000000000000000000000000000000000000000000000000000000000000000000000000000000000000000000000000000000000B9
:400740000000000000000000000000000000000000000000000000000000000000000000000000000000000000000000000000000000000000000000000000000000000079
:400780000000000000000000000000000000000000000000000000000000000000000000000000000000000000000000000000000000000000000000000000000000000039
:4007C00000000000000000000000000000000000000000000000000000000000000000000000000000000000000000000000000000000000000000000000000000000000F9
:020000040003F7
:0200000480007A
:4000000001450040044F004008520040025B0040036400400107014004090140160A01401A0B01402A0C0140350D01402C0E0140210F014003150140041701400418014073
:4000400006190140041B01400440014003410140084201400B43014008440140144501400946014009470140144801400F490140144C01400B4D01400850014002510140B7
:400080007E0201400A360D40163611201220132018011901602461367C4027842F848B788D478E07EE0C94809E01AF20EE0456085B045D908C0190029D01AA06AC01B00456
:4000C000B202B401B701B820BE14BF40D420D804D904DB04DC03DD30DF0104800E8016091E801F24258031C0368058405D016548670879017A80884099089A08A280B1011B
:40010000B208C080C210C4C0CC10D688D87056085B045D30820183078B0190019105B102B304B401B701BE10BF44C004C101C240C406C5BCC6EFC70DC81FC9FFCAFFCBFF9D
:40014000CC22CEF0CF0CD08CD110D441D804D904DA24DB04DC30DD38DF01E840E901EAC0EB01010208021808210A224031023A103B0240404140430149224A105120528C9A
:40018000580459105A805C445D015E2061386404661A67027A02800289088A028C048E1090049180962099209B019C029E04A202AE02AF40C008C208CC01CE05D009D204DD
:4001C000D6FED8F2DE08E601EA02EE020E1E16211C011E022401260428012A082C102D012E013020341F37013E103F4056025720580459045B245C085D805E085F0181019D
:40020000850189018A018E0193019C01A401A801B401B701BE10BF40D608D804D904DB04DD90DF010040060407020A210E01102A1728184019201C0421402280270128020C
:4002400037023E155F406280682A6A156B2A78027A028D40C0C1C285C467CA08CC80CEE0D610D808DE09E820EA01EE48E040E805EA02EC1039203F1059045F012708A84002
:40028000AA01E040EA02EC10B708E820EA01EE48310233203680CC70A502A680A7203E1051085704A502A680A720CE20D4601B041D089610A301A50AA680A704AB20AF0156
:4002C000C630EE301101130214207E088E04C40CDE01E40809010B020D106010760481018C108F019101952098209A04A608AD10AF02C20BD802DC02E008E2021B044502A0
:40030000882091019820A608C608D001E2010801440291019820A502A608AB04C208D004210126042704662068028E0496109E019F24A301A680AA01AB20AD02B704C8E00D
:40034000D880DA40E8A0EA400601072057019E019F20A301AA10AE80B101B402B620C0A0D620EA80EE101040132014801F80350879017C208D08910198209C02A608AC010C
:40038000B502C40EC601CC01DE03E002EC0878407C8098C0AB20AF80B002B608DC01DE04E804EC020008010102140C080D010E080F011214002F03C0000000000000FD00DD
:4003C000300006003600360000360000002A0000000000004000000000000000C3000000000000000000F000D0202000202006000A0001000100A000860118010000000066
:4004000000000000000000000000000000000000000000000000000000000000000000000000000000000000000000000000000000000000000000000000000000000000BC
:40044000000000000000000000000000000000000000000000000000000000000000000000000000000000000000000000000000000000000000000000000000000000007C
:40048000000000000000000000000000000000000000000000000000000000000000000000000000000000000000000000000000000000000000000000000000000000003C
:4004C00000000000000000000000000000000000000000000000000000000000000000000000000000000000000000000000000000000000000000000000000000000000FC
:0200000490006A
:0400000000004005B7
:0200000490105A
:04000000BC90ACAF55
:0200000490303A
:02000000362C9C
:0200000490402A
:4000000000000000000000000000000000000000000000000000000000000000000000000000000000000000000000000000000000000000000000000000000000000000C0
:400040000000000000000000000000000000000000000000000000000000000000000000000000000000000000000000000000000000000000000000000000000000000080
:400080000000000000000000000000000000000000000000000000000000000000000000000000000000000000000000000000000000000000000000000000000000000040
:4000C0000000000000000000000000000000000000000000000000000000000000000000000000000000000000000000000000000000000000000000000000000000000000
:0200000490501A
:0C00000000012E16106900012E19469513
:00000001FF