:400000000080002011000000B9020000B902000008B5044B1A6803F53F5302331A6000F04DF900BFFA46004010B5054C237833B9044B13B10448AFF300800123237010BDBB
:400040002881FF1F00000000101A0000084B10B51BB108480849AFF300800848036803B910BD074B002BFBD0BDE81040184700BF00000000101A00002C81FF1F0881FF1FAD
:4000800000000000034B1A6E110A034B19705A70704700BF6081FF1F4481FF1F034B1A6E110A034B9970DA70704700BFC881FF1F4481FF1F08B500F003FF01F097F808BD10
:4000C00008B500F0C1FD04200146204A00F0CAFD01F0A6F901F036F901F0C0F801F058F800F0F0FF00F088FF7F2001F07FF87F2001F016F87F2000F0ADFF7F2000F044FF67
:4001000001F08AFB01F0B4FA01F094FB01F0BEFA00F0F8FC0120014600F026FD0420012100F022FD0020012100F0FAFC0220012100F01AFD0820012100F016FD01200146A5
:4001400000F0EEFC00F0F6FE08BD00BF4481FF1F08B5054801F0C4FB044801F0E9FB044801F00EFC08BD00BF850000009D000000B500000038B5022001214FF4804213464E
:4001800001F09CF9054600F0B9FB044602210246002300F0CDFB204645F6A0314CF2A07200F0DAFB2846214600F078FB2846012100F02CFB38BD00BF38B5022001214FF4AC
:4001C0008042134601F040FB054600F097FB044602210246002300F0ABFB204645F6A2314CF2A47200F0B8FB2846214600F056FB2846012100F00AFB38BD00BF38B50220B4
:4002000001214FF4804241F6FF7301F017F9054600F074FB044632210246062300F088FB20464CF2A871064A92B200F095FB2846214600F033FB2846012100F0E7FA38BDA8
:400240006081FF1F38B5022001214FF4804241F6FF7301F013F9054600F050FB044632210246062300F064FB20464CF2AC71064A92B200F071FB2846214600F00FFB2846D2
:40028000012100F0C3FA38BDC881FF1F08B5FFF771FFFFF791FFFFF7B1FFFFF7D3FF08BD08B562B6FFF70CFFFFF7F0FFFFF750FF012000F061FBFBE7FEE700BF08B5104E29
:4002C000104D16E029686B68AC68002204E051F8040B43F8040B0432A242F8D1E868002203E0002143F8041B04328242F9D11035013E002EE6D101F051FBFFF7D1FFFEE7C3
:4003000001000000E420000008B5134A134B1A60134A136843F40073136000230AE0032B03D8104A52F8231000E00F490F4A42F8231001332F2BF2D90D4B1A780D4B1A70C1
:400340000A4A0D4B1A6000F061F900F045FA00220A4B1A6008BD00BF0004FA050CED00E014ED00E000000000B90200000080FF1FBC7600400481FF1F08ED00E00081FF1FCA
:40038000FEE700BFF0B40022174611E050F82760F3B226F0FF0608E001EB420511F812406D78A5550132013BDBB2002BF4D10137202FEBD9F0BC704708B50A46002101F0E8
:4003C0001EFB08BDF8B53E4B1B78DBB23D4E3478E4B23D4F3D78EDB203F007013B4A11701B090132137044F00303337045F003033B704AF24002364B1A80F02211331A7005
:40040000062210331A704023324A13704FF48171BF3211800E2102F5CE62117095321370023213700632137002321370F5321370012229490A7002310A70082127480170F5
:4004400006300370043002704FF0200E043080F800E04FF0900E083080F800E0633002700830027010200EF1804E0EF5B44E8EF800000EF1080E8EF80000194803700223FC
:400480000130037024300170063003701A3003700423043003700430017012490B701249124B196012490433196014331A700A2000F078FA3D70347044220E4B1A70F8BD3C
:4004C000CF010049F8460040F94600406E5800400C5100403D510040045A00400A5A0040DB5A00402C5B004022012004405B0040080102017658004008B501F075FA08BDD9
:4005000038B50024334B1C80502202331A70032202331A80182330490B7002310A802F4A1370082102321180023213702C482D490422FFF7E1FF06222B4B1A705222A3F5C4
:4005400080731A70294B1B78DBB2294A137040F62A52284B1A8042F25122023B1A8019250CE0254B1B7803F0010343EA440404F003044FF4F07000F01FF9013D0DB1032CCD
:40058000EFD115B90320FFF7FBFE1C4A4FF48073138007231370002319490B704820023108701370053213700222164B1A7004220A331A70144A137843F00F031370013A87
:4005C000137843F001031370013A137843F08003137038BD80400040864000408A40004000410040DC030048004300400F010049A146004022420040254200400440004038
:400600000640004001400040A243004038B572B66122464B1A70FFF773FF454A137843F00403137000240BE0424963001A1952000A44D06BB2F84010FFF7BEFE0134E4B21A
:40064000072CF1D94FF090403B49FFF79BFE0A253A4B1D703A480421FFF7AEFE39483A490422FFF749FF39480421FFF7A5FE38480421FFF7A1FE37480421FFF79DFE36483D
:400680000421FFF799FE354835490422FFF734FF344835490422FFF72FFF344A137843F0020313701032137843F002031370304C237843F040032370A2F58632513A137829
:4006C00043F0100313702B482B490822FFF714FF2A482B492A46FFF70FFF2A482A490522FFF70AFF29482A492A46FFF705FF294829490822FFF700FF284829490822FFF760
:40070000FBFE284828490822FFF7F6FE6422274B1A70274A137843F008031370FFF752FE244821460E22FFF7E7FE38BD00480040E8460040141A0000840000488358004068
:400740000076004008760040E00300481076004018760040207600402876004040760040E403004848760040E803004803500140A0430040025100409C030048C0510040BA
:40078000A4030048CB510040B0030048F0510040B803004812510040C403004822510040CC03004832510040D4030048DB0C014022430040B04300400230800803D000BFC5
:4007C00001380046FCD17047EFF3108072B6704780F31088704700BF0B4A7F2313708021517007E0DA0002F1804202F5F042013BDBB21370002BF5D1DB0003F1804303F5E2
:40080000F04300221A7070470C81FF1F172815D831B103010A495A5C42F020025A5405E0030107495A5C02F0DF025A540001044A835C43F0010383540020704701207047FF
:400840001070004017280BD80001064A835C03F0F10301F0070143EA4101815400207047012070471070004041F6FF73994201D14FF4005141F6FF739A4201D14FF40052FD
:40088000172808D8C00000F1804000F5EC408180C280002070470120704700BF172805D8034B03EB0010417200207047012070471070004017281BD810B4C00000F18044E1
:4008C00004F5EC44D201D2B201F07F01114321709DF804201201D2B203F00F03134363709DF8083003F00F03A3700020E07001E0012070475DF8044B704700BF10B5FFF7C1
:4009000063FF0A4B5B78182B0BD9084A1478013B5370E30003F1804303F5F0431B78137000E0FF24FFF754FF204610BD0C81FF1F10F0800F0CD111F4704F0BD1C00000F167
:40094000804000F5F04001808270C37000207047012070470120704710F0800F08D1C00000F1804000F5F0408180C280002070470120704701BE704710B5044605E0084BB8
:400980001868FFF719FFA4F50044B4F5004FF6D8034B586800FB04F0FFF70EFF10BD00BF1481FF1F08B5034B1B7A03FB00F0FFF703FF08BD1481FF1F70B504460E46074BB4
:4009C0001D681F2802D90020FFF7D4FF04F01F04103455F8240045F8246070BD08ED00E038B504460D46072902D90020FFF7C2FF1F2C02D90020FFF7BDFF04F01F0000F170
:400A0000604000F564406D01EDB2057038BD00BFF8B5244A137843F01003137002F50342DA32137803F0FE0313703F2308321370043213701C4D4FF480741C4829462246DB
:400A400000F0D2FF1A482946224600F0CDFF19481949224600F0C8FF4FF4007417481849224600F0C1FF17481749224600F0BCFF164C174E04F14007354620686168A268A4
:400A8000E3680FC510342E46BC42F5D10020114B187000F079F8052000F07EF8F8220E4B1A70F8BDA6430040C01F000000C4004000C5004000C60040801A000000C0004048
:400AC000C01D000000C20040C01B0000801B000000C700408CC7004084C70040084A137843F0100313701032137843F01003137002F50342CA32137843F00103137070470C
:400B0000A643004008B5054B1B7823B9FFF780FF0122024B1A70FFF7E1FF08BD5081FF1F68B9104B1A7802F0CC021A701A780A431A701A780901C9B2114319707047012882
:400B40000ED1084B1A7802F033021A7018788A00D2B202431A701A788901C9B211431970704700BFB0C70040012904D1054B1A7810431870704721B9024A137823EA0000C1
:400B800010707047B4C7004000F01F00014B1870704700BF98C7004000F00F00014B1870704700BF9CC7004010B50122124B1A7081220E3B1A70082202331A7004221133C7
:400BC0001A70002401331C704FF400420B4B1A600F200721FFF704FF0F200949FFF7ECFE084B1C70084B1C70084B1C70084B1C70084B1C8010BD00BFD649004080E100E0EA
:400C0000B50C00003C82FF1F3082FF1F3D82FF1F3E82FF1F3882FF1F08B5FFF7D5FD084A137843F0040313701032137843F004031370FFF7CDFD4FF40042024B1A6008BD3A
:400C4000A543004000E100E008B5054B1B7823B9FFF7AAFF0122024B1A70FFF7DDFF08BD5181FF1F10B44FF400440B4B1C6032B113460A4A13600A4B18800A4B19800023D1
:400C8000094A1370094A13704FF40042084B1A605DF8044B704700BF80E100E03482FF1F3A82FF1F3882FF1F3D82FF1F3E82FF1F00E100E0654B1B78DBB2654A137013F0D4
:400CC000080F32D0634B1B7813F0010F1CD0624A1378DBB261490968CB5CDBB25D490B7014215A4B19701378DBB25D4A137013780133DBB213705B4A137843F01103137079
:400D00000822594B1A708EE01022504B1A70554A137843F0120313700122534B1A70534A137843F0100313707DE013F0010F7AD04D4A1278D2B2042A1ED0082A3AD0012A83
:400D400068D1444B1B78DBB2414A5370484A128892B293420CD210223C4B1A703C4B5B783D4A13703E4A137004223F4B1A705AE00022364B1A7056E0394B1A783D4B1B8850
:400D80009BB29A4212D2334B1B7831494B7010222E4B1A70324A1378DBB2304800684978C15413780133DBB213703CE00022274B1A7038E013F0020F1ED1294B1A782C4BC0
:400DC0001B889BB29A4210D2254A1378DBB223490968CB5CDBB21F490B7004211B4B197013780133DBB213701DE0FF22194B1A700422013B1A7016E0FF22164B1A7000224B
:400E0000013B1A7017490B7803F0EF030B70164B1A7008E00023144A13700F4A1370104A13700A4A1370094B1B7813F0200F0CD00C4A137803F0EF03137000220A4B1A7003
:400E40000A4A137803F0EF0313707047D74900405281FF1FD84900403D82FF1F3482FF1F3E82FF1F3082FF1F3C82FF1FD64900403A82FF1F3882FF1F08B5FFF7A5FC094ACF
:400E8000137843F020031370033A137843F0100313700132137843F010031370FFF798FC08BD00BF9D640040014B1878704700BF6A640040014B1878704700BF6B640040A6
:400EC000014B1878704700BF5A64004008B501E00A4B1B780A4B1B7813F0080FF8D1FFF773FC084B1A7842F003021A701A7802F0FC021A70FFF76CFC08BD00BF5A6400405A
:400F00006B6400409A64004008B50722074B1A70FFF7DCFFFFF7C8FFFFF7CCFF0022044B1A70082201331A7008BD00BF8D6400408A64004008B5054B1B7823B9FFF7E4FF38
:400F40000122024B1A70FFF797FF08BD5481FF1F054A137843F0080313701032137843F008031370704700BFA8430040054B1A7802F0FD021A701A7800F0020010431870AD
:400F8000704700BF2C580040014B1870704700BF835B0040064B1B78C3F3810303F19243063393F83831DBB2024A1370704700BF2C5800400B46004008B5064B1A7802F0C2
:400FC000F3021A701A7800F00C0010431870FFF7E1FF08BD2C58004010B50024054B1C7001331C702046FFF7E7FF2046FFF7BEFF10BD00BF2C58004008B5074B1B7823B9FC
:40100000FFF7EAFF0122044B1A70FFF7A1FF6420FFF7BAFF08BD00BF5581FF1F054A137843F0020313701032137843F002031370704700BFA8430040054B1A7802F0FD0203
:401040001A701A7800F0020010431870704700BF24580040014B1870704700BF815B0040064B1B78C3F3810303F19243063393F83031DBB2024A1370704700BF2458004055
:401080000946004008B5064B1A7802F0F3021A701A7800F00C0010431870FFF7E1FF08BD2458004010B50024054B1C7001331C702046FFF7E7FF2046FFF7BEFF10BD00BF64
:4010C0002458004008B5074B1B7823B9FFF7EAFF0122044B1A70FFF7A1FF6420FFF7BAFF08BD00BF5681FF1F054A137843F0010313701032137843F001031370704700BF08
:40110000A8430040054B1A7802F0FD021A701A7800F0020010431870704700BF20580040014B1870704700BF805B0040064B1B78C3F3810303F19243063393F82031DBB2AC
:40114000024A1370704700BF205800400846004008B5064B1A7802F0F3021A701A7800F00C0010431870FFF7E1FF08BD2058004010B50024054B1C7001331C702046FFF736
:40118000E7FF2046FFF7BEFF10BD00BF2058004008B5074B1B7823B9FFF7EAFF0122044B1A70FFF7A1FF6420FFF7BAFF08BD00BF5781FF1F054A137843F004031370103277
:4011C000137843F004031370704700BFA8430040054B1A7802F0FD021A701A7800F0020010431870704700BF28580040014B1870704700BF825B0040064B1B78C3F381038F
:4012000003F19243063393F82831DBB2024A1370704700BF285800400A46004008B5064B1A7802F0F3021A701A7800F00C0010431870FFF7E1FF08BD2858004010B50024E8
:40124000054B1C7001331C702046FFF7E7FF2046FFF7BEFF10BD00BF2858004008B5074B1B7823B9FFF7EAFF0122044B1A70FFF7A1FF6420FFF7BAFF08BD00BF5881FF1F8E
:40128000084A137843F0020313701032137843F00203137002F65932137843F001031370704700BFA3430040014B1880704700BF104F0040014B1880704700BF124F0040B6
:4012C000014B1870704700BF0F4F004008B51A4A137843F0020313700232137803F08F0343F010031370154B1A7802F0CF021A701A7842F030021A701A7802F0F0021A70D3
:401300001A7842F00F021A704FF47A70FFF7CCFF4FF4FA70FFF7CEFF0020FFF7D1FF084A137843F00203137002F66A32137843F00103137008BD00BF0C4F0040174F0040D4
:40134000A343004008B5054B1B7823B9FFF7BEFF0122024B1A70FFF793FF08BD5981FF1F084A137843F0010313701032137843F00103137002F64D32137843F001031370FF
:40138000704700BFA3430040014B1880704700BF044F0040014B1880704700BF064F0040014B1870704700BF034F004008B5194A137843F0020313700232137803F08F032F
:4013C00043F010031370144B1A7802F0CF021A701A7842F030021A701A7802F0F0021A701A7842F00F021A706420FFF7CDFF6420FFF7D0FF0020FFF7D3FF084A137843F080
:401400000103137002F65E32137843F00103137008BD00BF004F00400B4F0040A343004008B5054B1B7823B9FFF7C0FF0122024B1A70FFF795FF08BD5A81FF1FF0B583B03A
:4014400086460F4616461D460B4C08232370002200920192184671463A46FFF72BFA207831462A46FFF700FA20780221FFF7EAF9207803B0F0BD00BF2481FF1FF0B583B02B
:4014800086460F4616461D460B4C09232370002200920192184671463A46FFF70BFA207831462A46FFF7E0F920780221FFF7CAF9207803B0F0BD00BF2581FF1FF0B583B04A
:4014C00086460F4616461D460A4C0420207000230093019371463A46FFF7ECF9207831462A46FFF7C1F920780221FFF7ABF9207803B0F0BD2681FF1F08B50A2813D00C285F
:4015000002D0082809D104E04FF400624FF480510DE080224FF4807109E00020FFF72AFA0022114603E04FF400724FF480610020094B188042F2107303FB01F303F6C41392
:40154000064981FB0301DB17C3EBE12304490B6092B2044B1A8008BD4882FF1FAD8BDB684482FF1F4082FF1F38B5FFF72DF905461E4A137843F0020313701032137843F025
:4015800002031370193A137843F0040313701032137843F00403137002F5AA521932137843F0030313700424114B1C70013B1A7802F0BF021A701A7842F003021A70082261
:4015C000053B1A700222A3F59753123B1A70094A137843F0080313700A20FFF7E3F9064B1C602846FFF7F4F838BD00BFAB4300400E5900402F5B004080E200E010B5044648
:401600000A280DD00C2802D0082804D101E0C42207E0442205E00020FFF7ACF9C42200E08422034B1A702046FFF766FF10BD00BF0A59004008B5102000F024F90220072164
:40164000FFF7CEF902200749FFF7B6F9064A137843F0060313700C20FFF7D0FF0022034B1A8008BD9D160000095900404A82FF1F08B5054B1B7823B9FFF7DCFF0122024B40
:401680001A70FFF771FF08BD5B81FF1F024A137843F001031370704708590040704700BF08B50A2813D00C2802D0082809D104E04FF400624FF480510DE080224FF48071DA
:4016C00009E00020FFF756F90022114603E04FF400724FF480610020094B188042F2107303FB01F303F6C413064981FB0301DB17C3EBE12304490B6092B2044B1A8008BDC5
:401700004C82FF1FAD8BDB685482FF1F5082FF1F38B5FFF759F804461E4A137843F0010313701032137843F001031370193A137843F0020313701032137843F0020313708B
:4017400002F5AA521132137843F0030313700422114B1A70013B1A7802F0BF021A701A7842F003021A700822053B1A700225A3F597530C3B1D70094A137843F00803137072
:401780000A20FFF70FF9064B1D602046FFF720F838BD00BFAB43004006590040275B004080E200E010B504460A280DD00C2802D0082804D101E0C42207E0442205E00020F8
:4017C000FFF7D8F8C42200E08422034B1A702046FFF766FF10BD00BF0259004008B5102000F05AF801200721FFF7FAF801200749FFF7E2F8064A137843F0060313700C2090
:40180000FFF7D0FF0022034B1A8008BD45180000015900404E82FF1F08B5054B1B7823B9FFF7DCFF0122024B1A70FFF771FF08BD5C81FF1F024A137843F00103137070477A
:4018400000590040704700BFF0B583B086460F4616461D460A4C0520207000230093019371463A46FFF726F8207831462A46FEF7FBFF20780221FEF7E5FF207803B0F0BD07
:401880002781FF1F034B1A7800F0F80010431870704700BF8A400040034B1A7800F0F80010431870704700BF86400040014B1B681865704708ED00E04001C0B2014B1870C1
:4018C000704700BF04E400E01022014B1A60704700E100E01022014B1A60704780E100E010B50446FFF7F6FF2046FFF7DFFF0720FFF7E2FFFFF7E8FF10BD00BF014B1B68E0
:401900005865704708ED00E04001C0B2014B1870704700BF05E400E02022014B1A60704700E100E02022014B1A60704780E100E010B50446FFF7F6FF2046FFF7DFFF0720BD
:40194000FFF7E2FFFFF7E8FF10BD00BF014B1B68D865704708ED00E04001C0B2014B1870704700BF07E400E08022014B1A60704700E100E08022014B1A60704780E100E087
:4019800010B50446FFF7F6FF2046FFF7DFFF0720FFF7E2FFFFF7E8FF10BD00BF0E4B70B51E460E4C0025E41AA410A54204D056F8253098470135F8E700F082FB084B094C12
:4019C0001E46E41AA4100025A54204D056F8253098470135F8E770BDCC200000CC200000CC200000D420000010B5431E0A44914204D011F8014B03F8014FF8E710BD0346C5
:401A00000244934202D003F8011BFAE77047000000000000205B0040585B0040244300402443004008080000265B0040244300402E5B00405A5B004024430040244300408A
:401A400024430040244300400200020200000000C84900401900004F0040180040510040300000000140001000140140000800400140000A004C0140000200500140200087
:401A800021F8050144F80B4067F81B8081F80501A6F81901C2F807018561922109F9290121F9050188A2A221000000000000000000000000000000000000000000000000BB
:401AC00000000000000000000000000000000000000000000000000000000000000000000000000000000000000000000000000000000000000000000000000000000000E6
:401B000000000000000000000000000000000000000000000000000000000000000000000000000000000000000000000000000000000000000000000000000000000000A5
:401B40000000000000000000000000000000000000000000000000000000000000000000000000000000000000000000000000000000000000000000000000000000000065
:401B8000180C00000000000000000000B1180000990C0000990C000000000000000000000000000000000000000000000000000000000000000000000000000000000000EE
:401BC0004F8A0000AEC9000083440100D9FB010084EA020043050400803B0500B678060047A6070098AD08003F7A090003FC090078280A0003FC09003F7A090098AD08007C
:401C000047A60700B6780600803B05004305040084EA0200D9FB010083440100AEC900004F8A00004F8A0000AEC9000083440100D9FB010084EA020043050400803B0500AA
:401C4000B678060047A6070098AD08003F7A090003FC090078280A0003FC09003F7A090098AD080047A60700B6780600803B05004305040084EA0200D9FB01008344010023
:401C8000AEC900004F8A00000000000000000000000000000000000000000000000000000000000000000000000000000000000000000000000000000000000000000000D4
:401CC00000000000000000000000000000000000000000000000000000000000000000000000000000000000000000000000000000000000000000000000000000000000E4
:401D000000000000000000000000000000000000000000000000000000000000000000000000000000000000000000000000000000000000000000000000000000000000A3
:401D40000000000000000000000000000000000000000000000000000000000000000000000000000000000000000000000000000000000000000000000000000000000063
:401D80000000000000000000000000000000000000000000000000000000000000000000000000000000000000000000000000000000000000000000000000000000000023
:401DC00000000000000000000000000000000000000000000000000000000000000000000000000000000000000000000000000000000000000000000000000000000000E3
:401E000000000000000000000000000000000000000000000000000000000000000000000000000000000000000000000000000000000000000000000000000000000000A2
:401E40000000000000000000000000000000000000000000000000000000000000000000000000000000000000000000000000000000000000000000000000000000000062
:401E80000000000000000000000000000000000000000000000000000000000000000000000000000000000000000000000000000000000000000000000000000000000022
:401EC00000000000000000000000000000000000000000000000000000000000000000000000000000000000000000000000000000000000000000000000000000000000E2
:401F000000000000000000000000000000000000000000000000000000000000000000000000000000000000000000000000000000000000000000000000000000000000A1
:401F40000000000000000000000000000000000000000000000000000000000000000000000000000000000000000000000000000000000000000000000000000000000061
:401F80000000000000000000000000000000000000000000000000000000000000000000000000000000000000000000000000000000000000000000000000000000000021
:401FC0002013002561178026010080260100802601008026E00E8026C20C8026020080066587186D6409183E00008026032080262102187FE60E8026C80C802600008006EF
:402000006B87186D6A09183E00008026012080262102187F000000000000000000000000000000000000000000000000000000000000000000000000000000000000000039
:402040000000000000000000000000000000000000000000000000000000000000000000000000000000000000000000000000000000000000000000000000000000000060
:402080000000000000000000000000000000000000000000000000000000000000000000000000000000000000000000000000000000000000000000000000000000000020
:4020C000F8B500BFF8BC08BC9E4670474D00000009030000F8B500BFF8BC08BC9E46704729000000F82000000881FF1F200000003001000000000000000000007F80000051
:402100003F0300000000A08C401901004800000000A24A04FFFFFFFF00000000000000000000000000000000000000000000000000000000000000000000000000000000A3
:40214000000000000000000000000000000000000000000000000000000000000000000000000000000000000000000000000000000000000000000000000000000000005F
:40218000000000000000000000000000000000000000000000000000000000000000000000000000000000000000000000000000000000000000000000000000000000001F
:4021C00000000000000000000000000000000000000000000000000000000000000000000000000000000000000000000000000000000000000000000000000000000000DF
:40220000000000000000000000000000000000000000000000000000000000000000000000000000000000000000000000000000000000000000000000000000000000009E
:020000040003F7
:0200000480007A
:4000000001450040044F004005520040025B004003640040020501400107014001090140330A0140330B01402A0C01402D0D0140030E0140040F01400315014003170140A7
:400040000418014006190140031B01400C4001400E4101400F4201400B43014007440140114501400B460140094701401248014008490140144C0140084D014007500140E4
:40008000055101407E0201800A360D80163610201320602461367C4027842F848A478B788D07E248EA02EE04EE0410051E072A013002320436013E444005410642504404A9
:4000C000450C46ED47BF483D49FF4AFF4BFF4C224EF04F0C508C5110544158045A245B045C035D385F01684069016AC06B0187019502AA01AC01B101B201B702BE04BF40B2
:40010000D420D604D804D904DB04DC30DD30DF010A400B0210041608178019441A401F04278136083E0840404680470149804A104B1051A25208580459505D016134668003
:4001400067A87A02874089018A08904093329780980499809A08A202A582A610AC10AF20C209C4C2CC40CE40D001D20CD68ED8F2DE08E240E8081303190133013502398866
:400180003B205608590B5B045C305D305F0189038A1E8C108EC193019A219E80A0C1A202A4C1A604A8C1AA08B01FB220B302B480B501B640BE51BF14D602D728D804D904E7
:4001C000DB24DC08DD80DE08DF010010014009A00A0110A8185019801A04202023142620272231023620370239103A205D805E25631064846608670268A8694079107A0262
:400200007F4082028520870488808A208B10B520C003C203C40ECCA1CE04D6F0D8F2DE8CE002E20956085B045D90584059208840D60CE804EA01EC80E606EC10EE02398090
:400240003F4059045F0127028702E402E604EC10EE02E804EA01EC80148033013680370238023A403C406C016F01C420CCE0CE70124014403042348038023C40944298808F
:400280009E409F02A680C430CC70CE603E105108570484028E80912094429F02A402A680AD10CE20D460E210EA401B041D089120940296109F02A508A704A840C630EE20A0
:4002C000122014207F088820C40CDE01E2010A010B100F0166806880830186818B109820A220A708B620C20BD601DC04E601EA081A201B0445028E109820A220A708AC80BE
:40030000C608D001E2020B4045209820A220A502A708AB04C208D0042104271465206B028001852087029120940296109F04AF02B704C8E0D880DA40E660EE4051109120D0
:40034000AA10AB10B104D420E820EA801040132014801F2037087A207C20832087089820A220A520A708AF40B502C40EC601CC01DE03EC0878407C8098C0AB28B120DC0194
:40038000DE04EC010008010102140C080E080F01121400BD01FF03C0100A110A000000000000FD00300000063600360000360000002A0000000000004000000000000000FA
:4003C000C3000000000000000000F000D020200020200600000808000800A0008601180100010000000800000009000000000000000000000000000000000000000000008A
:4004000000000000000000000000000000000000000000000000000000000000000000000000000000000000000000000000000000000000000000000000000000000000BC
:40044000000000000000000000000000000000000000000000000000000000000000000000000000000000000000000000000000000000000000000000000000000000007C
:40048000000000000000000000000000000000000000000000000000000000000000000000000000000000000000000000000000000000000000000000000000000000003C
:4004C00000000000000000000000000000000000000000000000000000000000000000000000000000000000000000000000000000000000000000000000000000000000FC
:0200000490006A
:0400000000004005B7
:0200000490105A
:04000000BC90ACAF55
:0200000490303A
:02000000264A8E
:0200000490402A
:4000000000000000000000000000000000000000000000000000000000000000000000000000000000000000000000000000000000000000000000000000000000000000C0
:400040000000000000000000000000000000000000000000000000000000000000000000000000000000000000000000000000000000000000000000000000000000000080
:400080000000000000000000000000000000000000000000000000000000000000000000000000000000000000000000000000000000000000000000000000000000000040
:4000C0000000000000000000000000000000000000000000000000000000000000000000000000000000000000000000000000000000000000000000000000000000000000
:0200000490501A
:0C00000000012E16106900012E2136B3FD
:00000001FF