:4000000000800020110000005D0300005D03000008B5044B1A6803F53F5302331A6000F09FF900BFFA46004010B5054C237833B9044B13B10448AFF300800123237010BD1F
:400040003081FF1F00000000E41B0000084B10B51BB108480849AFF300800848036803B910BD074B002BFBD0BDE81040184700BF00000000E41B00003481FF1F0881FF1FF3
:4000800000000000034BDA6B110A034B19705A70704700BF7081FF1F4C81FF1F034BDA6B110A034B9970DA70704700BFB481FF1F4C81FF1F704700BF08B5024B187901F07C
:4000C00013F908BD4C81FF1F08B500F041FE04200146204A00F04AFE01F020FA01F0B0F901F03AF901F0D2F801F06AF801F002F87F2001F0F9F87F2001F090F87F2001F060
:4001000027F87F2000F0BEFF01F004FC01F02EFB01F00EFC01F038FB00F078FD0120014600F0A6FD0420012100F0A2FD0020012100F07AFD0220012100F09AFD0820012137
:4001400000F096FD0120014600F06EFD00F070FF08BD00BF4C81FF1F08B5064801F03EFC054801F063FC054801F08CFC044801F0B1FC08BD850000009D000000B50000004C
:40018000B900000038B5022001214FF48042134601F012FA054600F035FC044602210246002300F049FC204645F6A0314CF2A07200F056FC2846214600F0F4FB2846012139
:4001C00000F0A8FB38BD00BF38B5022001214FF48042134601F0B6FB054600F013FC044602210246002300F027FC204645F6A2314CF2A47200F034FC2846214600F0D2FBD8
:400200002846012100F086FB38BD00BF38B5022001214FF4804241F6FF7301F08DF9054600F0F0FB044620210246062300F004FC20464CF2A871064A92B200F011FC2846E5
:40024000214600F0AFFB2846012100F063FB38BD7081FF1F38B5022001214FF4804241F6FF7301F089F9054600F0CCFB044620210246062300F0E0FB20464CF2AC71064A6F
:4002800092B200F0EDFB2846214600F08BFB2846012100F03FFB38BDB481FF1F38B5012001464FF48042134601F022FC054600F0A9FB044601210246042300F0BDFB20464B
:4002C00046F25E4146F6160200F0CAFB2846214600F068FB2846012100F01CFB38BD00BF38B5012001464FF4804241F6FF7301F01FFC054600F086FB044601210246042305
:4003000000F09AFB204646F63601064A92B200F0A7FB2846214600F045FB2846012100F0F9FA38BD5081FF1F08B5FFF72BFFFFF74BFFFFF76BFFFFF78DFFFFF7AFFFFFF744
:40034000CFFF08BD08B562B6FFF7BEFEFFF7ECFFFFF702FF012000F093FBFBE7FEE700BF08B5104E104D16E029686B68AC68002204E051F8040B43F8040B0432A242F8D1F5
:40038000E868002203E0002143F8041B04328242F9D11035013E002EE6D101F0E9FBFFF7D1FFFEE701000000CC22000008B5134A134B1A60134A136843F4007313600023C7
:4003C0000AE0032B03D8104A52F8231000E00F490F4A42F8231001332F2BF2D90D4B1A780D4B1A700A4A0D4B1A6000F061F900F077FA00220A4B1A6008BD00BF0004FA05C7
:400400000CED00E014ED00E0000000005D0300000080FF1FBC7600400481FF1F08ED00E00081FF1FFEE700BFF0B40022174611E050F82760F3B226F0FF0608E001EB420519
:4004400011F812406D78A5550132013BDBB2002BF4D101371F2FEBD9F0BC704708B50A46002101F0B6FB08BDF8B53E4B1B78DBB23D4E3478E4B23D4F3D78EDB203F0070116
:400480003B4A11701B090132137044F00303337045F003033B704AF24002364B1A80F02211331A70062210331A704023324A13704FF48171BF3211800E2102F5CE6211703B
:4004C00095321370023213700632137002321370F5321370012229490A7002310A7008212748017006300370043002704FF0200E043080F800E04FF0900E083080F800E065
:40050000633002700830027010200EF1804E0EF5B44E8EF800000EF1080E8EF800001948037002230130037024300170063003701A30037004230430037004300170124953
:400540000B701249124B196012490433196014331A700A2000F0AAFA3D70347044220E4B1A70F8BDCF010049F8460040F94600406E5800400C5100403D510040045A0040C1
:400580000A5A0040DB5A00402C5B004022012004405B0040080102017658004008B501F00DFB08BD38B50024334B1C80502202331A70032202331A80182330490B700231F2
:4005C0000A802F4A1370232102321180023213702C482D490422FFF7E1FF06222B4B1A705222A3F580731A70294B1B78DBB2294A137040F62A52284B1A8042F25122023BF1
:400600001A8019250CE0254B1B7803F0010343EA440404F003044FF4F07000F051F9013D0DB1032CEFD115B90320FFF7FBFE1C4A4FF48073138007231370002319490B7008
:400640004820023108701370053213700222164B1A7004220A331A70144A137843F00F031370013A137843F001031370013A137843F08003137038BD804000408640004003
:400680008A400040004100408C040048004300400F010049A14600402242004025420040044000400640004001400040A243004038B572B66122584B1A70FFF773FF574A0B
:4006C000137843F00403137000240BE0544963001A1952000A44D06BB2F84010FFF7BEFE0134E4B2072CF1D9002410E04C49A3001A1952000A4452F86C0F23445B000B442C
:400700005168B3F87420FFF749FF0134E4B2012CECD94FF090404349FFF786FE0A25424B1D7042480421FFF799FE414841490422FFF734FF404841490422FFF72FFF4048E6
:4007400040490422FFF72AFF3F4840490422FFF725FF3F480421FFF781FE3E480421FFF77DFE3D480421FFF779FE3C480421FFF775FE3B483B490422FFF710FF3A483B49BD
:400780000422FFF70BFF3A4A137843F0020313701032137843F002031370364C237843F040032370A2F58632513A137843F010031370314831490822FFF7F0FE304831497A
:4007C0002A46FFF7EBFE304830490522FFF7E6FE2F4830492A46FFF7E1FE2F482F490822FFF7DCFE2E482F490822FFF7D7FE2E482E490822FFF7D2FE64222D4B1A702D4ADB
:40080000137843F008031370FFF72EFE2A4821460E22FFF7C3FE38BD00480040E8460040E81B00008000004883580040007600405076004090040048087600409404004883
:400840001076004098040048187600409C0400482076004028760040307600403876004040760040A004004848760040A404004803500140A0430040025100404C040048DE
:40088000C051004054040048CB51004060040048F0510040680400481251004074040048225100407C04004832510040840400485B0E014022430040B04300400000000017
:4008C0000230800803D000BF01380046FCD17047EFF3108072B6704780F31088704700BF0B4A7F2313708021517007E0DA0002F1804202F5F042013BDBB21370002BF5D11F
:40090000DB0003F1804303F5F04300221A7070470C81FF1F172815D831B103010A495A5C42F020025A5405E0030107495A5C02F0DF025A540001044A835C43F00103835423
:4009400000207047012070471070004017280BD80001064A835C03F0F10301F0070143EA4101815400207047012070471070004041F6FF73994201D14FF4005141F6FF7390
:400980009A4201D14FF40052172808D8C00000F1804000F5EC408180C280002070470120704700BF172805D8034B03EB0010417200207047012070471070004017281BD8D6
:4009C00010B4C00000F1804404F5EC44D201D2B201F07F01114321709DF804201201D2B203F00F03134363709DF8083003F00F03A3700020E07001E0012070475DF8044BB8
:400A0000704700BF10B5FFF763FF0A4B5B78182B0BD9084A1478013B5370E30003F1804303F5F0431B78137000E0FF24FFF754FF204610BD0C81FF1F10F0800F0CD111F481
:400A4000704F0BD1C00000F1804000F5F04001808270C37000207047012070470120704710F0800F08D1C00000F1804000F5F0408180C280002070470120704701BE7047B2
:400A800010B5044605E0084B1868FFF719FFA4F50044B4F5004FF6D8034B586800FB04F0FFF70EFF10BD00BF1481FF1F08B5034B1B7A03FB00F0FFF703FF08BD1481FF1F81
:400AC00070B504460E46074B1D681F2802D90020FFF7D4FF04F01F04103455F8240045F8246070BD08ED00E038B504460D46072902D90020FFF7C2FF1F2C02D90020FFF71A
:400B0000BDFF04F01F0000F1604000F564406D01EDB2057038BD00BFF8B5244A137843F01003137002F50342DA32137803F0FE0313703F2308321370043213701C4D4FF449
:400B400080741C482946224601F038F81A482946224601F033F819481949224601F02EF84FF4007417481849224601F027F817481749224601F022F8164C174E04F140076A
:400B8000354620686168A268E3680FC510342E46BC42F5D10020114B187000F079F8052000F07EF8F8220E4B1A70F8BDA6430040A821000000C4004000C5004000C6004021
:400BC000681C000000C00040A81F000000C20040A81D0000681D000000C700408CC7004084C70040084A137843F0100313701032137843F01003137002F50342CA3213783A
:400C000043F0010313707047A643004008B5054B1B7823B9FFF780FF0122024B1A70FFF7E1FF08BD6081FF1F68B9104B1A7802F0CC021A701A780A431A701A780901C9B2BD
:400C400011431970704701280ED1084B1A7802F033021A7018788A00D2B202431A701A788901C9B211431970704700BFB0C70040012904D1054B1A7810431870704721B9E7
:400C8000024A137823EA000010707047B4C7004000F01F00014B1870704700BF98C7004000F00F00014B1870704700BF9CC7004010B50122124B1A7081220E3B1A7008220B
:400CC00002331A70042211331A70002401331C704FF400420B4B1A600F200721FFF704FF0F200949FFF7ECFE084B1C70084B1C70084B1C70084B1C70084B1C8010BD00BF60
:400D0000D649004080E100E0BD0D00000482FF1FF881FF1F0582FF1F0682FF1F0082FF1F08B5FFF7D5FD084A137843F0040313701032137843F004031370FFF7CDFD4FF477
:400D40000042024B1A6008BDA543004000E100E008B5054B1B7823B9FFF7AAFF0122024B1A70FFF7DDFF08BD6181FF1F10B44FF400440B4B1C6032B113460A4A13600A4B9B
:400D800018800A4B19800023094A1370094A13704FF40042084B1A605DF8044B704700BF80E100E0FC81FF1F0282FF1F0082FF1F0582FF1F0682FF1F00E100E0654B1B7805
:400DC000DBB2654A137013F0080F32D0634B1B7813F0010F1CD0624A1378DBB261490968CB5CDBB25D490B7014215A4B19701378DBB25D4A137013780133DBB213705B4A0B
:400E0000137843F0110313700822594B1A708EE01022504B1A70554A137843F0120313700122534B1A70534A137843F0100313707DE013F0010F7AD04D4A1278D2B2042A82
:400E40001ED0082A3AD0012A68D1444B1B78DBB2414A5370484A128892B293420CD210223C4B1A703C4B5B783D4A13703E4A137004223F4B1A705AE00022364B1A7056E03B
:400E8000394B1A783D4B1B889BB29A4212D2334B1B7831494B7010222E4B1A70324A1378DBB2304800684978C15413780133DBB213703CE00022274B1A7038E013F0020FEA
:400EC0001ED1294B1A782C4B1B889BB29A4210D2254A1378DBB223490968CB5CDBB21F490B7004211B4B197013780133DBB213701DE0FF22194B1A700422013B1A7016E00C
:400F0000FF22164B1A700022013B1A7017490B7803F0EF030B70164B1A7008E00023144A13700F4A1370104A13700A4A1370094B1B7813F0200F0CD00C4A137803F0EF0358
:400F4000137000220A4B1A700A4A137803F0EF0313707047D74900406281FF1FD84900400582FF1FFC81FF1F0682FF1FF881FF1F0482FF1FD64900400282FF1F0082FF1F6B
:400F800008B5FFF7A5FC094A137843F020031370023A137843F010031370013A137843F010031370FFF798FC08BD00BF9E640040014B1878704700BF6C640040014B187879
:400FC000704700BF6B64004008B501E00A4B1B780A4B1B7813F0080FF8D1FFF779FC084B1A7842F003021A701A7802F0FC021A70FFF772FC08BD00BF5E6400406B64004005
:401000009E64004008B50722074B1A70FFF7DCFFFFF7CEFFFFF7D2FF0022044B1A700822013B1A7008BD00BF8E6400408C64004008B5054B1B7823B9FFF7E4FF0122024BBB
:401040001A70FFF79DFF08BD6481FF1F054A137843F0080313701032137843F008031370704700BFA8430040054B1A7802F0FD021A701A7800F0020010431870704700BF90
:401080002C580040014B1870704700BF835B0040064B1B78C3F3810303F19243063393F83831DBB2024A1370704700BF2C5800400B46004008B5064B1A7802F0F3021A70B8
:4010C0001A7800F00C0010431870FFF7E1FF08BD2C58004010B50024054B1C7001331C702046FFF7E7FF2046FFF7BEFF10BD00BF2C58004008B5074B1B7823B9FFF7EAFF9B
:401100000122044B1A70FFF7A1FF6420FFF7BAFF08BD00BF6581FF1F054A137843F0020313701032137843F002031370704700BFA8430040054B1A7802F0FD021A701A78B5
:4011400000F0020010431870704700BF24580040014B1870704700BF815B0040064B1B78C3F3810303F19243063393F83031DBB2024A1370704700BF2458004009460040E1
:4011800008B5064B1A7802F0F3021A701A7800F00C0010431870FFF7E1FF08BD2458004010B50024054B1C7001331C702046FFF7E7FF2046FFF7BEFF10BD00BF2458004036
:4011C00008B5074B1B7823B9FFF7EAFF0122044B1A70FFF7A1FF6420FFF7BAFF08BD00BF6681FF1F054A137843F0010313701032137843F001031370704700BFA843004088
:40120000054B1A7802F0FD021A701A7800F0020010431870704700BF20580040014B1870704700BF805B0040064B1B78C3F3810303F19243063393F82031DBB2024A137007
:40124000704700BF205800400846004008B5064B1A7802F0F3021A701A7800F00C0010431870FFF7E1FF08BD2058004010B50024054B1C7001331C702046FFF7E7FF2046B8
:40128000FFF7BEFF10BD00BF2058004008B5074B1B7823B9FFF7EAFF0122044B1A70FFF7A1FF6420FFF7BAFF08BD00BF6781FF1F054A137843F0040313701032137843F0F4
:4012C00004031370704700BFA8430040054B1A7802F0FD021A701A7800F0020010431870704700BF28580040014B1870704700BF825B0040064B1B78C3F3810303F1924383
:40130000063393F82831DBB2024A1370704700BF285800400A46004008B5064B1A7802F0F3021A701A7800F00C0010431870FFF7E1FF08BD2858004010B50024054B1C70D4
:4013400001331C702046FFF7E7FF2046FFF7BEFF10BD00BF2858004008B5074B1B7823B9FFF7EAFF0122044B1A70FFF7A1FF6420FFF7BAFF08BD00BF6881FF1F084A13787C
:4013800043F0020313701032137843F00203137002F65932137843F001031370704700BFA3430040014B1880704700BF104F0040014B1880704700BF124F0040014B1870BE
:4013C000704700BF0F4F004008B51A4A137843F0020313700232137803F08F0343F010031370154B1A7802F0CF021A701A7842F030021A701A7802F0F0021A701A7842F0E2
:401400000F021A704FF47A70FFF7CCFF4FF4FA70FFF7CEFF0020FFF7D1FF084A137843F00203137002F66A32137843F00103137008BD00BF0C4F0040174F0040A343004071
:4014400008B5054B1B7823B9FFF7BEFF0122024B1A70FFF793FF08BD6981FF1F084A137843F0010313701032137843F00103137002F64D32137843F001031370704700BF9E
:40148000A3430040014B1880704700BF044F0040014B1880704700BF064F0040014B1870704700BF034F004008B5194A137843F0020313700232137803F08F0343F010035E
:4014C0001370144B1A7802F0CF021A701A7842F030021A701A7802F0F0021A701A7842F00F021A706420FFF7CDFF6420FFF7D0FF0020FFF7D3FF084A137843F0010313703E
:4015000002F65E32137843F00103137008BD00BF004F00400B4F0040A343004008B5054B1B7823B9FFF7C0FF0122024B1A70FFF795FF08BD6A81FF1FF0B583B086460F468F
:4015400016461D460B4C08232370002200920192184671463A46FFF731FA207831462A46FFF706FA20780221FFF7F0F9207803B0F0BD00BF2481FF1FF0B583B086460F4618
:4015800016461D460B4C09232370002200920192184671463A46FFF711FA207831462A46FFF7E6F920780221FFF7D0F9207803B0F0BD00BF2581FF1FF0B583B086460F4637
:4015C00016461D460A4C0620207000230093019371463A46FFF7F2F9207831462A46FFF7C7F920780221FFF7B1F9207803B0F0BD2681FF1F08B50A2813D00C2802D0082869
:4016000009D104E04FF400624FF480510DE080224FF4807109E00020FFF730FA0022114603E04FF400724FF480610020094B188042F2107303FB01F303F6C413064981FBC2
:401640000301DB17C3EBE12304490B6092B2044B1A8008BD1082FF1FAD8BDB680C82FF1F0882FF1F38B5FFF733F905461E4A137843F0020313701032137843F00203137009
:40168000193A137843F0040313701032137843F00403137002F5AA521932137843F0030313700424114B1C70013B1A7802F0BF021A701A7842F003021A700822053B1A701E
:4016C0000222A3F59753123B1A70094A137843F0080313700A20FFF7E9F9064B1C602846FFF7FAF838BD00BFAB4300400E5900402F5B004080E200E010B504460A280DD0F6
:401700000C2802D0082804D101E0C42207E0442205E00020FFF7B2F9C42200E08422034B1A702046FFF766FF10BD00BF0A59004008B5102000F024F902200721FFF7D4F9A9
:4017400002200749FFF7BCF9064A137843F0060313700C20FFF7D0FF0022034B1A8008BD99170000095900401282FF1F08B5054B1B7823B9FFF7DCFF0122024B1A70FFF7B1
:4017800071FF08BD6B81FF1F024A137843F001031370704708590040704700BF08B50A2813D00C2802D0082809D104E04FF400624FF480510DE080224FF4807109E0002040
:4017C000FFF75CF90022114603E04FF400724FF480610020094B188042F2107303FB01F303F6C413064981FB0301DB17C3EBE12304490B6092B2044B1A8008BD1482FF1F13
:40180000AD8BDB681C82FF1F1882FF1F38B5FFF75FF804461E4A137843F0010313701032137843F001031370193A137843F0020313701032137843F00203137002F5AA52ED
:401840001132137843F0030313700422114B1A70013B1A7802F0BF021A701A7842F003021A700822053B1A700225A3F597530C3B1D70094A137843F0080313700A20FFF744
:4018800015F9064B1D602046FFF726F838BD00BFAB43004006590040275B004080E200E010B504460A280DD00C2802D0082804D101E0C42207E0442205E00020FFF7DEF83F
:4018C000C42200E08422034B1A702046FFF766FF10BD00BF0259004008B5102000F05AF801200721FFF700F901200749FFF7E8F8064A137843F0060313700C20FFF7D0FF83
:401900000022034B1A8008BD41190000015900401682FF1F08B5054B1B7823B9FFF7DCFF0122024B1A70FFF771FF08BD6C81FF1F024A137843F001031370704700590040D0
:40194000704700BFF0B583B086460F4616461D460A4C0720207000230093019371463A46FFF72CF8207831462A46FFF701F820780221FEF7EBFF207803B0F0BD2781FF1FCB
:40198000034B1A7800F0F80010431870704700BF8A400040034B1A7800F0F80010431870704700BF86400040014B1B681865704708ED00E04001C0B2014B1870704700BF10
:4019C00004E400E01022014B1A60704700E100E01022014B1A60704780E100E010B50446FFF7F6FF2046FFF7DFFF0720FFF7E2FFFFF7E8FF10BD00BF014B1B6858657047E1
:401A000008ED00E04001C0B2014B1870704700BF05E400E02022014B1A60704700E100E02022014B1A60704780E100E010B50446FFF7F6FF2046FFF7DFFF0720FFF7E2FF59
:401A4000FFF7E8FF10BD00BF014B1B681866704708ED00E04001C0B2014B1870704700BF08E400E04FF48072014B1A60704700BF00E100E04FF48072014B1A60704700BFB8
:401A800080E100E010B50446FFF7F4FF2046FFF7DBFF0720FFF7DEFFFFF7E4FF10BD00BF014B1B689865704708ED00E04001C0B2014B1870704700BF06E400E04022014B8B
:401AC0001A60704700E100E04022014B1A60704780E100E010B50446FFF7F6FF2046FFF7DFFF0720FFF7E2FFFFF7E8FF10BD00BFF0B583B086460F4616461D460B4C0A23FD
:401B00002370002200920192184671463A46FEF755FF207831462A46FEF72AFF20780221FEF714FF207803B0F0BD00BF2881FF1FF0B583B084468E4617461E460B4C02255A
:401B400025700023009301932846614672462B46FEF734FF207839463246FEF709FF20782946FEF7F3FE207803B0F0BD2981FF1F0E4B70B51E460E4C0025E41AA410A542ED
:401B800004D056F8253098470135F8E700F08CFB084B094C1E46E41AA4100025A54204D056F8253098470135F8E770BDB4220000B4220000B4220000BC22000010B5431E5B
:401BC0000A44914204D011F8014B03F8014FF8E710BD03460244934202D003F8011BFAE77047000000000000205B0040585B0040244300402443004008080000265B0040F2
:401C0000244300402E5B00405A5B0040244300402443004024430040244300400200020200000000C84900401900004F0040180040510040300000000140001000140140E5
:401C4000000800400140000A004C01400002005001402000105101403C04004806000051014044040048080021F8050144F80B4067F81B8081F80501A6F81901C2F807019E
:401C80008561922109F9290121F9050188A2A22100000000000000000000000000000000000000000000000000000000000000000000000000000000000000000000000052
:401CC00000000000000000000000000000000000000000000000000000000000000000000000000000000000000000000000000000000000000000000000000000000000E4
:401D000000000000000000000000000000000000000000000000000000000000000000000000000000000000000000000000000000000000000000000000000000000000A3
:401D400000000000000000000000000000000000000000000000000000000000000000000000000000000000180C00000000000000000000B1180000990C0000990C00002C
:401D800000000000000000000000000000000000000000000000000000000000000000000000000000000000640A0000382D0000FE770000BC020100A2DE01000B1103007C
:401DC00065900400C6430600610508009FA70900F8FB0A0057DA0B00A6270C0057DA0B00F8FB0A009FA7090061050800C6430600659004000B110300A2DE0100BC020100AF
:401E0000FE770000382D0000640A00004F8A0000AEC9000083440100D9FB010084EA020043050400803B0500B678060047A6070098AD08003F7A090003FC090078280A0008
:401E400003FC09003F7A090098AD080047A60700B6780600803B05004305040084EA0200D9FB010083440100AEC900004F8A000000000000000000000000000000000000BA
:401E80000000000000000000000000000000000000000000000000000000000000000000000000000000000000000000000000000000000000000000000000000000000022
:401EC00000000000000000000000000000000000000000000000000000000000000000000000000000000000000000000000000000000000000000000000000000000000E2
:401F000000000000000000000000000000000000000000000000000000000000000000000000000000000000000000000000000000000000000000000000000000000000A1
:401F40000000000000000000000000000000000000000000000000000000000000000000000000000000000000000000000000000000000000000000000000000000000061
:401F80000000000000000000000000000000000000000000000000000000000000000000000000000000000000000000000000000000000000000000000000000000000021
:401FC00000000000000000000000000000000000000000000000000000000000000000000000000000000000000000000000000000000000000000000000000000000000E1
:4020000000000000000000000000000000000000000000000000000000000000000000000000000000000000000000000000000000000000000000000000000000000000A0
:402040000000000000000000000000000000000000000000000000000000000000000000000000000000000000000000000000000000000000000000000000000000000060
:402080000000000000000000000000000000000000000000000000000000000000000000000000000000000000000000000000000000000000000000000000000000000020
:4020C00000000000000000000000000000000000000000000000000000000000000000000000000000000000000000000000000000000000000000000000000000000000E0
:40210000000000000000000000000000000000000000000000000000000000000000000000000000000000000000000000000000000000000000000000000000000000009F
:40214000000000000000000000000000000000000000000000000000000000000000000000000000000000000000000000000000000000000000000000000000000000005F
:40218000000000000000000000000000000000000000000000000000000000000000000000000000000000002013002561178026010080260100802601008026E00E802620
:4021C000C20C8026020080066587186D6409183E00008026032080262102187FE60E8026C80C8026000080066B87186D6A09183E00008026012080262102187F0000000085
:40220000000000000000000000000000000000000000000000000000000000000000000000000000000000000000000000000000000000000000000000000000000000009E
:40224000000000000000000000000000000000000000000000000000000000000000000000000000000000000000000000000000000000000000000000000000000000005E
:4022800000000000000000000000000000000000000000000000000000000000000000000000000000000000F8B500BFF8BC08BC9E4670474D000000AD030000F8B500BF36
:4022C000F8BC08BC9E46704729000000E02200000881FF1F28000000F000000000000000000000007F800000FF0700000000A08C401901004800000000A24A04FFFFFFFF22
:40230000FFFF00000000000000000000000000000000000000000000000000000000000000000000000000000000000000000000000000000000000000000000000000009F
:40234000000000000000000000000000000000000000000000000000000000000000000000000000000000000000000000000000000000000000000000000000000000005D
:40238000000000000000000000000000000000000000000000000000000000000000000000000000000000000000000000000000000000000000000000000000000000001D
:4023C00000000000000000000000000000000000000000000000000000000000000000000000000000000000000000000000000000000000000000000000000000000000DD
:40240000000000000000000000000000000000000000000000000000000000000000000000000000000000000000000000000000000000000000000000000000000000009C
:020000040003F7
:0200000480007A
:4000000001450040044F004006520040025B00400364004002030140030501400107014001090140260A0140310B01402E0C0140350D0140340E0140220F0140031501406E
:400040000117014001190140031B0140114001401A410140184201400A4301400A440140144501400B460140084701400848014009490140104C0140094D014007500140DB
:400080007E0201800A4B0D80164B102011201320602461367C4027842F848B788C478E07E602EA08E28CE602E801EA02AF800B0118012A013201350138023E0556085804A4
:4000C00059045B045C305D305F019001A301AA01B001B101B601C001C9FFCAFFCBFFCD20CEF0D110D420D604D804D904DA04DB04DC99DD39DF01E210E30109200E801204D7
:40010000172019021B041D801E801F80212027802F8038103F0C4580580159185A805F0160186284634064106601678682018740881189028A108B40928093039780991875
:400140009A109B209C08A680AB20C212C442CA80CE04D010D68FD8FFE280E60209011603170118011F012C04300431013402360138883A203E013F015441580B59045B0465
:400180005C035D305F018101820185018602880189018E028F019F02A002A402A802B202B302B401B701BE14BF40D608D804D904DB04DC30DD90DF010010014002900D6054
:4001C0000E100F0110A8158019081B101DA01E101F0120112240278029102B0832803408368039553C104F3058405C085E205F8067107F40844085808B0491D59401970809
:400200009A10A0A8A210A308AF40B320C00FC260C48ECC58CE2FD678D840DE80E608EA08EE0209010A1E0C100E0114401A211E40200122022401260428012A0830403220BA
:400240003301341F3E113F04400141064210440245BE46DF470C481F49FF4AFF4BFF4C224EF04F0C508C511056025728580459045A245B245C085D885E085F216840690176
:400280006AC06B01D608DB04DD90001001400B2A10A818141902233039203B2040054A104B125140521053085F40631068A8695579207B10831087108902C003C207C40E91
:4002C000CE04D00CD204D610D802DE06E603E804EA01EC90EE02EE02E804EA01EC9013801408170433023640370239013A403D403F0442016D406E80C4E0CCE0CEF0D01079
:4003000012401320144030403304340837803C08412086209601970498089B849E409F02A120A640AD21AF02C470CCF0CE80D010E640EA103E104F805108570458085C0896
:400340008340840486418808960197049F02A220A404A640AB20CE20D220D460D6C0E230E640E8801B041D0896109F02A220A508A704AF04C630EA401101130214207F80D1
:40038000818087408B04C40CDE01E00108400B400D8067087304842088409101930C97C09820A580A780AF42B304C20BD801DC04E201EC041B08450887088B8091019780A4
:4003C0009820A780C608D001E0010B404520910197809820A508C208D0042104251027109610A220AF02C8E0EE405220A220AA10AB10B104B510D420E820EA8010401320B6
:4004000014801F40370879017C20910197809820A528AF40C40EC601CC01DE0378407C8098C0AB28B120B508DC01DE04EC090008010102140C080D010E080F01AAA020001D
:4004400000000000BDFF03C000000000000000000000FD00300000063600360000360000002A0000000000004000000000000000C3000000000000000000F000D0202000FB
:4004800020200600000808000800A00086011801000A000000010000000200000003000000080000000900000000000000000000000000000000000000000000000000007D
:4004C00000000000000000000000000000000000000000000000000000000000000000000000000000000000000000000000000000000000000000000000000000000000FC
:4005000000000000000000000000000000000000000000000000000000000000000000000000000000000000000000000000000000000000000000000000000000000000BB
:40054000000000000000000000000000000000000000000000000000000000000000000000000000000000000000000000000000000000000000000000000000000000007B
:40058000000000000000000000000000000000000000000000000000000000000000000000000000000000000000000000000000000000000000000000000000000000003B
:0200000490006A
:0400000000004005B7
:0200000490105A
:04000000BC90ACAF55
:0200000490303A
:02000000128765
:0200000490402A
:4000000000000000000000000000000000000000000000000000000000000000000000000000000000000000000000000000000000000000000000000000000000000000C0
:400040000000000000000000000000000000000000000000000000000000000000000000000000000000000000000000000000000000000000000000000000000000000080
:400080000000000000000000000000000000000000000000000000000000000000000000000000000000000000000000000000000000000000000000000000000000000040
:4000C0000000000000000000000000000000000000000000000000000000000000000000000000000000000000000000000000000000000000000000000000000000000000
:0200000490501A
:0C00000000012E16106900012E2222F0D3
:00000001FF