:400000000080002011000000AD040000AD04000008B5044B1A6803F53F5302331A6000F047FA00BFFA46004010B5054C237833B9044B13B10448AFF300800123237010BDD4
:400040003081FF1F00000000A41C0000084B10B51BB108480849AFF300800848036803B910BD074B002BFBD0BDE81040184700BF00000000A41C00003481FF1F0881FF1F71
:4000800000000000044B1A8E044B110A19705A700122034B1A6070478881FF1FF481FF1F4C81FF1F044B1A8E044B110A9970DA700122034B5A607047BC81FF1FF481FF1FC1
:4000C0004C81FF1F10B5044C207801F01FF923689B01024A136010BDFC81FF1F6881FF1F10B4184B1B68184A12689B1A174A12681748016802FB03110160164A12689A1A2C
:40010000154804681548006800FB01F104FB03131349096801FB0233124A1360B3F5205F03DB4FF420520F4B1A600E4B1B68B3F5C05F03DC4FF4C0520A4B1A605DF8044B8A
:40014000704700BF6881FF1F8081FF1F0C81FF1F6C81FF1F7481FF1F8481FF1F7881FF1F6481FF1F7081FF1F034B1860034B1960034B1A60704700BF8481FF1F7881FF1FC9
:400180006481FF1F08B5064801F05AFC054801F07FFC054801F0A4FC00F080FF08BD00BF85000000A5000000C500000008B562B600F02AF800F06AF9FFF7E4FF802000219D
:4001C0000246FFF7D1FF0C4B1B68002BFBD00B4C22880B4B1A60FFF783FF0A4B1868C0F3871001F0F9F82088C0F3871000F0C2FF0022014B1A60E6E74C81FF1F8881FF1F6D
:400200008081FF1F7081FF1F08B500F017FE04200146234A00F020FE01F0F6F901F086F9232001F0ABF9232001F03AF901F00CF901F0A4F801F03CF800F0D4FF7F2001F05E
:40024000CBF87F2001F062F87F2000F0F9FF7F2000F090FF01F0AEFB01F0DCFA01F0B8FB01F0E6FA00F048FD0120014600F076FD0420012100F072FD0020012100F04AFD38
:400280000220012100F06AFD0820012100F066FD0120014600F03EFD00F042FF08BD00BFF481FF1F38B5022001214FF4804241F6FF7301F0B7F9054600F030FC04463221A7
:4002C0000246062300F044FC20464CF2A871064A92B200F051FC2846214600F0EFFB2846012100F0A3FB38BD8881FF1F38B5022001214FF4804241F6FF7301F0B3F905461F
:4003000000F00CFC044632210246062300F020FC20464CF2AC71064A92B200F02DFC2846214600F0CBFB2846012100F07FFB38BDBC81FF1F38B5012001464FF4804241F6D7
:40034000FF7301F0DBFB054600F0E8FB044601210246042300F0FCFB204646F25651064A92B200F009FC2846214600F0A7FB2846012100F05BFB38BDFC81FF1F38B50220BA
:4003800001214FF48042134601F0D6FB054600F0C5FB044602210246042300F0D9FB204645F6A03146F6082200F0E6FB2846214600F084FB2846012100F038FB38BD00BF0C
:4003C00038B5022001214FF48042134601F0D4FB054600F0A3FB044602210246042300F0B7FB204645F6A23146F60C0200F0C4FB2846214600F062FB2846012100F016FB37
:4004000038BD00BF38B5022001214FF48042134601F0D2FB054600F081FB044602210246002300F095FB204646F628214CF2A07200F0A2FB2846214600F040FB2846012154
:4004400000F0F4FA38BD00BF38B5022001214FF48042134601F0CEFB054600F05FFB044602210246002300F073FB204646F62C014CF2A47200F080FB2846214600F01EFB6A
:400480002846012100F0D2FA38BD00BF08B5FFF775FFFFF795FFFFF7B5FFFFF7D5FFFFF701FFFFF723FFFFF745FF08BDFEE700BF08B5104E104D16E029686B68AC6800225E
:4004C00004E051F8040B43F8040B0432A242F8D1E868002203E0002143F8041B04328242F9D11035013E002EE6D101F0A1FBFFF75DFEFEE7010000003C23000008B5134A59
:40050000134B1A60134A136843F40073136000230AE0032B03D8104A52F8231000E00F490F4A42F8231001332F2BF2D90D4B1A780D4B1A700A4A0D4B1A6000F06BF900F074
:400540005BFA00220A4B1A6008BD00BF0004FA050CED00E014ED00E000000000AD0400000080FF1FBC7600400481FF1F08ED00E00081FF1FFEE700BFF0B40022174611E064
:4005800050F82760F3B226F0FF0608E001EB420511F812406D78A5550132013BDBB2002BF4D10137232FEBD9F0BC704708B50A46002101F06EFB08BDF8B5424B1B78DBB213
:4005C000414E3478E4B2414F3D78EDB203F007013F4A11701B090132137044F00303337045F003033B704FF4C1423A4B1A80F02211331A7006211033197040F20122CF3315
:400600001A800E2203F5CE631A708023324A1370083213701020F73210700122DFF8DCE08EF800200EF1020E8EF800302B4B187002232B48037040200EF1300E8EF80000B8
:400640000EF1480E8EF800200EF10B0E8EF800200EF1080E8EF800204FF0200C0EF1050E8EF800C04FF0410C0EF1280E8EF800C00EF1080E8EF800201A4A137011321070D7
:4006800001321370443213700422174802704FF0080E043080F800E0043002701348144A10601448043210600D321170093213700A2000F071FA3D70347044220E4B1A7045
:4006C000F8BD00BFCF010049F8460040F94600406E5800400C51004001590040305A0040365A0040CA5A0040245B004012011005405B00400401030176580040065A0040BC
:4007000008B501F0BBFA08BD38B50024334B1C80502202331A70032202331A80182330490B7002310A802F4A1370232102321180023213702C482D490422FFF7E1FF06228B
:400740002B4B1A705222A3F580731A70294B1B78DBB2294A137040F62A52284B1A8042F25122023B1A8019250CE0254B1B7803F0010343EA440404F003044FF4F07000F002
:400780002BF9013D0DB1032CEFD115B90320FFF7F1FE1C4A4FF48073138007231370002319490B704820023108701370053213700222164B1A7004220A331A70144A137843
:4007C00043F00F031370013A137843F001031370013A137843F08003137038BD80400040864000408A4000400041004038050048004300400F010049A14600402242004000
:4008000025420040044000400640004001400040A243004038B572B66122494B1A70FFF773FF484A137843F00403137000240CE0454963001A1952000A4423445B00C858B3
:400840009188FFF7B3FE0134E4B2072CF0D94FF090403E49FFF790FE0A253D4B1D703D480421FFF7A3FE3C480421FFF79FFE3B480421FFF79BFE3A483A490422FFF740FF7F
:4008800039483A490422FFF73BFF39480421FFF78DFE38480421FFF789FE374837490422FFF72EFF364837490422FFF729FF364A137843F0020313701032137843F0020340
:4008C0001370324C237843F040032370A2F58632513A137843F0100313702D482D490822FFF70EFF2C482D492A46FFF709FF2C482C490522FFF704FF2B482C492A46FFF75E
:40090000FFFE2B482B490822FFF7FAFE2A482B490822FFF7F5FE2A482A490822FFF7F0FEE422294B1A70294A137843F008031370FFF742FE264821460E22FFF7E1FE38BD07
:4009400000480040E8460040A81C00009000004883580040007600400876004010760040187600403C0500482076004040050048287600403076004040760040440500488B
:40098000487600404805004803500140A043004002510040F8040048C051004000050048CB5100400C050048F05100401405004812510040200500482251004028050048A9
:4009C00032510040300500485B06014022430040B0430040000000000230800803D000BF01380046FCD17047EFF3108072B6704780F31088704700BF0B4A7F231370802101
:400A0000517007E0DA0002F1804202F5F042013BDBB21370002BF5D1DB0003F1804303F5F04300221A7070471081FF1F172815D831B103010A495A5C42F020025A5405E048
:400A4000030107495A5C02F0DF025A540001044A835C43F00103835400207047012070471070004017280BD80001064A835C03F0F10301F0070143EA4101815400207047F3
:400A8000012070471070004041F6FF73994201D14FF4005141F6FF739A4201D14FF40052172808D8C00000F1804000F5EC408180C280002070470120704700BF172805D84A
:400AC000034B03EB0010417200207047012070471070004017281BD810B4C00000F1804404F5EC44D201D2B201F07F01114321709DF804201201D2B203F00F0313436370C9
:400B00009DF8083003F00F03A3700020E07001E0012070475DF8044B704700BF10B5FFF763FF0A4B5B78182B0BD9084A1478013B5370E30003F1804303F5F0431B78137069
:400B400000E0FF24FFF754FF204610BD1081FF1F10F0800F0CD111F4704F0BD1C00000F1804000F5F04001808270C37000207047012070470120704710F0800F08D1C00050
:400B800000F1804000F5F0408180C280002070470120704701BE704708B5034B1B7A03FB00F0FFF719FF08BD1881FF1F70B504460E46074B1D681F2802D90020FFF7EAFF24
:400BC00004F01F04103455F8240045F8246070BD08ED00E038B504460D46072902D90020FFF7D8FF1F2C02D90020FFF7D3FF04F01F0000F1604000F564406D01EDB2057017
:400C000038BD00BFF8B5244A137843F01003137002F50342DA32137803F0FE0313703F2308321370043213701C4D4FF480741C482946224601F022F81A482946224601F05F
:400C40001DF819481949224601F018F84FF4007417481849224601F011F817481749224601F00CF8164C174E04F14007354620686168A268E3680FC510342E46BC42F5D1CA
:400C80000020114B187000F079F8052000F07EF8F8220E4B1A70F8BDA64300401822000000C4004000C5004000C60040D81C000000C000401820000000C20040181E0000BC
:400CC000D81D000000C700408CC7004084C70040084A137843F0100313701032137843F01003137002F50342CA32137843F0010313707047A643004008B5054B1B7823B9C5
:400D0000FFF780FF0122024B1A70FFF7E1FF08BD5481FF1F68B9104B1A7802F0CC021A701A780A431A701A780901C9B211431970704701280ED1084B1A7802F033021A70AC
:400D400018788A00D2B202431A701A788901C9B211431970704700BFB0C70040012904D1054B1A7810431870704721B9024A137823EA000010707047B4C7004000F01F0033
:400D8000014B1870704700BF98C7004000F00F00014B1870704700BF9CC7004010B50122124B1A7081220E3B1A70082202331A70042211331A70002401331C704FF40042D3
:400DC0000B4B1A600F200721FFF704FF0F200949FFF7ECFE084B1C70084B1C70084B1C70084B1C70084B1C8010BD00BFD649004080E100E0A90E00000C82FF1F0082FF1FD8
:400E00000D82FF1F0E82FF1F0882FF1F08B5FFF7EBFD084A137843F0040313701032137843F004031370FFF7E3FD4FF40042024B1A6008BDA543004000E100E008B5054B13
:400E40001B7823B9FFF7AAFF0122024B1A70FFF7DDFF08BD5581FF1F10B44FF400440B4B1C6032B113460A4A13600A4B18800A4B19800023094A1370094A13704FF4004290
:400E8000084B1A605DF8044B704700BF80E100E00482FF1F0A82FF1F0882FF1F0D82FF1F0E82FF1F00E100E0654B1B78DBB2654A137013F0080F32D0634B1B7813F0010F86
:400EC0001CD0624A1378DBB261490968CB5CDBB25D490B7014215A4B19701378DBB25D4A137013780133DBB213705B4A137843F0110313700822594B1A708EE01022504B51
:400F00001A70554A137843F0120313700122534B1A70534A137843F0100313707DE013F0010F7AD04D4A1278D2B2042A1ED0082A3AD0012A68D1444B1B78DBB2414A5370DE
:400F4000484A128892B293420CD210223C4B1A703C4B5B783D4A13703E4A137004223F4B1A705AE00022364B1A7056E0394B1A783D4B1B889BB29A4212D2334B1B783149EC
:400F80004B7010222E4B1A70324A1378DBB2304800684978C15413780133DBB213703CE00022274B1A7038E013F0020F1ED1294B1A782C4B1B889BB29A4210D2254A1378AE
:400FC000DBB223490968CB5CDBB21F490B7004211B4B197013780133DBB213701DE0FF22194B1A700422013B1A7016E0FF22164B1A700022013B1A7017490B7803F0EF0363
:401000000B70164B1A7008E00023144A13700F4A1370104A13700A4A1370094B1B7813F0200F0CD00C4A137803F0EF03137000220A4B1A700A4A137803F0EF031370704791
:40104000D74900405681FF1FD84900400D82FF1F0482FF1F0E82FF1F0082FF1F0C82FF1FD64900400A82FF1F0882FF1F08B5FFF7BBFC094A137843F020031370FE321378E2
:4010800043F0100313700332137843F010031370FFF7AEFC08BD00BF96640040704700BF014B1878704700BF64650040014B1878704700BF6765004008B501E00A4B1B78CB
:4010C0000A4B1B7813F0080FF8D1FFF78DFC084B1A7842F003021A701A7802F0FC021A70FFF786FC08BD00BF56650040676500409665004008B50722074B1A70FFF7DCFF23
:40110000FFF7CEFFFFF7D2FF0022044B1A70082203331A7008BD00BF866400408465004008B5054B1B7823B9FFF7E4FF0122024B1A70FFF79BFF08BD5881FF1F054A1378F4
:4011400043F0020313701032137843F002031370704700BFA8430040054B1A7802F0FD021A701A7800F0020010431870704700BF24580040014B1870704700BF815B004037
:40118000064B1B78C3F3810303F19243063393F83031DBB2024A1370704700BF245800400946004008B5064B1A7802F0F3021A701A7800F00C0010431870FFF7E1FF08BDF1
:4011C0002458004010B50024054B1C7001331C702046FFF7E7FF2046FFF7BEFF10BD00BF2458004008B5074B1B7823B9FFF7EAFF0122044B1A70FFF7A1FF6420FFF7BAFFE9
:4012000008BD00BF5981FF1F054A137843F0080313701032137843F008031370704700BFA8430040054B1A7802F0FD021A701A7800F0020010431870704700BF2C58004072
:40124000014B1870704700BF835B0040064B1B78C3F3810303F19243063393F83831DBB2024A1370704700BF2C5800400B46004008B5064B1A7802F0F3021A701A7800F038
:401280000C0010431870FFF7E1FF08BD2C58004010B50024054B1C7001331C702046FFF7E7FF2046FFF7BEFF10BD00BF2C58004008B5074B1B7823B9FFF7EAFF0122044BE9
:4012C0001A70FFF7A1FF6420FFF7BAFF08BD00BF5A81FF1F054A137843F0010313701032137843F001031370704700BFA8430040054B1A7802F0FD021A701A7800F0020081
:4013000010431870704700BF20580040014B1870704700BF805B0040064B1B78C3F3810303F19243063393F82031DBB2024A1370704700BF205800400846004008B5064B1D
:401340001A7802F0F3021A701A7800F00C0010431870FFF7E1FF08BD2058004010B50024054B1C7001331C702046FFF7E7FF2046FFF7BEFF10BD00BF2058004008B5074B7B
:401380001B7823B9FFF7EAFF0122044B1A70FFF7A1FF6420FFF7BAFF08BD00BF5B81FF1F054A137843F0040313701032137843F004031370704700BFA8430040054B1A78F8
:4013C00002F0FD021A701A7800F0020010431870704700BF28580040014B1870704700BF825B0040064B1B78C3F3810303F19243063393F82831DBB2024A1370704700BFA0
:40140000285800400A46004008B5064B1A7802F0F3021A701A7800F00C0010431870FFF7E1FF08BD2858004010B50024054B1C7001331C702046FFF7E7FF2046FFF7BEFFA7
:4014400010BD00BF2858004008B5074B1B7823B9FFF7EAFF0122044B1A70FFF7A1FF6420FFF7BAFF08BD00BF5C81FF1F084A137843F0020313701032137843F0020313705F
:4014800002F65932137843F001031370704700BFA3430040014B1880704700BF104F0040014B1880704700BF124F0040014B1870704700BF0F4F004008B5194A137843F00E
:4014C000020313700232137803F08F0343F010031370144B1A7802F0CF021A701A7842F030021A701A7802F0F0021A701A7842F00F021A706420FFF7CDFF0A20FFF7D0FF05
:401500000020FFF7D3FF084A137843F00203137002F66A32137843F00103137008BD00BF0C4F0040174F0040A343004008B5054B1B7823B9FFF7C0FF0122024B1A70FFF746
:4015400095FF08BD5D81FF1F084A137843F0010313701032137843F00103137002F64D32137843F001031370704700BFA3430040014B1880704700BF044F0040014B1880CF
:40158000704700BF064F0040014B1870704700BF034F004008B5194A137843F0020313700232137803F08F0343F010031370144B1A7802F0CF021A701A7842F030021A7013
:4015C0001A7802F0F0021A701A7842F00F021A706420FFF7CDFF0A20FFF7D0FF0020FFF7D3FF084A137843F00103137002F65E32137843F00103137008BD00BF004F0040F8
:401600000B4F0040A343004008B5054B1B7823B9FFF7C0FF0122024B1A70FFF795FF08BD5E81FF1FF0B583B086460F4616461D460B4C08232370002200920192184671464A
:401640003A46FFF747FA207831462A46FFF71CFA20780221FFF706FA207803B0F0BD00BF2881FF1FF0B583B086460F4616461D460B4C0923237000220092019218467146CF
:401680003A46FFF727FA207831462A46FFF7FCF920780221FFF7E6F9207803B0F0BD00BF2981FF1F08B50A2813D00C2802D0082809D104E04FF400624FF480510DE080220C
:4016C0004FF4807109E00020FFF764FA0022114603E04FF400724FF480610020084B188042F2107303FB01F313F5806301D503F2FF73DB1203490B6092B2034B1A8008BDB3
:401700001882FF1F1482FF1F1082FF1F38B5FFF76BF905461E4A137843F0020313701032137843F002031370193A137843F0040313701032137843F00403137002F5AA52AD
:401740001932137843F0030313700424114B1C70013B1A7802F0BF021A701A7842F003021A700822053B1A700222A3F59753123B1A70094A137843F0080313700A20FFF739
:401780000BFA064B1C602846FFF732F938BD00BFAB4300400E5900402F5B004080E200E010B504460A280DD00C2802D0082804D101E0C42207E0442205E00020FFF7EAF918
:4017C000C42200E08422034B1A702046FFF76AFF10BD00BF0A59004008B5102000F002F902200721FFF7F6F902200749FFF7DEF9064A137843F0060313700C20FFF7D0FFE0
:401800000022034B1A8008BD41180000095900401A82FF1F08B5054B1B7823B9FFF7DCFF0122024B1A70FFF771FF08BD5F81FF1F024A137843F001031370704708590040CB
:40184000704700BF08B50A2813D00C2802D0082809D104E04FF400624FF480510DE080224FF4807109E00020FFF794F90022114603E04FF400724FF480610020084B1880E4
:4018800042F2107303FB01F313F5806301D503F2FF73DB1203490B6092B2034B1A8008BD1C82FF1F2482FF1F2082FF1F38B5FFF79BF804461E4A137843F0010313701032D3
:4018C000137843F001031370193A137843F0020313701032137843F00203137002F5AA521132137843F0030313700422114B1A70013B1A7802F0BF021A701A7842F0030225
:401900001A700822053B1A700225A3F597530C3B1D70094A137843F0080313700A20FFF73BF9064B1D602046FFF762F838BD00BFAB43004006590040275B004080E200E0B0
:4019400010B504460A280DD00C2802D0082804D101E0C42207E0442205E00020FFF71AF9C42200E08422034B1A702046FFF76AFF10BD00BF0259004008B5102000F03CF8DB
:4019800001200721FFF726F901200749FFF70EF9064A137843F0060313700C20FFF7D0FF0022034B1A8008BDE1190000015900401E82FF1F08B5054B1B7823B9FFF7DCFF62
:4019C0000122024B1A70FFF771FF08BD6081FF1F024A137843F001031370704700590040704700BF034B1A7800F0F80010431870704700BF8A400040034B1A7800F0F80081
:401A000010431870704700BF86400040014B1B681865704708ED00E04001C0B2014B1870704700BF04E400E01022014B1A60704700E100E01022014B1A60704780E100E052
:401A400010B50446FFF7F6FF2046FFF7DFFF0720FFF7E2FFFFF7E8FF10BD00BF014B1B685865704708ED00E04001C0B2014B1870704700BF05E400E02022014B1A6070472E
:401A800000E100E02022014B1A60704780E100E010B50446FFF7F6FF2046FFF7DFFF0720FFF7E2FFFFF7E8FF10BD00BF014B1B681864704708ED00E04001C0B2014B18706C
:401AC000704700BF00E400E00122014B1A60704700E100E00122014B1A60704780E100E010B50446FFF7F6FF2046FFF7DFFF0720FFF7E2FFFFF7E8FF10BD00BFF0B583B0F7
:401B000086460F4616461D460A4C0023237000930193184671463A46FEF7DCFF207831462A46FEF7B1FF20780221FEF79BFF207803B0F0BD2A81FF1FF0B583B086460F4605
:401B400016461D460B4C03232370002200920192184671463A46FEF7BDFF207831462A46FEF792FF20780221FEF77CFF207803B0F0BD00BF2B81FF1FF0B583B086460F465F
:401B800016461D460B4C04232370002200920192184671463A46FEF79DFF207831462A46FEF772FF20780221FEF75CFF207803B0F0BD00BF2C81FF1FF0B583B086460F467D
:401BC00016461D460A4C0520207000230093019371463A46FEF77EFF207831462A46FEF753FF20780221FEF73DFF207803B0F0BD2D81FF1FF0B583B086460F4616461D46FA
:401C00000A4C0620207000230093019371463A46FEF760FF207831462A46FEF735FF20780221FEF71FFF207803B0F0BD2E81FF1F0E4B70B51E460E4C0025E41AA410A5428E
:401C400004D056F8253098470135F8E700F064FB084B094C1E46E41AA4100025A54204D056F8253098470135F8E770BD2423000024230000242300002C23000010B5431EFE
:401C80000A44914204D011F8014B03F8014FF8E710BD03460244934202D003F8011BFAE77047000000000000C84900401900004F004018004051004030000000014000109B
:401CC00000140140000800400140000A004C0140000200500140200021F8050144F80B4067F81B8081F80501A6F81901C2F807018561922109F9290121F9050188A2A22151
:401D000000000000000000000000000000000000000000000000000000000000000000000000000000000000000000000000000000000000000000000000000000000000A3
:401D40000000000000000000000000000000000000000000000000000000000000000000000000000000000000000000000000000000000000000000000000000000000063
:401D80000000000000000000000000000000000000000000000000000000000000000000000000000000000000000000000000000000000000000000000000000000000023
:401DC000000000000000000000000000000000000000000000000000180C00000000000000000000B1180000990C0000990C000000000000000000000000000000000000AC
:401E0000000000000000000000000000000000000000000000000000640A0000382D0000FE770000BC020100A2DE01000B11030065900400C6430600610508009FA7090036
:401E4000F8FB0A0057DA0B00A6270C0057DA0B00F8FB0A009FA7090061050800C6430600659004000B110300A2DE0100BC020100FE770000382D0000640A0000640A00003D
:401E8000382D0000FE770000BC020100A2DE01000B11030065900400C6430600610508009FA70900F8FB0A0057DA0B00A6270C0057DA0B00F8FB0A009FA70900610508001C
:401EC000C6430600659004000B110300A2DE0100BC020100FE770000382D0000640A0000000000000000000000000000000000000000000000000000000000000000000033
:401F000000000000000000000000000000000000000000000000000000000000000000000000000000000000000000000000000000000000000000000000000000000000A1
:401F40000000000000000000000000000000000000000000000000000000000000000000000000000000000000000000000000000000000000000000000000000000000061
:401F80000000000000000000000000000000000000000000000000000000000000000000000000000000000000000000000000000000000000000000000000000000000021
:401FC00000000000000000000000000000000000000000000000000000000000000000000000000000000000000000000000000000000000000000000000000000000000E1
:4020000000000000000000000000000000000000000000000000000000000000000000000000000000000000000000000000000000000000000000000000000000000000A0
:402040000000000000000000000000000000000000000000000000000000000000000000000000000000000000000000000000000000000000000000000000000000000060
:402080000000000000000000000000000000000000000000000000000000000000000000000000000000000000000000000000000000000000000000000000000000000020
:4020C00000000000000000000000000000000000000000000000000000000000000000000000000000000000000000000000000000000000000000000000000000000000E0
:40210000000000000000000000000000000000000000000000000000000000000000000000000000000000000000000000000000000000000000000000000000000000009F
:40214000000000000000000000000000000000000000000000000000000000000000000000000000000000000000000000000000000000000000000000000000000000005F
:40218000000000000000000000000000000000000000000000000000000000000000000000000000000000000000000000000000000000000000000000000000000000001F
:4021C00000000000000000000000000000000000000000000000000000000000000000000000000000000000000000000000000000000000000000000000000000000000DF
:402200000000000000000000000000000000000000000000000000002013002561178026010080260100802601008026E00E8026C20C8026020080066587186D6409183E6F
:4022400000008026032080262102187FE60E8026C80C8026000080066B87186D6A09183E00008026012080262102187F000000000000000000000000000000000000000034
:40228000000000000000000000000000000000000000000000000000000000000000000000000000000000000000000000000000000000000000000000000000000000001E
:4022C00000000000000000000000000000000000000000000000000000000000000000000000000000000000000000000000000000000000000000000000000000000000DE
:40230000000000000000000000000000000000000000000000000000F8B500BFF8BC08BC9E4670474D000000FD040000F8B500BFF8BC08BC9E4670472900000050230000B5
:402340000881FF1F28000000F80000000000000000000000190000007F8000007F0300000000A08C401901004800000000A24A04FFFFFFFFFFFFFF00000000000000000045
:40238000000000000000000000000000000000000000000000000000000000000000000000000000000000000000000000000000000000000000000000000000000000001D
:4023C00000000000000000000000000000000000000000000000000000000000000000000000000000000000000000000000000000000000000000000000000000000000DD
:40240000000000000000000000000000000000000000000000000000000000000000000000000000000000000000000000000000000000000000000000000000000000009C
:40244000000000000000000000000000000000000000000000000000000000000000000000000000000000000000000000000000000000000000000000000000000000005C
:020000040003F7
:0200000480007A
:4000000001450040044F004004520040025B00400164004002650040020101400603014007050140440601403407014002090140020B0140020D0140020F0140391401407C
:4000400031150140371601403617014002190140041A0140051B01401340014012410140094201400B430140074401401045014011460140124701400D4801400A49014000
:40008000134C01400A4D014008500140055101407E0201800A360D8016361020602461367C4027842F84860784478778E201E60298909A20A880AA20B010EE028F409890BC
:4000C0009A20A110A604AA04B510000102020C100E01161E1A0124012608270128012A043501361F3E40406449FF4AFF4BFF4C0C4D20511056025720580459045A045B2414
:400100005C805D895E085F11621063016410651185018C098E0290109604970198039A0C9E01B001B20CB402B610B701BE40BF40C024CC03CD2FCEFFD110D608D804D90476
:40014000DA04DB04DC09DD99DF01E210E301E410E51100400741088009010A280C200E201714186419401A281B411D80200226102A802B012C2030083A0840044280468026
:400180004E0458105A8065406E146F557D22801081018208882098909A20A110A604A740C091C26FC460CA40CC02CE02D085D220D60CD810DEA0E410E601E410E621E440E2
:4001C000EE10EA20EE02E201E6020101120117011C011D022A012F023001330237013E013F04401349FF4AFF4BFF4C0C4D2051105441580459045A045B045C905D395F0116
:4002000062106301641065118C018E06930194059A02A601B201B406B701C043CC03CD2FCEFFD110D608D804D904DA04DB04DC39DD39DF01E210E301E410E511070208029A
:4002400009400D080E08100416201A401D081E08201123022540268028023108328034023801400141084508470258045A605D906010640689108B01922099809A20A301EB
:40028000A604B080B310C080C269C422CA08CC8ACE01D0CAD63ED832E204EA01EC110001050109010E01130114021D011E012202240128012F0230013302340235013E1188
:4002C0003F10400341054230440145CE460D47FB483749FF4AFF4BFF4C224EF04F0C508C51105608580459045A245B045C305D385F11684069016AC06B019101B701BF40B3
:40030000D420D604D904DB04DD30DF0107410C800D08164017141C041E802001250827082E803001330237413A043B083E14458047084E104F825488570258015E805F1024
:400340006005620666C067087D20860289808B0892149A209B55A190A340A408A604B001B640C090C2A0C470CA10CC91CE60D050D210D631D83FDE20E880EA10B802BE01B5
:40038000D804DF011F028302E004EA01EC1117101B083201372238043A403B013D043E80400483218702C480C610CCE0CEF0D010E280E6401240144030403A023C043F40DA
:4003C00093409EC0AB18AD04AE01AF40C430CC10CEE0E820EC80EE403E105108570494049E80AA02CE20D460EE201B041D0880048F20940496109E80A508A704C630E220E3
:40040000101015017D0882108740C40CDE010A800B040F015D086B089101961097609810A504AF10B010C20BD601DA02EA041A1045088F089101928093049610976098107D
:400440009D089F08A504B701C608D001E402EE080B4047805D015F0282408B048F80910192809304976098109D08A50CC208D004E408E60423202510274065016B108680B9
:4004800096109E809F20C8E0D880DA40E240810183109D019F10AA10AB40B510E220EA80EC801040132014801F10370278107D01910197209810A50CB108B702C40EC601A7
:4004C000CC01DE03E801EA0878407C80810498C0A504AB22B508DC01DE04EC08010102140B011008110112141A081B0100BD010F03C010AA112A0000000000000000FD00C8
:40050000300000063600360000360000002A0000000000004000000000000000C3000000000000000000F000D020200020200600000000000000A00086011801000300002D
:400540000004000000080000000900000000000000000000000000000000000000000000000000000000000000000000000000000000000000000000000000000000000066
:40058000000000000000000000000000000000000000000000000000000000000000000000000000000000000000000000000000000000000000000000000000000000003B
:4005C00000000000000000000000000000000000000000000000000000000000000000000000000000000000000000000000000000000000000000000000000000000000FB
:4006000000000000000000000000000000000000000000000000000000000000000000000000000000000000000000000000000000000000000000000000000000000000BA
:40064000000000000000000000000000000000000000000000000000000000000000000000000000000000000000000000000000000000000000000000000000000000007A
:0200000490006A
:0400000000004005B7
:0200000490105A
:04000000BC90ACAF55
:0200000490303A
:0200000073CFBC
:0200000490402A
:4000000000000000000000000000000000000000000000000000000000000000000000000000000000000000000000000000000000000000000000000000000000000000C0
:400040000000000000000000000000000000000000000000000000000000000000000000000000000000000000000000000000000000000000000000000000000000000080
:400080000000000000000000000000000000000000000000000000000000000000000000000000000000000000000000000000000000000000000000000000000000000040
:4000C0000000000000000000000000000000000000000000000000000000000000000000000000000000000000000000000000000000000000000000000000000000000000
:0200000490501A
:0C00000000012E16106900012E22843829
:00000001FF