:400000000080002011000000F9010000F901000008B5044B1A6803F53F5302331A6000F0EDF800BFFA46004010B5054C237833B9044B13B10448AFF300800123237010BD9E
:400040002881FF1F0000000080170000084B10B51BB108480849AFF300800848036803B910BD074B002BFBD0BDE81040184700BF00000000801700002C81FF1F0881FF1FD3
:400080000000000008B50020024B198800F0F6FC08BD00BF4481FF1F08B50120024B998800F0ECFC08BD00BF4481FF1F08B500F055FD04200146134A00F05EFD01F0CEF8D8
:4000C00001F05EF800F0E8FF00F080FF00F018FF00F0B0FE7F2000F0A7FF7F2000F03EFF7F2000F0D5FE7F2000F06CFE01F054FA01F07EF901F05EFA01F088F900F09EFC86
:4001000008BD00BF4C81FF1F08B5034801F08AFA024801F0AFFA08BD850000009900000038B5022001214FF4804241F6FF7301F0AFFA054600F07EFB044602210246042303
:4001400000F092FB204645F6A031064A92B200F09FFB2846214600F03DFB2846012100F0F1FA38BD4481FF1F38B5022001214FF4804241F6FF7301F0A9FA054600F05AFB2F
:40018000044602210246042300F06EFB204645F6A231064A92B200F07BFB2846214600F019FB2846012100F0CDFA38BD4881FF1F08B5FFF7B5FFFFF7D7FF08BD08B562B6D3
:4001C000FFF774FFFFF7F4FFFFF79EFF002000F043FC012000F040FC064B1A68110A19725A725A68110A9972DA72012000F060FBECE700BF4481FF1FFEE700BF08B5104E65
:40020000104D16E029686B68AC68002204E051F8040B43F8040B0432A242F8D1E868002203E0002143F8041B04328242F9D11035013E002EE6D101F069FAFFF7BFFFFEE77E
:4002400001000000541E000008B5134A134B1A60134A136843F40073136000230AE0032B03D8104A52F8231000E00F490F4A42F8231001332F2BF2D90D4B1A780D4B1A7014
:400280000A4A0D4B1A6000F05FF900F041FA00220A4B1A6008BD00BF0004FA050CED00E014ED00E000000000F90100000080FF1FBC7600400481FF1F08ED00E00081FF1F52
:4002C000FEE700BFF0B40022174611E050F82760F3B226F0FF0608E001EB420511F812406D78A5550132013BDBB2002BF4D10137222FEBD9F0BC704708B50A46002101F0A7
:4003000036FA08BDF8B53C4B1B78DBB23B4E3478E4B23B4F3D78EDB203F00701394A11701B090132137044F00303337045F003033B704FF4C142344B1A80F02211331A70F0
:40034000062210331A70402210331A704FF48171BF3319800E2103F5CE63197095331A7002331A7006331A7002331A701021F53319700123254803708020DFF8B4E08EF8AE
:4003800000000EF1080E8EF80020214A137004321070412008321070603213700B32137008321370053211704032137044F2010102321180022217490A7008211648017091
:4003C000063002701A3002700422043002700430017012490A701249124A1160124904321160163213700A2000F078FA3D70347044220E4B1A70F8BDCF010049F8460040EC
:40040000F94600406E5800400C510040065A0040145A0040DC5A0040005B00402C5B004012012004405B00400401040176580040085A004008B501F08FF908BD38B500249C
:40044000334B1C80502202331A70032202331A80182330490B7002310A802F4A1370232102321180023213702C482D490422FFF7E1FF06222B4B1A705222A3F580731A70FE
:40048000294B1B78DBB2294A137040F62A52284B1A8042F25122023B1A8019250CE0254B1B7803F0010343EA440404F003044FF4F07000F01DF9013D0DB1032CEFD115B97F
:4004C0000320FFF7FDFE1C4A4FF48073138007231370002319490B704820023108701370053213700222164B1A7004220A331A70144A137843F00F031370013A137843F016
:4005000001031370013A137843F08003137038BD80400040864000408A40004000410040C0050048004300400F010049A1460040224200402542004004400040064000404A
:4005400001400040A243004038B572B66122464B1A70FFF773FF454A137843F00403137000240BE0424963001A1952000A44D06BB2F84010FFF7C0FE0134E4B2072CF1D962
:400580004FF090403B49FFF79DFE0A253A4B1D703A480421FFF7B0FE39483A490422FFF749FF394839490422FFF744FF38480421FFF7A2FE37480421FFF79EFE36480421AD
:4005C000FFF79AFE35480421FFF796FE34480421FFF792FE334A137843F0020313701032137843F0020313702F4C237843F040032370A2F58632513A137843F01003137082
:400600002A482B490822FFF715FF2A482A492A46FFF710FF29482A490522FFF70BFF294829492A46FFF706FF284829490822FFF701FF284828490822FFF7FCFE2748284910
:400640000822FFF7F7FEA422264B1A70264A137843F008031370FFF755FE244821460E22FFF7E8FE38BD00BF00480040E8460040841700008C0000488358004000760040D6
:4006800008760040C405004810760040C8050048187600402076004028760040407600404876004003500140A04300400251004080050048C051004088050048CB51004081
:4006C00094050048F05100409C05004812510040A805004822510040B005004832510040B80500485B16014022430040B04300400230800803D000BF01380046FCD17047C6
:40070000EFF3108072B6704780F31088704700BF0B4A7F2313708021517007E0DA0002F1804202F5F042013BDBB21370002BF5D1DB0003F1804303F5F04300221A7070470F
:400740000C81FF1F172815D831B103010A495A5C42F020025A5405E0030107495A5C02F0DF025A540001044A835C43F00103835400207047012070471070004017280BD874
:400780000001064A835C03F0F10301F0070143EA4101815400207047012070471070004041F6FF73994201D14FF4005141F6FF739A4201D14FF40052172808D8C00000F1D0
:4007C000804000F5EC408180C280002070470120704700BF172805D8034B03EB0010417200207047012070471070004017281BD810B4C00000F1804404F5EC44D201D2B2F2
:4008000001F07F01114321709DF804201201D2B203F00F03134363709DF8083003F00F03A3700020E07001E0012070475DF8044B704700BF10B5FFF763FF0A4B5B78182B34
:400840000BD9084A1478013B5370E30003F1804303F5F0431B78137000E0FF24FFF754FF204610BD0C81FF1F10F0800F0CD111F4704F0BD1C00000F1804000F5F04001808F
:400880008270C37000207047012070470120704710F0800F08D1C00000F1804000F5F0408180C280002070470120704701BE704710B5044605E0084B1868FFF719FFA4F5B8
:4008C0000044B4F5004FF6D8034B586800FB04F0FFF70EFF10BD00BF1481FF1F08B5034B1B7A03FB00F0FFF703FF08BD1481FF1F70B504460E46074B1D681F2802D90020D5
:40090000FFF7D4FF04F01F04103455F8240045F8246070BD08ED00E038B504460D46072902D90020FFF7C2FF1F2C02D90020FFF7BDFF04F01F0000F1604000F564406D0150
:40094000EDB2057038BD00BFF8B5244A137843F01003137002F50342DA32137803F0FE0313703F2308321370043213701C4D4FF480741C482946224600F0EEFE1A48294696
:40098000224600F0E9FE19481949224600F0E4FE4FF4007417481849224600F0DDFE17481749224600F0D8FE164C174E04F14007354620686168A268E3680FC510342E46B4
:4009C000BC42F5D10020114B187000F067F8052000F06CF8F8220E4B1A70F8BDA6430040301D000000C4004000C5004000C60040F017000000C00040301B000000C20040DC
:400A000030190000F018000000C700408CC7004084C70040084A137843F0100313701032137843F01003137002F50342CA32137843F0010313707047A643004008B5054B9A
:400A40001B7823B9FFF780FF0122024B1A70FFF7E1FF08BD5081FF1F18B9064B188880B27047012803D1044B188880B270470020704700BFA9C70040ADC7004018B9054B73
:400A80001A8819807047012802D1034B1A881980704700BFA1C70040A5C7004000F01F00014B1870704700BF98C7004000F00F00014B1870704700BF9CC7004010B5012229
:400AC000124B1A7081220E3B1A70082202331A70042211331A70002401331C704FF400420B4B1A600F200721FFF716FF0F200949FFF7FEFE084B1C70084B1C70084B1C7011
:400B0000084B1C70084B1C8010BD00BFD649004080E100E0C90B00006881FF1F5C81FF1F6981FF1F6A81FF1F6481FF1F08B5FFF7E7FD084A137843F00403137010321378D3
:400B400043F004031370FFF7DFFD4FF40042024B1A6008BDA543004000E100E008B5054B1B7823B9FFF7AAFF0122024B1A70FFF7DDFF08BD5181FF1F10B44FF400440B4BAF
:400B80001C6032B113460A4A13600A4B18800A4B19800023094A1370094A13704FF40042084B1A605DF8044B704700BF80E100E06081FF1F6681FF1F6481FF1F6981FF1F50
:400BC0006A81FF1F00E100E0654B1B78DBB2654A137013F0080F32D0634B1B7813F0010F1CD0624A1378DBB261490968CB5CDBB25D490B7014215A4B19701378DBB25D4AF7
:400C0000137013780133DBB213705B4A137843F0110313700822594B1A708EE01022504B1A70554A137843F0120313700122534B1A70534A137843F0100313707DE013F0BA
:400C4000010F7AD04D4A1278D2B2042A1ED0082A3AD0012A68D1444B1B78DBB2414A5370484A128892B293420CD210223C4B1A703C4B5B783D4A13703E4A137004223F4B37
:400C80001A705AE00022364B1A7056E0394B1A783D4B1B889BB29A4212D2334B1B7831494B7010222E4B1A70324A1378DBB2304800684978C15413780133DBB213703CE00F
:400CC0000022274B1A7038E013F0020F1ED1294B1A782C4B1B889BB29A4210D2254A1378DBB223490968CB5CDBB21F490B7004211B4B197013780133DBB213701DE0FF2294
:400D0000194B1A700422013B1A7016E0FF22164B1A700022013B1A7017490B7803F0EF030B70164B1A7008E00023144A13700F4A1370104A13700A4A1370094B1B7813F05B
:400D4000200F0CD00C4A137803F0EF03137000220A4B1A700A4A137803F0EF0313707047D74900405281FF1FD84900406981FF1F6081FF1F6A81FF1F5C81FF1F6881FF1F5C
:400D8000D64900406681FF1F6481FF1F054A137843F0080313701032137843F008031370704700BFA8430040054B1A7802F0FD021A701A7800F0020010431870704700BFD0
:400DC0002C580040014B1870704700BF835B0040064B1B78C3F3810303F19243063393F83831DBB2024A1370704700BF2C5800400B46004008B5064B1A7802F0F3021A707B
:400E00001A7800F00C0010431870FFF7E1FF08BD2C58004010B50024054B1C7001331C702046FFF7E7FF2046FFF7BEFF10BD00BF2C58004008B5074B1B7823B9FFF7EAFF5D
:400E40000122044B1A70FFF7A1FF6420FFF7BAFF08BD00BF5481FF1F054A137843F0020313701032137843F002031370704700BFA8430040054B1A7802F0FD021A701A7889
:400E800000F0020010431870704700BF24580040014B1870704700BF815B0040064B1B78C3F3810303F19243063393F83031DBB2024A1370704700BF2458004009460040A4
:400EC00008B5064B1A7802F0F3021A701A7800F00C0010431870FFF7E1FF08BD2458004010B50024054B1C7001331C702046FFF7E7FF2046FFF7BEFF10BD00BF24580040F9
:400F000008B5074B1B7823B9FFF7EAFF0122044B1A70FFF7A1FF6420FFF7BAFF08BD00BF5581FF1F054A137843F0010313701032137843F001031370704700BFA84300405B
:400F4000054B1A7802F0FD021A701A7800F0020010431870704700BF20580040014B1870704700BF805B0040064B1B78C3F3810303F19243063393F82031DBB2024A1370CA
:400F8000704700BF205800400846004008B5064B1A7802F0F3021A701A7800F00C0010431870FFF7E1FF08BD2058004010B50024054B1C7001331C702046FFF7E7FF20467B
:400FC000FFF7BEFF10BD00BF2058004008B5074B1B7823B9FFF7EAFF0122044B1A70FFF7A1FF6420FFF7BAFF08BD00BF5681FF1F054A137843F0040313701032137843F0C8
:4010000004031370704700BFA8430040054B1A7802F0FD021A701A7800F0020010431870704700BF28580040014B1870704700BF825B0040064B1B78C3F3810303F1924345
:40104000063393F82831DBB2024A1370704700BF285800400A46004008B5064B1A7802F0F3021A701A7800F00C0010431870FFF7E1FF08BD2858004010B50024054B1C7097
:4010800001331C702046FFF7E7FF2046FFF7BEFF10BD00BF2858004008B5074B1B7823B9FFF7EAFF0122044B1A70FFF7A1FF6420FFF7BAFF08BD00BF5781FF1F084A137850
:4010C00043F0020313701032137843F00203137002F65932137843F001031370704700BFA3430040014B1880704700BF104F0040014B1880704700BF124F0040014B187081
:40110000704700BF0F4F004008B51A4A137843F0020313700232137803F08F0343F010031370154B1A7802F0CF021A701A7842F030021A701A7802F0F0021A701A7842F0A4
:401140000F021A704FF47A70FFF7CCFF4FF4FA70FFF7CEFF0020FFF7D1FF084A137843F00203137002F66A32137843F00103137008BD00BF0C4F0040174F0040A343004034
:4011800008B5054B1B7823B9FFF7BEFF0122024B1A70FFF793FF08BD5881FF1F084A137843F0010313701032137843F00103137002F64D32137843F001031370704700BF72
:4011C000A3430040014B1880704700BF044F0040014B1880704700BF064F0040014B1870704700BF034F004008B5194A137843F0020313700232137803F08F0343F0100321
:401200001370144B1A7802F0CF021A701A7842F030021A701A7802F0F0021A701A7842F00F021A706420FFF7CDFF6420FFF7D0FF0020FFF7D3FF084A137843F00103137000
:4012400002F65E32137843F00103137008BD00BF004F00400B4F0040A343004008B5054B1B7823B9FFF7C0FF0122024B1A70FFF795FF08BD5981FF1F08B50A2813D00C2856
:4012800002D0082809D104E04FF400624FF480510DE080224FF4807109E00020FFF706FB0022114603E04FF400724FF480610020094B188042F2107303FB01F303F6C41338
:4012C000064981FB0301DB17C3EBE12304490B6092B2044B1A8008BD7481FF1FAD8BDB687081FF1F6C81FF1F38B5FFF709FA05461E4A137843F0020313701032137843F04A
:4013000002031370193A137843F0040313701032137843F00403137002F5AA521932137843F0030313700424114B1C70013B1A7802F0BF021A701A7842F003021A700822E3
:40134000053B1A700222A3F59753123B1A70094A137843F0080313700A20FFF7BFFA064B1C602846FFF7D0F938BD00BFAB4300400E5900402F5B004080E200E010B5044610
:401380000A280DD00C2802D0082804D101E0C42207E0442205E00020FFF788FAC42200E08422034B1A702046FFF766FF10BD00BF0A59004008B5102000F006F90220072128
:4013C000FFF7AAFA02200749FFF792FA064A137843F0060313700C20FFF7D0FF0022034B1A8008BD1D140000095900407681FF1F08B5054B1B7823B9FFF7DCFF0122024B60
:401400001A70FFF771FF08BD5A81FF1F024A137843F001031370704708590040704700BF08B50A2813D00C2802D0082809D104E04FF400624FF480510DE080224FF480715D
:4014400009E00020FFF732FA0022114603E04FF400724FF480610020094B188042F2107303FB01F303F6C413064981FB0301DB17C3EBE12304490B6092B2044B1A8008BD6A
:401480007881FF1FAD8BDB688081FF1F7C81FF1F38B5FFF735F904461E4A137843F0010313701032137843F001031370193A137843F0020313701032137843F002031370B0
:4014C00002F5AA521132137843F0030313700422114B1A70013B1A7802F0BF021A701A7842F003021A700822053B1A700225A3F597530C3B1D70094A137843F008031370F5
:401500000A20FFF7EBF9064B1D602046FFF7FCF838BD00BFAB43004006590040275B004080E200E010B504460A280DD00C2802D0082804D101E0C42207E0442205E00020C2
:40154000FFF7B4F9C42200E08422034B1A702046FFF766FF10BD00BF0259004008B5102000F03CF801200721FFF7D6F901200749FFF7BEF9064A137843F0060313700C2099
:40158000FFF7D0FF0022034B1A8008BDC5150000015900407A81FF1F08B5054B1B7823B9FFF7DCFF0122024B1A70FFF771FF08BD5B81FF1F024A137843F001031370704756
:4015C00000590040704700BF034B1A7800F0F80010431870704700BF8A400040034B1A7800F0F80010431870704700BF86400040014B1B681864704708ED00E04001C0B210
:40160000014B1870704700BF00E400E00122014B1A60704700E100E00122014B1A60704780E100E010B50446FFF7F6FF2046FFF7DFFF0720FFF7E2FFFFF7E8FF10BD00BFBF
:40164000014B1B681865704708ED00E04001C0B2014B1870704700BF04E400E01022014B1A60704700E100E01022014B1A60704780E100E010B50446FFF7F6FF2046FFF717
:40168000DFFF0720FFF7E2FFFFF7E8FF10BD00BFF0B583B086460F4616461D460A4C0023237000930193184671463A46FFF79EF8207831462A46FFF773F820780221FFF748
:4016C0005DF8207803B0F0BD2481FF1FF0B583B086460F4616461D460B4C01232370002200920192184671463A46FFF77FF8207831462A46FFF754F820780221FFF73EF823
:40170000207803B0F0BD00BF2581FF1F0E4B70B51E460E4C0025E41AA410A54204D056F8253098470135F8E700F082FB084B094C1E46E41AA4100025A54204D056F825301B
:4017400098470135F8E770BD3C1E00003C1E00003C1E0000441E000010B5431E0A44914204D011F8014B03F8014FF8E710BD03460244934202D003F8011BFAE7704700008C
:4017800000000000205B0040585B0040244300402443004008080000265B0040244300402E5B00405A5B004024430040244300402443004024430040020002020000000055
:4017C000C84900401900004F0040180040510040300000000140001000140140000800400140000A004C0140000200500140200021F8050144F80B4067F81B8081F805013F
:40180000A6F81901C2F807018561922109F9290121F9050188A2A221000000000000000000000000000000000000000000000000000000000000000000000000000000005C
:401840000000000000000000000000000000000000000000000000000000000000000000000000000000000000000000000000000000000000000000000000000000000068
:401880000000000000000000000000000000000000000000000000000000000000000000000000000000000000000000000000000000000000000000000000000000000028
:4018C000000000000000000000000000000000000000000000000000000000000000000000000000000000000000000000000000180C00000000000000000000B1180000FB
:40190000990C0000990C0000000000000000000000000000000000000000000000000000000000000000000000000000000000004F8A0000AEC9000083440100D9FB010070
:4019400084EA020043050400803B0500B678060047A6070098AD08003F7A090003FC090078280A0003FC09003F7A090098AD080047A60700B6780600803B050043050400B7
:4019800084EA0200D9FB010083440100AEC900004F8A00004F8A0000AEC9000083440100D9FB010084EA020043050400803B0500B678060047A6070098AD08003F7A09002A
:4019C00003FC090078280A0003FC09003F7A090098AD080047A60700B6780600803B05004305040084EA0200D9FB010083440100AEC900004F8A000000000000000000008D
:401A000000000000000000000000000000000000000000000000000000000000000000000000000000000000000000000000000000000000000000000000000000000000A6
:401A40000000000000000000000000000000000000000000000000000000000000000000000000000000000000000000000000000000000000000000000000000000000066
:401A80000000000000000000000000000000000000000000000000000000000000000000000000000000000000000000000000000000000000000000000000000000000026
:401AC00000000000000000000000000000000000000000000000000000000000000000000000000000000000000000000000000000000000000000000000000000000000E6
:401B000000000000000000000000000000000000000000000000000000000000000000000000000000000000000000000000000000000000000000000000000000000000A5
:401B40000000000000000000000000000000000000000000000000000000000000000000000000000000000000000000000000000000000000000000000000000000000065
:401B80000000000000000000000000000000000000000000000000000000000000000000000000000000000000000000000000000000000000000000000000000000000025
:401BC00000000000000000000000000000000000000000000000000000000000000000000000000000000000000000000000000000000000000000000000000000000000E5
:401C000000000000000000000000000000000000000000000000000000000000000000000000000000000000000000000000000000000000000000000000000000000000A4
:401C40000000000000000000000000000000000000000000000000000000000000000000000000000000000000000000000000000000000000000000000000000000000064
:401C80000000000000000000000000000000000000000000000000000000000000000000000000000000000000000000000000000000000000000000000000000000000024
:401CC00000000000000000000000000000000000000000000000000000000000000000000000000000000000000000000000000000000000000000000000000000000000E4
:401D000000000000000000000000000000000000000000000000000000000000000000000000000000000000000000000000000020130025611780260100802601008026DF
:401D400001008026E00E8026C20C8026020080066587186D6409183E00008026032080262102187FE60E8026C80C8026000080066B87186D6A09183E000080260120802688
:401D80002102187F00000000000000000000000000000000000000000000000000000000000000000000000000000000000000000000000000000000000000000000000069
:401DC00000000000000000000000000000000000000000000000000000000000000000000000000000000000000000000000000000000000000000000000000000000000E3
:401E0000000000000000000000000000000000000000000000000000000000000000000000000000000000000000000000000000F8B500BFF8BC08BC9E4670474D000000D6
:401E400049020000F8B500BFF8BC08BC9E46704729000000681E00000881FF1F200000006000000000000000000000007F8000003F0300000000A08C4019010048000000B3
:401E800000A24A04FFFF0000000000000000000000000000000000000000000000000000000000000000000000000000000000000000000000000000000000000000000034
:401EC00000000000000000000000000000000000000000000000000000000000000000000000000000000000000000000000000000000000000000000000000000000000E2
:401F000000000000000000000000000000000000000000000000000000000000000000000000000000000000000000000000000000000000000000000000000000000000A1
:401F40000000000000000000000000000000000000000000000000000000000000000000000000000000000000000000000000000000000000000000000000000000000061
:401F80000000000000000000000000000000000000000000000000000000000000000000000000000000000000000000000000000000000000000000000000000000000021
:020000040003F7
:0200000480007A
:4000000001450040044F004007520040025B004001640040026500400101014007030140070501404D0601403E07014002090140010B0140020D0140010F01404D14014054
:40004000491501404A1601404017014003190140031B01400D4001400C410140084201400A430140074401400D4501400D4601400D470140114801400D490140144C01409D
:400080000B4D014008500140055101407E0201800A360D8016361020122018021904602461367C4027842F848647860787788940910198109940B010B101E601EC80910103
:4000C00098109940A002A114B402B514027E0301040E0670071F0A6E0B190C040E7A0F191003120413011501167E170818011A5C1B051E2E1F01226E2319240A2674270936
:4001000029012A0E2B182C042E0A2F06300731053220330334183510364837093AA23BAA3E045441580459045B045C885D305F3180048408862088028E029010926096028E
:4001400098019AE0A202A402AA02AE02B020B21FB440B680B920BAAED608D804D904DB04DC88DD90DF310004010203090482051809200B600C800D220E020F201080120A73
:40018000130817551886190A1B181C021D1A1E021F1020082120268A275D2C012D022F183682371439103A203C0A3F604C014F40581059405C805D105F04642079017D0150
:4001C0008604910198109940A002A114C0FFC2FEC4FFCAF0CCF0CEF0D67CD840DE81E002E410E002E410EE50E601EA20E2800010026004020A020C04100112E016021808C0
:400200001A202202260228022E023080321F3440362039803AAE5608580459045B045C885D305F018002820C8319840E867087198A6E8B058E7E8F1F900592029306962E8F
:4002400097099A7E9B099C029E7C9F01A001A25AA319A501A60EA718A80CA901AA72AB08AE2EAF01B007B105B248B310B418B503B620B709BA2ABBAABE40D608D804D9047D
:40028000DB04DC88DD30DF01018A030404800518074809080A840B400D020E251001111213081401151017161880198A1A051D1A1E2222402302251127552C012D1A3001FB
:4002C0003301361137483D203E053F404408460459405A105D205E40600862406402670E7B027F0285028D208E409210970E99609C029E44A120A302A885AB04AD40AE109F
:40030000B280B501C0FFC2FEC4FFCAF0CCF0CEF0D63CD83CDE18E804EA890A210C100EC1121E150316801CC11E0224C1260828C12A042B012F03302032803302344035018A
:40034000361F39803E543F54400241054220440145B046EF47CD483E49FF4AFF4BFF4C224EF04F0C508C51105602572C580459045A245B245C085D885E085F116840690176
:400380006AC06B01820388019204A101AC0CAF02B008B202B302B404B601B701BE51BF40D420D804D904DB04DC33DD30DF010010024007090A800C080E9210021714181213
:4003C00019011A041DA01EA022082301240825082680280229022B802F053608442045A84E404F405408550156205780590262046309650167406E026F157D288B088D210A
:40040000960497049CA09E20A002A114A302AB02AC01AD08B102C0CAC2B8C461CA39CC40D030D210D601D88EDE60EC10EE22E680EC10EE02E884EA09EC4010021108168090
:400440003208374238083A803C104C044E08C470CCE0CE7038083C1080108340900894109F42A104A608B002CE60E6803E10510857049F02A104A608CE20D4601B041D08CE
:400480008F2096109F02A104A508A608A704C630101014207C088820C40CDE01E20109040A010F0166806F02824098309C08B010C20BD601DA01EA041A804502920196802F
:4004C00098309C089E80A702B504B701C608D001EE0A0B40478086808F80920198309C089E80A502A702C208D004E408232027146708680196109A109F24A608A904AF022E
:40050000B210B704C8E0D880DA40E820EE405202561086029A10AA10AB10AE08B001B304D4C0E240E820EA901040132014801F40370878107C208A01920198309C08A7022B
:40054000AF40B502C40EC601CC01DE03E601EC0878407C8098C0AB28AF40B008B702DC01DE04E801EC020008010102140A080B01100812141A0800BD010303C0100A110A87
:40058000000000000000FD00300000063600360000360000002A0000000000004000000000000000C3000000000000000000F000D020200020200600000606000600A00041
:4005C0008601180100010000000200000000000000000000000000000000000000000000000000000000000000000000000000000000000000000000000000000000000058
:4006000000000000000000000000000000000000000000000000000000000000000000000000000000000000000000000000000000000000000000000000000000000000BA
:40064000000000000000000000000000000000000000000000000000000000000000000000000000000000000000000000000000000000000000000000000000000000007A
:40068000000000000000000000000000000000000000000000000000000000000000000000000000000000000000000000000000000000000000000000000000000000003A
:4006C00000000000000000000000000000000000000000000000000000000000000000000000000000000000000000000000000000000000000000000000000000000000FA
:0200000490006A
:0400000000004005B7
:0200000490105A
:04000000BC90ACAF55
:0200000490303A
:0200000095E386
:0200000490402A
:4000000000000000000000000000000000000000000000000000000000000000000000000000000000000000000000000000000000000000000000000000000000000000C0
:400040000000000000000000000000000000000000000000000000000000000000000000000000000000000000000000000000000000000000000000000000000000000080
:400080000000000000000000000000000000000000000000000000000000000000000000000000000000000000000000000000000000000000000000000000000000000040
:4000C0000000000000000000000000000000000000000000000000000000000000000000000000000000000000000000000000000000000000000000000000000000000000
:0200000490501A
:0C00000000012E16106900012E20A64CF5
:00000001FF