:400000000080002011000000C1020000C102000008B5044B1A6803F53F5302331A6000F051F900BFFA46004010B5054C237833B9044B13B10448AFF300800123237010BDA7
:400040002881FF1F0000000028190000084B10B51BB108480849AFF300800848036803B910BD074B002BFBD0BDE81040184700BF00000000281900002C81FF1F0881FF1F7F
:4000800000000000034B1A6E110A034B19705A70704700BF5C81FF1F4481FF1F034B1A6E110A034B9970DA70704700BFC481FF1F4481FF1F08B500F0E7FD042001461F4AA7
:4000C00000F0F0FD01F060F901F0F0F801F07AF801F012F800F0AAFF00F042FF7F2001F039F87F2000F0D0FF7F2000F067FF7F2000F0FEFE01F044FB01F06EFA01F04EFB76
:4001000001F078FA00F01EFD0120014600F04CFD0420012100F048FD0020012100F020FD0220012100F040FD0820012100F03CFD0120014600F014FD08BD00BF4481FF1F32
:4001400008B5034801F080FB024801F0A5FB08BD850000009D00000038B5022001214FF48042134601F05EF9054600F0E7FB044602210246002300F0FBFB204645F6A03125
:400180004CF2A07200F008FC2846214600F0A6FB2846012100F05AFB38BD00BF38B5022001214FF48042134601F002FB054600F0C5FB044602210246002300F0D9FB204692
:4001C00045F6A2314CF2A47200F0E6FB2846214600F084FB2846012100F038FB38BD00BF38B5022001214FF4804241F6FF7301F0D9F8054600F0A2FB04463221024606239A
:4002000000F0B6FB20464CF2A871064A92B200F0C3FB2846214600F061FB2846012100F015FB38BD5C81FF1F38B5022001214FF4804241F6FF7301F0D5F8054600F07EFB2C
:40024000044632210246062300F092FB20464CF2AC71064A92B200F09FFB2846214600F03DFB2846012100F0F1FA38BDC481FF1F08B5FFF771FFFFF791FFFFF7B1FFFFF70F
:40028000D3FF08BD08B562B6FFF714FFFFF7F0FFFFF756FF074B1A68110A074B19705A70064A1268110A9970DA70012000F084FBF0E700BF5C81FF1F4481FF1FC481FF1F66
:4002C000FEE700BF08B5104E104D16E029686B68AC68002204E051F8040B43F8040B0432A242F8D1E868002203E0002143F8041B04328242F9D11035013E002EE6D101F0FB
:40030000D9FAFFF7BFFFFEE701000000FC1F000008B5134A134B1A60134A136843F40073136000230AE0032B03D8104A52F8231000E00F490F4A42F8231001332F2BF2D90A
:400340000D4B1A780D4B1A700A4A0D4B1A6000F07BF900F061FA00220A4B1A6008BD00BF0004FA050CED00E014ED00E000000000C10200000080FF1FBC7600400481FF1F34
:4003800008ED00E00081FF1FFEE700BFF0B40022174611E050F82760F3B226F0FF0608E001EB420511F812406D78A5550132013BDBB2002BF4D10137212FEBD9F0BC704792
:4003C00008B50A46002101F0A6FA08BDF8B54A4B1B78DBB2494E3478E4B2494F3D78EDB203F00701474A11701B090132137044F00303337045F003033B704AF24002424B9D
:400400001A80F02211331A7006201033187040233E4A13704FF48171BF3211800E2102F5CE6211709532137002321370063213700232137002F205121370012234490A703A
:4004400002310A704FF0800E023181F800E008310B700221DFF8D0E08EF800104FF0100EDFF8C8C08CF800E00CF1580C8CF800200CF10B0C8CF800200CF1080C8CF80020F0
:400480000CF1050C8CF800E04FF0810CDFF8A0E08EF800C00EF10B0E8EF800301D4B197008230EF1250E8EF800300EF1060E8EF800300EF11A0E8EF8001004210EF1040ED3
:4004C0008EF800100EF1040E8EF80030124B19701249143319601249043319600D33187009331A700A2000F07DFA3D70347044220C4B1A70F8BD00BFCF010049F8460040D1
:40050000F94600406E5800400C5100403D510040145A0040DC5A00402C5B0040220120040101040176580040265A0040285A0040D05A004008B501F0E3F908BD38B5002438
:40054000334B1C80502202331A70032202331A80182330490B7002310A802F4A1370232102321180023213702C482D490422FFF7E1FF06222B4B1A705222A3F580731A70FD
:40058000294B1B78DBB2294A137040F62A52284B1A8042F25122023B1A8019250CE0254B1B7803F0010343EA440404F003044FF4F07000F021F9013D0DB1032CEFD115B97A
:4005C0000320FFF7E1FE1C4A4FF48073138007231370002319490B704820023108701370053213700222164B1A7004220A331A70144A137843F00F031370013A137843F031
:4006000001031370013A137843F08003137038BD80400040864000408A40004000410040A0030048004300400F010049A1460040224200402542004004400040064000406B
:4006400001400040A243004038B572B66122464B1A70FFF773FF454A137843F00403137000240BE0424963001A1952000A44D06BB2F84010FFF7A4FE0134E4B2072CF1D97D
:400680004FF090403B49FFF781FE0A253A4B1D703A480421FFF794FE39483A490422FFF749FF39480421FFF78BFE38480421FFF787FE37480421FFF783FE36480421FFF761
:4006C0007FFE354835490422FFF734FF344835490422FFF72FFF344A137843F0020313701032137843F002031370304C237843F040032370A2F58632513A137843F01003D8
:4007000013702B482B490822FFF714FF2A482B492A46FFF70FFF2A482A490522FFF70AFF29482A492A46FFF705FF294829490822FFF700FF284829490822FFF7FBFE2848FC
:4007400028490822FFF7F6FE6422274B1A70274A137843F008031370FFF738FE244821460E22FFF7E7FE38BD00480040E84600402C190000880000488358004000760040DA
:4007800008760040A40300481076004018760040207600402876004040760040A803004848760040AC03004803500140A04300400251004060030048C0510040680300486D
:4007C000CB51004074030048F05100407C030048125100408803004822510040900300483251004098030048DB0C014022430040B0430040000000000230800803D000BFA0
:4008000001380046FCD17047EFF3108072B6704780F31088704700BF0B4A7F2313708021517007E0DA0002F1804202F5F042013BDBB21370002BF5D1DB0003F1804303F5A1
:40084000F04300221A7070470C81FF1F172815D831B103010A495A5C42F020025A5405E0030107495A5C02F0DF025A540001044A835C43F0010383540020704701207047BF
:400880001070004017280BD80001064A835C03F0F10301F0070143EA4101815400207047012070471070004041F6FF73994201D14FF4005141F6FF739A4201D14FF40052BD
:4008C000172808D8C00000F1804000F5EC408180C280002070470120704700BF172805D8034B03EB0010417200207047012070471070004017281BD810B4C00000F18044A1
:4009000004F5EC44D201D2B201F07F01114321709DF804201201D2B203F00F03134363709DF8083003F00F03A3700020E07001E0012070475DF8044B704700BF10B5FFF780
:4009400063FF0A4B5B78182B0BD9084A1478013B5370E30003F1804303F5F0431B78137000E0FF24FFF754FF204610BD0C81FF1F10F0800F0CD111F4704F0BD1C00000F127
:40098000804000F5F04001808270C37000207047012070470120704710F0800F08D1C00000F1804000F5F0408180C280002070470120704701BE704710B5044605E0084B78
:4009C0001868FFF719FFA4F50044B4F5004FF6D8034B586800FB04F0FFF70EFF10BD00BF1481FF1F08B5034B1B7A03FB00F0FFF703FF08BD1481FF1F70B504460E46074B74
:400A00001D681F2802D90020FFF7D4FF04F01F04103455F8240045F8246070BD08ED00E038B504460D46072902D90020FFF7C2FF1F2C02D90020FFF7BDFF04F01F0000F12F
:400A4000604000F564406D01EDB2057038BD00BFF8B5244A137843F01003137002F50342DA32137803F0FE0313703F2308321370043213701C4D4FF480741C48294622469B
:400A800000F03EFF1A482946224600F039FF19481949224600F034FF4FF4007417481849224600F02DFF17481749224600F028FF164C174E04F14007354620686168A26848
:400AC000E3680FC510342E46BC42F5D10020114B187000F079F8052000F07EF8F8220E4B1A70F8BDA6430040D81E000000C4004000C5004000C600409819000000C00040DA
:400B0000D81C000000C20040D81A0000981A000000C700408CC7004084C70040084A137843F0100313701032137843F01003137002F50342CA32137843F001031370704786
:400B4000A643004008B5054B1B7823B9FFF780FF0122024B1A70FFF7E1FF08BD5081FF1F68B9104B1A7802F0CC021A701A780A431A701A780901C9B2114319707047012842
:400B80000ED1084B1A7802F033021A7018788A00D2B202431A701A788901C9B211431970704700BFB0C70040012904D1054B1A7810431870704721B9024A137823EA000081
:400BC00010707047B4C7004000F01F00014B1870704700BF98C7004000F00F00014B1870704700BF9CC7004010B50122124B1A7081220E3B1A70082202331A700422113387
:400C00001A70002401331C704FF400420B4B1A600F200721FFF704FF0F200949FFF7ECFE084B1C70084B1C70084B1C70084B1C70084B1C8010BD00BFD649004080E100E0A9
:400C4000F50C00003882FF1F2C82FF1F3982FF1F3A82FF1F3482FF1F08B5FFF7D5FD084A137843F0040313701032137843F004031370FFF7CDFD4FF40042024B1A6008BDCE
:400C8000A543004000E100E008B5054B1B7823B9FFF7AAFF0122024B1A70FFF7DDFF08BD5181FF1F10B44FF400440B4B1C6032B113460A4A13600A4B18800A4B1980002391
:400CC000094A1370094A13704FF40042084B1A605DF8044B704700BF80E100E03082FF1F3682FF1F3482FF1F3982FF1F3A82FF1F00E100E0654B1B78DBB2654A137013F0A8
:400D0000080F32D0634B1B7813F0010F1CD0624A1378DBB261490968CB5CDBB25D490B7014215A4B19701378DBB25D4A137013780133DBB213705B4A137843F01103137038
:400D40000822594B1A708EE01022504B1A70554A137843F0120313700122534B1A70534A137843F0100313707DE013F0010F7AD04D4A1278D2B2042A1ED0082A3AD0012A43
:400D800068D1444B1B78DBB2414A5370484A128892B293420CD210223C4B1A703C4B5B783D4A13703E4A137004223F4B1A705AE00022364B1A7056E0394B1A783D4B1B8810
:400DC0009BB29A4212D2334B1B7831494B7010222E4B1A70324A1378DBB2304800684978C15413780133DBB213703CE00022274B1A7038E013F0020F1ED1294B1A782C4B80
:400E00001B889BB29A4210D2254A1378DBB223490968CB5CDBB21F490B7004211B4B197013780133DBB213701DE0FF22194B1A700422013B1A7016E0FF22164B1A7000220A
:400E4000013B1A7017490B7803F0EF030B70164B1A7008E00023144A13700F4A1370104A13700A4A1370094B1B7813F0200F0CD00C4A137803F0EF03137000220A4B1A70C3
:400E80000A4A137803F0EF0313707047D74900405281FF1FD84900403982FF1F3082FF1F3A82FF1F2C82FF1F3882FF1FD64900403682FF1F3482FF1F054A137843F008033A
:400EC00013701032137843F008031370704700BFA8430040054B1A7802F0FD021A701A7800F0020010431870704700BF2C580040014B1870704700BF835B0040064B1B78FE
:400F0000C3F3810303F19243063393F83831DBB2024A1370704700BF2C5800400B46004008B5064B1A7802F0F3021A701A7800F00C0010431870FFF7E1FF08BD2C58004081
:400F400010B50024054B1C7001331C702046FFF7E7FF2046FFF7BEFF10BD00BF2C58004008B5074B1B7823B9FFF7EAFF0122044B1A70FFF7A1FF6420FFF7BAFF08BD00BF9B
:400F80005481FF1F054A137843F0020313701032137843F002031370704700BFA8430040054B1A7802F0FD021A701A7800F0020010431870704700BF24580040014B1870BE
:400FC000704700BF815B0040064B1B78C3F3810303F19243063393F83031DBB2024A1370704700BF245800400946004008B5064B1A7802F0F3021A701A7800F00C00104344
:401000001870FFF7E1FF08BD2458004010B50024054B1C7001331C702046FFF7E7FF2046FFF7BEFF10BD00BF2458004008B5074B1B7823B9FFF7EAFF0122044B1A70FFF75A
:40104000A1FF6420FFF7BAFF08BD00BF5581FF1F054A137843F0040313701032137843F004031370704700BFA8430040054B1A7802F0FD021A701A7800F0020010431870A7
:40108000704700BF28580040014B1870704700BF825B0040064B1B78C3F3810303F19243063393F82831DBB2024A1370704700BF285800400A46004008B5064B1A7802F0DB
:4010C000F3021A701A7800F00C0010431870FFF7E1FF08BD2858004010B50024054B1C7001331C702046FFF7E7FF2046FFF7BEFF10BD00BF2858004008B5074B1B7823B903
:40110000FFF7EAFF0122044B1A70FFF7A1FF6420FFF7BAFF08BD00BF5681FF1F054A137843F0010313701032137843F001031370704700BFA8430040054B1A7802F0FD0203
:401140001A701A7800F0020010431870704700BF20580040014B1870704700BF805B0040064B1B78C3F3810303F19243063393F82031DBB2024A1370704700BF205800406D
:401180000846004008B5064B1A7802F0F3021A701A7800F00C0010431870FFF7E1FF08BD2058004010B50024054B1C7001331C702046FFF7E7FF2046FFF7BEFF10BD00BF68
:4011C0002058004008B5074B1B7823B9FFF7EAFF0122044B1A70FFF7A1FF6420FFF7BAFF08BD00BF5781FF1F084A137843F0020313701032137843F00203137002F65932F8
:40120000137843F001031370704700BFA3430040014B1880704700BF104F0040014B1880704700BF124F0040014B1870704700BF0F4F004008B51A4A137843F0020313708A
:401240000232137803F08F0343F010031370154B1A7802F0CF021A701A7842F030021A701A7802F0F0021A701A7842F00F021A704FF47A70FFF7CCFF4FF4FA70FFF7CEFFE5
:401280000020FFF7D1FF084A137843F00203137002F66A32137843F00103137008BD00BF0C4F0040174F0040A343004008B5054B1B7823B9FFF7BEFF0122024B1A70FFF7CD
:4012C00093FF08BD5881FF1F084A137843F0010313701032137843F00103137002F64D32137843F001031370704700BFA3430040014B1880704700BF044F0040014B188059
:40130000704700BF064F0040014B1870704700BF034F004008B5194A137843F0020313700232137803F08F0343F010031370144B1A7802F0CF021A701A7842F030021A7095
:401340001A7802F0F0021A701A7842F00F021A706420FFF7CDFF6420FFF7D0FF0020FFF7D3FF084A137843F00103137002F65E32137843F00103137008BD00BF004F004020
:401380000B4F0040A343004008B5054B1B7823B9FFF7C0FF0122024B1A70FFF795FF08BD5981FF1FF0B583B086460F4616461D460B4C0823237000220092019218467146D2
:4013C0003A46FFF797FA207831462A46FFF76CFA20780221FFF756FA207803B0F0BD00BF2481FF1FF0B583B086460F4616461D460B4C092323700022009201921846714666
:401400003A46FFF777FA207831462A46FFF74CFA20780221FFF736FA207803B0F0BD00BF2581FF1FF0B583B086460F4616461D460A4C0420207000230093019371463A466B
:40144000FFF758FA207831462A46FFF72DFA20780221FFF717FA207803B0F0BD2681FF1F08B50A2813D00C2802D0082809D104E04FF400624FF480510DE080224FF48071C7
:4014800009E00020FFF796FA0022114603E04FF400724FF480610020094B188042F2107303FB01F303F6C413064981FB0301DB17C3EBE12304490B6092B2044B1A8008BDC6
:4014C0004482FF1FAD8BDB684082FF1F3C82FF1F38B5FFF799F905461E4A137843F0020313701032137843F002031370193A137843F0040313701032137843F004031370B6
:4015000002F5AA521932137843F0030313700424114B1C70013B1A7802F0BF021A701A7842F003021A700822053B1A700222A3F59753123B1A70094A137843F008031370A8
:401540000A20FFF74FFA064B1C602846FFF760F938BD00BFAB4300400E5900402F5B004080E200E010B504460A280DD00C2802D0082804D101E0C42207E0442205E00020A1
:40158000FFF718FAC42200E08422034B1A702046FFF766FF10BD00BF0A59004008B5102000F024F902200721FFF73AFA02200749FFF722FA064A137843F0060313700C2037
:4015C000FFF7D0FF0022034B1A8008BD05160000095900404682FF1F08B5054B1B7823B9FFF7DCFF0122024B1A70FFF771FF08BD5A81FF1F024A137843F001031370704701
:4016000008590040704700BF08B50A2813D00C2802D0082809D104E04FF400624FF480510DE080224FF4807109E00020FFF7C2F90022114603E04FF400724FF48061002042
:40164000094B188042F2107303FB01F303F6C413064981FB0301DB17C3EBE12304490B6092B2044B1A8008BD4882FF1FAD8BDB685082FF1F4C82FF1F38B5FFF7C5F80446BF
:401680001E4A137843F0010313701032137843F001031370193A137843F0020313701032137843F00203137002F5AA521132137843F0030313700422114B1A70013B1A787E
:4016C00002F0BF021A701A7842F003021A700822053B1A700225A3F597530C3B1D70094A137843F0080313700A20FFF77BF9064B1D602046FFF78CF838BD00BFAB43004026
:4017000006590040275B004080E200E010B504460A280DD00C2802D0082804D101E0C42207E0442205E00020FFF744F9C42200E08422034B1A702046FFF766FF10BD00BF00
:401740000259004008B5102000F05AF801200721FFF766F901200749FFF74EF9064A137843F0060313700C20FFF7D0FF0022034B1A8008BDAD170000015900404A82FF1FB1
:4017800008B5054B1B7823B9FFF7DCFF0122024B1A70FFF771FF08BD5B81FF1F024A137843F001031370704700590040704700BFF0B583B086460F4616461D460A4C052033
:4017C000207000230093019371463A46FFF792F8207831462A46FFF767F820780221FFF751F8207803B0F0BD2781FF1F034B1A7800F0F80010431870704700BF8A400040A9
:40180000034B1A7800F0F80010431870704700BF86400040014B1B681865704708ED00E04001C0B2014B1870704700BF04E400E01022014B1A60704700E100E01022014BFE
:401840001A60704780E100E010B50446FFF7F6FF2046FFF7DFFF0720FFF7E2FFFFF7E8FF10BD00BF014B1B685865704708ED00E04001C0B2014B1870704700BF05E400E07D
:401880002022014B1A60704700E100E02022014B1A60704780E100E010B50446FFF7F6FF2046FFF7DFFF0720FFF7E2FFFFF7E8FF10BD00BF0E4B70B51E460E4C0025E41AAE
:4018C000A410A54204D056F8253098470135F8E700F082FB084B094C1E46E41AA4100025A54204D056F8253098470135F8E770BDE41F0000E41F0000E41F0000EC1F0000FF
:4019000010B5431E0A44914204D011F8014B03F8014FF8E710BD03460244934202D003F8011BFAE77047000000000000205B0040585B00402443004024430040080800004F
:40194000265B0040244300402E5B00405A5B0040244300402443004024430040244300400800080800000000C84900401900004F004018004051004030000000014000102A
:4019800000140140000800400140000A004C0140000200500140200021F8050144F80B4067F81B8081F80501A6F81901C2F807018561922109F9290121F9050188A2A22194
:4019C00000000000000000000000000000000000000000000000000000000000000000000000000000000000000000000000000000000000000000000000000000000000E7
:401A000000000000000000000000000000000000000000000000000000000000000000000000000000000000000000000000000000000000000000000000000000000000A6
:401A40000000000000000000000000000000000000000000000000000000000000000000000000000000000000000000000000000000000000000000000000000000000066
:401A8000000000000000000000000000000000000000000000000000180C00000000000000000000B1180000990C0000990C000000000000000000000000000000000000EF
:401AC0000000000000000000000000000000000000000000000000004F8A0000AEC9000083440100D9FB010084EA020043050400803B0500B678060047A6070098AD080008
:401B00003F7A090003FC090078280A0003FC09003F7A090098AD080047A60700B6780600803B05004305040084EA0200D9FB010083440100AEC900004F8A00004F8A0000B0
:401B4000AEC9000083440100D9FB010084EA020043050400803B0500B678060047A6070098AD08003F7A090003FC090078280A0003FC09003F7A090098AD080047A60700E1
:401B8000B6780600803B05004305040084EA0200D9FB010083440100AEC900004F8A0000000000000000000000000000000000000000000000000000000000000000000088
:401BC00000000000000000000000000000000000000000000000000000000000000000000000000000000000000000000000000000000000000000000000000000000000E5
:401C000000000000000000000000000000000000000000000000000000000000000000000000000000000000000000000000000000000000000000000000000000000000A4
:401C40000000000000000000000000000000000000000000000000000000000000000000000000000000000000000000000000000000000000000000000000000000000064
:401C80000000000000000000000000000000000000000000000000000000000000000000000000000000000000000000000000000000000000000000000000000000000024
:401CC00000000000000000000000000000000000000000000000000000000000000000000000000000000000000000000000000000000000000000000000000000000000E4
:401D000000000000000000000000000000000000000000000000000000000000000000000000000000000000000000000000000000000000000000000000000000000000A3
:401D40000000000000000000000000000000000000000000000000000000000000000000000000000000000000000000000000000000000000000000000000000000000063
:401D80000000000000000000000000000000000000000000000000000000000000000000000000000000000000000000000000000000000000000000000000000000000023
:401DC00000000000000000000000000000000000000000000000000000000000000000000000000000000000000000000000000000000000000000000000000000000000E3
:401E000000000000000000000000000000000000000000000000000000000000000000000000000000000000000000000000000000000000000000000000000000000000A2
:401E40000000000000000000000000000000000000000000000000000000000000000000000000000000000000000000000000000000000000000000000000000000000062
:401E80000000000000000000000000000000000000000000000000000000000000000000000000000000000000000000000000000000000000000000000000000000000022
:401EC0000000000000000000000000000000000000000000000000002013002561178026010080260100802601008026E00E8026C20C8026020080066587186D6409183EB3
:401F000000008026032080262102187FE60E8026C80C8026000080066B87186D6A09183E00008026012080262102187F000000000000000000000000000000000000000077
:401F40000000000000000000000000000000000000000000000000000000000000000000000000000000000000000000000000000000000000000000000000000000000061
:401F80000000000000000000000000000000000000000000000000000000000000000000000000000000000000000000000000000000000000000000000000000000000021
:401FC000000000000000000000000000000000000000000000000000F8B500BFF8BC08BC9E4670474D00000011030000F8B500BFF8BC08BC9E467047290000001020000029
:402000000881FF1F200000003001000000000000000000007F8000003F0300000000A08C401901004800000000A24A04FFFFFFFF00000000000000000000000000000000AD
:402040000000000000000000000000000000000000000000000000000000000000000000000000000000000000000000000000000000000000000000000000000000000060
:402080000000000000000000000000000000000000000000000000000000000000000000000000000000000000000000000000000000000000000000000000000000000020
:4020C00000000000000000000000000000000000000000000000000000000000000000000000000000000000000000000000000000000000000000000000000000000000E0
:40210000000000000000000000000000000000000000000000000000000000000000000000000000000000000000000000000000000000000000000000000000000000009F
:020000040003F7
:0200000480007A
:4000000001450040044F004004520040025B00400364004003030140020501400207014001090140130A01401F0B0140450C0140360D0140060E0140050F014003150140C7
:40004000041601400517014003190140021B01400C4001400F4101400C42014009430140054401400C4501400D460140084701400F480140064901400F4C0140064D01403B
:4000800007500140055101407E0201800A360D8016361120602461367C4027842F848B788C478D079F20AB20E8019F20E2089F20E410E41008011603320234013E1056082D
:4000C00058045B045C035D305F019D01B701BF40D420D904DB04DD30DF010010080818101920258031C036805AA85D02600863126560671092A89902A280A701AB10AD2099
:40010000AF30B018B301B640C002C204CC10D68ED87EE208E802EE03030119052F073302350437013F50544159045B045C305D305F01850289028A1E930294809A219B0279
:400140009D02A041A202A441A604A701A841A901AA08AC10AE41B080B220B301B440B502B61FBE51BF14C002C104C220C401C5FEC6DCC70BC81FC9FFCAFFCBFFCC22CEF0C9
:40018000CF0CD08CD110D602D72CD804D904DA24DB24DC08DD88DE08DF21E840E901EAC0EB01001008100A800BA010AA18551A402210232025202640271029202A042B08E0
:4001C0002E8030823320371039143F02400542404520460849024A90520453605C085EA06040660868AA69147B188604872094049A80A804AA40B0A0C002C206C40FCA1637
:40020000CC2DCE86D00DD670D841DE06E80156085B045D90D608DB04DD3058A05E406680D61CD810AF20E804EA0139083F0459045F0127209F20E604E802EE02E604E80219
:40024000EE02E804EA01148033013580370238023A403C206C016F01C420CCE0CE70124014403040348038023C20940298809D809E409F02A410C430CC30CE603E10510823
:4002800057048410858094029D809F02A410CE20D460E2101B041D088F20940296109F02A508A704C630101014607D20C40CDE0108800B400D8062026B089830A910B05078
:4002C000C20BD802DA02EA051B02450887029830A980AE02AF40B080B708C608D001EA04EC020B4047808F809830A508C208D004E408232027116610682080019402961049
:400300009F21AF03C8E0D880DA40E620E840EE40AA10AB10AC20AE10E820EAC01040132014801F20370878107C2083209830AD08AF40C40EC601CC01DE0378407C8098C009
:40034000AB28DC01DE040008010102140C080E080F01121400BD013F03C0100A110A0000000000000000FD00300000063600360000360000002A0000000000004000000037
:4003800000000000C3000000000000000000F000D020200020200600000000000000A0008601180100010000000800000009000000000000000000000000000000000000E2
:4003C00000000000000000000000000000000000000000000000000000000000000000000000000000000000000000000000000000000000000000000000000000000000FD
:4004000000000000000000000000000000000000000000000000000000000000000000000000000000000000000000000000000000000000000000000000000000000000BC
:40044000000000000000000000000000000000000000000000000000000000000000000000000000000000000000000000000000000000000000000000000000000000007C
:40048000000000000000000000000000000000000000000000000000000000000000000000000000000000000000000000000000000000000000000000000000000000003C
:0200000490006A
:0400000000004005B7
:0200000490105A
:04000000BC90ACAF55
:0200000490303A
:02000000B2ACA0
:0200000490402A
:4000000000000000000000000000000000000000000000000000000000000000000000000000000000000000000000000000000000000000000000000000000000000000C0
:400040000000000000000000000000000000000000000000000000000000000000000000000000000000000000000000000000000000000000000000000000000000000080
:400080000000000000000000000000000000000000000000000000000000000000000000000000000000000000000000000000000000000000000000000000000000000040
:4000C0000000000000000000000000000000000000000000000000000000000000000000000000000000000000000000000000000000000000000000000000000000000000
:0200000490501A
:0C00000000012E16106900012E20C3150F
:00000001FF