:4000000000800020110000001D0300001D03000008B5044B1A6803F53F5302331A6000F07FF900BFFA46004010B5054C237833B9044B13B10448AFF300800123237010BDBF
:400040003081FF1F00000000401B0000084B10B51BB108480849AFF300800848036803B910BD074B002BFBD0BDE81040184700BF00000000401B00003481FF1F0881FF1F3B
:4000800000000000034BDA6B110A034B19705A70704700BF6C81FF1F4C81FF1F034BDA6B110A034B9970DA70704700BFB081FF1F4C81FF1F08B5024B187901F0DDF808BD60
:4000C0004C81FF1F08B501F0B3FC01F0D5F808BD08B500F005FE04200146204A00F00EFE01F0E4F901F074F901F0FEF801F096F801F02EF800F0C6FF7F2001F0BDF87F2072
:4001000001F054F87F2000F0EBFF7F2000F082FF01F0C8FB01F0F2FA01F0D2FB01F0FCFA00F03CFD0120014600F06AFD0420012100F066FD0020012100F03EFD0220012191
:4001400000F05EFD0820012100F05AFD0120014600F032FD00F034FF08BD00BF4C81FF1F08B5064801F002FC054801F027FC054801F050FC044801F07BFC08BD85000000A7
:400180009D000000B5000000C500000038B5022001214FF48042134601F0D6F9054600F0F9FB044602210246002300F00DFC204645F6A0314CF2A07200F01AFC284621463C
:4001C00000F0B8FB2846012100F06CFB38BD00BF38B5022001214FF48042134601F07AFB054600F0D7FB044602210246002300F0EBFB204645F6A2314CF2A47200F0F8FB66
:400200002846214600F096FB2846012100F04AFB38BD00BF38B5022001214FF4804241F6FF7301F051F9054600F0B4FB044620210246062300F0C8FB20464CF2A871064A2F
:4002400092B200F0D5FB2846214600F073FB2846012100F027FB38BD6C81FF1F38B5022001214FF4804241F6FF7301F04DF9054600F090FB044620210246062300F0A4FB3E
:4002800020464CF2AC71064A92B200F0B1FB2846214600F04FFB2846012100F003FB38BDB081FF1F38B5012001464FF4804241F6FF7301F0EBFB054600F06CFB0446012194
:4002C0000246042300F080FB204646F25E41064A92B200F08DFB2846214600F02BFB2846012100F0DFFA38BD5081FF1F08B5FFF74DFFFFF76DFFFFF78DFFFFF7AFFFFFF736
:40030000D1FF08BD08B562B6FFF7E2FEFFF7EEFFFFF726FF012000F07BFBFBE7FEE700BF08B5104E104D16E029686B68AC68002204E051F8040B43F8040B0432A242F8D101
:40034000E868002203E0002143F8041B04328242F9D11035013E002EE6D101F0B7FBFFF7D1FFFEE7010000002022000008B5134A134B1A60134A136843F4007313600023E5
:400380000AE0032B03D8104A52F8231000E00F490F4A42F8231001332F2BF2D90D4B1A780D4B1A700A4A0D4B1A6000F061F900F05FFA00220A4B1A6008BD00BF0004FA051F
:4003C0000CED00E014ED00E0000000001D0300000080FF1FBC7600400481FF1F08ED00E00081FF1FFEE700BFF0B40022174611E050F82760F3B226F0FF0608E001EB42059A
:4004000011F812406D78A5550132013BDBB2002BF4D10137212FEBD9F0BC704708B50A46002101F084FB08BDF8B53E4B1B78DBB23D4E3478E4B23D4F3D78EDB203F0070186
:400440003B4A11701B090132137044F00303337045F003033B704AF24002364B1A80F02211331A70062210331A704023324A13704FF48171BF3211800E2102F5CE6211707B
:4004800095321370023213700632137002321370F5321370012229490A7002310A7008212748017006300370043002704FF0200E043080F800E04FF0900E083080F800E0A5
:4004C000633002700830027010200EF1804E0EF5B44E8EF800000EF1080E8EF800001948037002230130037024300170063003701A30037004230430037004300170124994
:400500000B701249124B196012490433196014331A700A2000F092FA3D70347044220E4B1A70F8BDCF010049F8460040F94600406E5800400C5100403D510040045A004019
:400540000A5A0040DB5A00402C5B004022012004405B0040080102017658004008B501F0DBFA08BD38B50024334B1C80502202331A70032202331A80182330490B70023165
:400580000A802F4A1370232102321180023213702C482D490422FFF7E1FF06222B4B1A705222A3F580731A70294B1B78DBB2294A137040F62A52284B1A8042F25122023B31
:4005C0001A8019250CE0254B1B7803F0010343EA440404F003044FF4F07000F039F9013D0DB1032CEFD115B90320FFF7FBFE1C4A4FF48073138007231370002319490B7061
:400600004820023108701370053213700222164B1A7004220A331A70144A137843F00F031370013A137843F001031370013A137843F08003137038BD804000408640004043
:400640008A400040004100406C040048004300400F010049A14600402242004025420040044000400640004001400040A243004038B572B66122514B1A70FFF773FF504A79
:40068000137843F00403137000240BE04D4963001A1952000A44D06BB2F84010FFF7BEFE0134E4B2072CF1D900240BE04549A3001A1952000A44D06E116F0822FFF74EFF2A
:4006C0000134E4B2002CF1D04FF090403E49FFF78BFE0A253D4B1D703D480421FFF79EFE3C483D490422FFF739FF3C483C490422FFF734FF3B480421FFF790FE3A48042124
:40070000FFF78CFE39480421FFF788FE38480421FFF784FE37480421FFF780FE364837490422FFF71BFF364836490422FFF716FF354A137843F0020313701032137843F0BB
:4007400002031370314C237843F040032370A2F58632513A137843F0100313702C482D490822FFF7FBFE2C482C492A46FFF7F6FE2B482C490522FFF7F1FE2B482B492A4611
:40078000FFF7ECFE2A482B490822FFF7E7FE2A482A490822FFF7E2FE29482A490822FFF7DDFE294A137843F008031370FFF73CFE264821460E22FFF7D1FE38BD0048004074
:4007C000E8460040441B000088000048835800400076004008760040700400481076004074040048187600402076004028760040307600403876004040760040780400487B
:40080000487600407C04004803500140A0430040025100402C040048C051004034040048CB51004040040048F0510040480400481251004054040048225100405C040048C4
:40084000325100406404004822430040B04300400230800803D000BF01380046FCD17047EFF3108072B6704780F31088704700BF0B4A7F2313708021517007E0DA0002F17C
:40088000804202F5F042013BDBB21370002BF5D1DB0003F1804303F5F04300221A7070470C81FF1F172815D831B103010A495A5C42F020025A5405E0030107495A5C02F047
:4008C000DF025A540001044A835C43F00103835400207047012070471070004017280BD80001064A835C03F0F10301F0070143EA41018154002070470120704710700040D9
:4009000041F6FF73994201D14FF4005141F6FF739A4201D14FF40052172808D8C00000F1804000F5EC408180C280002070470120704700BF172805D8034B03EB0010417264
:4009400000207047012070471070004017281BD810B4C00000F1804404F5EC44D201D2B201F07F01114321709DF804201201D2B203F00F03134363709DF8083003F00F0377
:40098000A3700020E07001E0012070475DF8044B704700BF10B5FFF763FF0A4B5B78182B0BD9084A1478013B5370E30003F1804303F5F0431B78137000E0FF24FFF754FF71
:4009C000204610BD0C81FF1F10F0800F0CD111F4704F0BD1C00000F1804000F5F04001808270C37000207047012070470120704710F0800F08D1C00000F1804000F5F0404C
:400A00008180C280002070470120704701BE704710B5044605E0084B1868FFF719FFA4F50044B4F5004FF6D8034B586800FB04F0FFF70EFF10BD00BF1481FF1F08B5034B8C
:400A40001B7A03FB00F0FFF703FF08BD1481FF1F70B504460E46074B1D681F2802D90020FFF7D4FF04F01F04103455F8240045F8246070BD08ED00E038B504460D46072995
:400A800002D90020FFF7C2FF1F2C02D90020FFF7BDFF04F01F0000F1604000F564406D01EDB2057038BD00BFF8B5244A137843F01003137002F50342DA32137803F0FE03E3
:400AC00013703F2308321370043213701C4D4FF480741C482946224601F01EF81A482946224601F019F819481949224601F014F84FF4007417481849224601F00DF8174822
:400B00001749224601F008F8164C174E04F14007354620686168A268E3680FC510342E46BC42F5D10020114B187000F079F8052000F07EF8F8220E4B1A70F8BDA6430040BD
:400B4000FC20000000C4004000C5004000C60040BC1B000000C00040FC1E000000C20040FC1C0000BC1C000000C700408CC7004084C70040084A137843F01003137010325A
:400B8000137843F01003137002F50342CA32137843F0010313707047A643004008B5054B1B7823B9FFF780FF0122024B1A70FFF7E1FF08BD5C81FF1F68B9104B1A7802F003
:400BC000CC021A701A780A431A701A780901C9B211431970704701280ED1084B1A7802F033021A7018788A00D2B202431A701A788901C9B211431970704700BFB0C70040DD
:400C0000012904D1054B1A7810431870704721B9024A137823EA000010707047B4C7004000F01F00014B1870704700BF98C7004000F00F00014B1870704700BF9CC70040AD
:400C400010B50122124B1A7081220E3B1A70082202331A70042211331A70002401331C704FF400420B4B1A600F200721FFF704FF0F200949FFF7ECFE084B1C70084B1C70AA
:400C8000084B1C70084B1C70084B1C8010BD00BFD649004080E100E04D0D00000082FF1FF481FF1F0182FF1F0282FF1FFC81FF1F08B5FFF7D5FD084A137843F004031370D1
:400CC0001032137843F004031370FFF7CDFD4FF40042024B1A6008BDA543004000E100E008B5054B1B7823B9FFF7AAFF0122024B1A70FFF7DDFF08BD5D81FF1F10B44FF401
:400D000000440B4B1C6032B113460A4A13600A4B18800A4B19800023094A1370094A13704FF40042084B1A605DF8044B704700BF80E100E0F881FF1FFE81FF1FFC81FF1F74
:400D40000182FF1F0282FF1F00E100E0654B1B78DBB2654A137013F0080F32D0634B1B7813F0010F1CD0624A1378DBB261490968CB5CDBB25D490B7014215A4B197013786F
:400D8000DBB25D4A137013780133DBB213705B4A137843F0110313700822594B1A708EE01022504B1A70554A137843F0120313700122534B1A70534A137843F01003137065
:400DC0007DE013F0010F7AD04D4A1278D2B2042A1ED0082A3AD0012A68D1444B1B78DBB2414A5370484A128892B293420CD210223C4B1A703C4B5B783D4A13703E4A137006
:400E000004223F4B1A705AE00022364B1A7056E0394B1A783D4B1B889BB29A4212D2334B1B7831494B7010222E4B1A70324A1378DBB2304800684978C15413780133DBB27C
:400E400013703CE00022274B1A7038E013F0020F1ED1294B1A782C4B1B889BB29A4210D2254A1378DBB223490968CB5CDBB21F490B7004211B4B197013780133DBB2137091
:400E80001DE0FF22194B1A700422013B1A7016E0FF22164B1A700022013B1A7017490B7803F0EF030B70164B1A7008E00023144A13700F4A1370104A13700A4A1370094B52
:400EC0001B7813F0200F0CD00C4A137803F0EF03137000220A4B1A700A4A137803F0EF0313707047D74900405E81FF1FD84900400182FF1FF881FF1F0282FF1FF481FF1FDE
:400F00000082FF1FD6490040FE81FF1FFC81FF1F08B5FFF7A5FC094A137843F020031370023A137843F010031370013A137843F010031370FFF798FC08BD00BF9E64004000
:400F4000014B1878704700BF6C640040014B1878704700BF6B64004008B501E00A4B1B780A4B1B7813F0080FF8D1FFF779FC084B1A7842F003021A701A7802F0FC021A7040
:400F8000FFF772FC08BD00BF5E6400406B6400409E64004008B50722074B1A70FFF7DCFFFFF7CEFFFFF7D2FF0022044B1A700822013B1A7008BD00BF8E6400408C64004008
:400FC00008B5054B1B7823B9FFF7E4FF0122024B1A70FFF79DFF08BD6081FF1F054A137843F0080313701032137843F008031370704700BFA8430040054B1A7802F0FD02AF
:401000001A701A7800F0020010431870704700BF2C580040014B1870704700BF835B0040064B1B78C3F3810303F19243063393F83831DBB2024A1370704700BF2C5800407B
:401040000B46004008B5064B1A7802F0F3021A701A7800F00C0010431870FFF7E1FF08BD2C58004010B50024054B1C7001331C702046FFF7E7FF2046FFF7BEFF10BD00BF9A
:401080002C58004008B5074B1B7823B9FFF7EAFF0122044B1A70FFF7A1FF6420FFF7BAFF08BD00BF6181FF1F054A137843F0020313701032137843F002031370704700BF33
:4010C000A8430040054B1A7802F0FD021A701A7800F0020010431870704700BF24580040014B1870704700BF815B0040064B1B78C3F3810303F19243063393F83031DBB2D8
:40110000024A1370704700BF245800400946004008B5064B1A7802F0F3021A701A7800F00C0010431870FFF7E1FF08BD2458004010B50024054B1C7001331C702046FFF76D
:40114000E7FF2046FFF7BEFF10BD00BF2458004008B5074B1B7823B9FFF7EAFF0122044B1A70FFF7A1FF6420FFF7BAFF08BD00BF6281FF1F054A137843F0010313701032AB
:40118000137843F001031370704700BFA8430040054B1A7802F0FD021A701A7800F0020010431870704700BF20580040014B1870704700BF805B0040064B1B78C3F38103DC
:4011C00003F19243063393F82031DBB2024A1370704700BF205800400846004008B5064B1A7802F0F3021A701A7800F00C0010431870FFF7E1FF08BD2058004010B5002443
:40120000054B1C7001331C702046FFF7E7FF2046FFF7BEFF10BD00BF2058004008B5074B1B7823B9FFF7EAFF0122044B1A70FFF7A1FF6420FFF7BAFF08BD00BF6381FF1FCB
:40124000054A137843F0040313701032137843F004031370704700BFA8430040054B1A7802F0FD021A701A7800F0020010431870704700BF28580040014B1870704700BF70
:40128000825B0040064B1B78C3F3810303F19243063393F82831DBB2024A1370704700BF285800400A46004008B5064B1A7802F0F3021A701A7800F00C0010431870FFF77B
:4012C000E1FF08BD2858004010B50024054B1C7001331C702046FFF7E7FF2046FFF7BEFF10BD00BF2858004008B5074B1B7823B9FFF7EAFF0122044B1A70FFF7A1FF6420EA
:40130000FFF7BAFF08BD00BF6481FF1F084A137843F0020313701032137843F00203137002F65932137843F001031370704700BFA3430040014B1880704700BF104F0040FA
:40134000014B1880704700BF124F0040014B1870704700BF0F4F004008B51A4A137843F0020313700232137803F08F0343F010031370154B1A7802F0CF021A701A7842F013
:4013800030021A701A7802F0F0021A701A7842F00F021A704FF47A70FFF7CCFF4FF4FA70FFF7CEFF0020FFF7D1FF084A137843F00203137002F66A32137843F0010313705D
:4013C00008BD00BF0C4F0040174F0040A343004008B5054B1B7823B9FFF7BEFF0122024B1A70FFF793FF08BD6581FF1F084A137843F0010313701032137843F0010313706A
:4014000002F64D32137843F001031370704700BFA3430040014B1880704700BF044F0040014B1880704700BF064F0040014B1870704700BF034F004008B5194A137843F0BE
:40144000020313700232137803F08F0343F010031370144B1A7802F0CF021A701A7842F030021A701A7802F0F0021A701A7842F00F021A706420FFF7CDFF6420FFF7D0FF2B
:401480000020FFF7D3FF084A137843F00103137002F65E32137843F00103137008BD00BF004F00400B4F0040A343004008B5054B1B7823B9FFF7C0FF0122024B1A70FFF7EC
:4014C00095FF08BD6681FF1FF0B583B086460F4616461D460B4C08232370002200920192184671463A46FFF731FA207831462A46FFF706FA20780221FFF7F0F9207803B06A
:40150000F0BD00BF2481FF1FF0B583B086460F4616461D460B4C09232370002200920192184671463A46FFF711FA207831462A46FFF7E6F920780221FFF7D0F9207803B0B8
:40154000F0BD00BF2581FF1FF0B583B086460F4616461D460A4C0520207000230093019371463A46FFF7F2F9207831462A46FFF7C7F920780221FFF7B1F9207803B0F0BD8E
:401580002681FF1F08B50A2813D00C2802D0082809D104E04FF400624FF480510DE080224FF4807109E00020FFF730FA0022114603E04FF400724FF480610020094B1880BA
:4015C00042F2107303FB01F303F6C413064981FB0301DB17C3EBE12304490B6092B2044B1A8008BD0C82FF1FAD8BDB680882FF1F0482FF1F38B5FFF733F905461E4A137895
:4016000043F0020313701032137843F002031370193A137843F0040313701032137843F00403137002F5AA521932137843F0030313700424114B1C70013B1A7802F0BF022C
:401640001A701A7842F003021A700822053B1A700222A3F59753123B1A70094A137843F0080313700A20FFF7E9F9064B1C602846FFF7FAF838BD00BFAB4300400E590040CF
:401680002F5B004080E200E010B504460A280DD00C2802D0082804D101E0C42207E0442205E00020FFF7B2F9C42200E08422034B1A702046FFF766FF10BD00BF0A59004007
:4016C00008B5102000F024F902200721FFF7D4F902200749FFF7BCF9064A137843F0060313700C20FFF7D0FF0022034B1A8008BD29170000095900400E82FF1F08B5054BCF
:401700001B7823B9FFF7DCFF0122024B1A70FFF771FF08BD6781FF1F024A137843F001031370704708590040704700BF08B50A2813D00C2802D0082809D104E04FF4006274
:401740004FF480510DE080224FF4807109E00020FFF75CF90022114603E04FF400724FF480610020094B188042F2107303FB01F303F6C413064981FB0301DB17C3EBE12311
:4017800004490B6092B2044B1A8008BD1082FF1FAD8BDB681882FF1F1482FF1F38B5FFF75FF804461E4A137843F0010313701032137843F001031370193A137843F002031A
:4017C00013701032137843F00203137002F5AA521132137843F0030313700422114B1A70013B1A7802F0BF021A701A7842F003021A700822053B1A700225A3F597530C3B13
:401800001D70094A137843F0080313700A20FFF715F9064B1D602046FFF726F838BD00BFAB43004006590040275B004080E200E010B504460A280DD00C2802D0082804D158
:4018400001E0C42207E0442205E00020FFF7DEF8C42200E08422034B1A702046FFF766FF10BD00BF0259004008B5102000F05AF801200721FFF700F901200749FFF7E8F8A9
:40188000064A137843F0060313700C20FFF7D0FF0022034B1A8008BDD1180000015900401282FF1F08B5054B1B7823B9FFF7DCFF0122024B1A70FFF771FF08BD6881FF1F20
:4018C000024A137843F001031370704700590040704700BFF0B583B086460F4616461D460A4C0620207000230093019371463A46FFF72CF8207831462A46FFF701F820782C
:401900000221FEF7EBFF207803B0F0BD2781FF1F034B1A7800F0F80010431870704700BF8A400040034B1A7800F0F80010431870704700BF86400040014B1B6818657047A2
:4019400008ED00E04001C0B2014B1870704700BF04E400E01022014B1A60704700E100E01022014B1A60704780E100E010B50446FFF7F6FF2046FFF7DFFF0720FFF7E2FF3B
:40198000FFF7E8FF10BD00BF014B1B685865704708ED00E04001C0B2014B1870704700BF05E400E02022014B1A60704700E100E02022014B1A60704780E100E010B5044651
:4019C000FFF7F6FF2046FFF7DFFF0720FFF7E2FFFFF7E8FF10BD00BF014B1B681866704708ED00E04001C0B2014B1870704700BF08E400E04FF48072014B1A60704700BF48
:401A000000E100E04FF48072014B1A60704700BF80E100E010B50446FFF7F4FF2046FFF7DBFF0720FFF7DEFFFFF7E4FF10BD00BF014B1878704700BF1B640040014B1B68C6
:401A40009865704708ED00E04001C0B2014B1870704700BF06E400E04022014B1A60704700E100E04022014B1A60704780E100E010B50446FFF7F6FF2046FFF7DFFF0720FB
:401A8000FFF7E2FFFFF7E8FF10BD00BFF0B583B084468E4617461E460B4C022525700023009301932846614672462B46FEF74EFF207839463246FEF723FF20782946FEF730
:401AC0000DFF207803B0F0BD2881FF1F0E4B70B51E460E4C0025E41AA410A54204D056F8253098470135F8E700F088FB084B094C1E46E41AA4100025A54204D056F8253002
:401B000098470135F8E770BD0822000008220000082200001022000010B5431E0A44914204D011F8014B03F8014FF8E710BD03460244934202D003F8011BFAE77047000088
:401B400000000000205B0040585B0040244300402443004008080000265B0040244300402E5B00405A5B004024430040244300402443004024430040020002020000000091
:401B8000C84900401900004F0040180040510040300000000140001000140140000800400140000A004C0140000200500140200000510140240400480800000021F8050171
:401BC00044F80B4067F81B8081F80501A6F81901C2F807018561922109F9290121F9050188A2A2210000000000000000000000000000000000000000000000000000000099
:401C000000000000000000000000000000000000000000000000000000000000000000000000000000000000000000000000000000000000000000000000000000000000A4
:401C40000000000000000000000000000000000000000000000000000000000000000000000000000000000000000000000000000000000000000000000000000000000064
:401C8000000000000000000000000000000000000000000000000000000000000000000000000000000000000000000000000000000000000000000000000000180C000000
:401CC0000000000000000000B1180000990C0000990C000000000000000000000000000000000000000000000000000000000000000000000000000000000000640A000063
:401D0000382D0000FE770000BC020100A2DE01000B11030065900400C6430600610508009FA70900F8FB0A0057DA0B00A6270C0057DA0B00F8FB0A009FA70900610508009D
:401D4000C6430600659004000B110300A2DE0100BC020100FE770000382D0000640A00004F8A0000AEC9000083440100D9FB010084EA020043050400803B0500B678060017
:401D800047A6070098AD08003F7A090003FC090078280A0003FC09003F7A090098AD080047A60700B6780600803B05004305040084EA0200D9FB010083440100AEC900009F
:401DC0004F8A00000000000000000000000000000000000000000000000000000000000000000000000000000000000000000000000000000000000000000000000000000A
:401E000000000000000000000000000000000000000000000000000000000000000000000000000000000000000000000000000000000000000000000000000000000000A2
:401E40000000000000000000000000000000000000000000000000000000000000000000000000000000000000000000000000000000000000000000000000000000000062
:401E80000000000000000000000000000000000000000000000000000000000000000000000000000000000000000000000000000000000000000000000000000000000022
:401EC00000000000000000000000000000000000000000000000000000000000000000000000000000000000000000000000000000000000000000000000000000000000E2
:401F000000000000000000000000000000000000000000000000000000000000000000000000000000000000000000000000000000000000000000000000000000000000A1
:401F40000000000000000000000000000000000000000000000000000000000000000000000000000000000000000000000000000000000000000000000000000000000061
:401F80000000000000000000000000000000000000000000000000000000000000000000000000000000000000000000000000000000000000000000000000000000000021
:401FC00000000000000000000000000000000000000000000000000000000000000000000000000000000000000000000000000000000000000000000000000000000000E1
:4020000000000000000000000000000000000000000000000000000000000000000000000000000000000000000000000000000000000000000000000000000000000000A0
:402040000000000000000000000000000000000000000000000000000000000000000000000000000000000000000000000000000000000000000000000000000000000060
:402080000000000000000000000000000000000000000000000000000000000000000000000000000000000000000000000000000000000000000000000000000000000020
:4020C0000000000000000000000000000000000000000000000000000000000000000000000000000000000000000000000000000000000000000000000000002013002588
:4021000061178026010080260100802601008026E00E8026C20C8026020080066587186D6409183E00008026032080262102187FE60E8026C80C8026000080066B87186D8E
:402140006A09183E00008026012080262102187F0000000000000000000000000000000000000000000000000000000000000000000000000000000000000000000000006F
:40218000000000000000000000000000000000000000000000000000000000000000000000000000000000000000000000000000000000000000000000000000000000001F
:4021C000000000000000000000000000000000000000000000000000000000000000000000000000000000000000000000000000000000000000000000000000F8B500BF73
:40220000F8BC08BC9E4670474D0000006D030000F8B500BFF8BC08BC9E46704729000000302200000881FF1F28000000F0000000000000007F800000FF0300000000A08CE8
:40224000401901004800000000A24A04FFFFFFFFFF0000000000000000000000000000000000000000000000000000000000000000000000000000000000000000000000D1
:40228000000000000000000000000000000000000000000000000000000000000000000000000000000000000000000000000000000000000000000000000000000000001E
:4022C00000000000000000000000000000000000000000000000000000000000000000000000000000000000000000000000000000000000000000000000000000000000DE
:40230000000000000000000000000000000000000000000000000000000000000000000000000000000000000000000000000000000000000000000000000000000000009D
:40234000000000000000000000000000000000000000000000000000000000000000000000000000000000000000000000000000000000000000000000000000000000005D
:020000040003F7
:0200000480007A
:4000000001450040044F004007520040025B0040036400400101014001030140020501400207014002090140210A0140260B01402B0C0140370D01403B0E01402A0F014085
:40004000031501400117014001190140031B01401140014016410140144201400B430140084401400D4501400A4601400947014009480140084901400F4C0140084D01402C
:4000800007500140025101407E0201800A4B0D80164B1020112013201908602461367C4027842F848B788C478E07E608E601E209E604E410EA04A920E41056085B045D30E8
:4000C0008301920198019A029E04A804B002B204B301B401BA02BE04C042C9FFCAFFCBFFCD20CEF0D110D420D604D804D904DA04DB04DC39DD39DF01E210E3010D220F02C9
:4001000017201D221F0427203F02452259105B805C085D085F01600863026508678A87409303978099109B80A820A901AE04AF01B404B640C2D0C440CE80D0A0D68CD8FC5B
:40014000E201E604EA02EE0503010701160318012C042D01300431013402360138883A203E013F015441580B59045B045C035D305F0189048F04930295049B049D049E019E
:40018000A301A501B104B201B301B601B702BF05D608D804D904DB04DC83DD30DF1109800D200E101410158819881D201E121F0120022390244029082A022D8030803110DC
:4001C0003224330139503E023F0A58105A405C405E205F046180630E671078207F408201900491D89208930196049C20A080A230A401A501AF11B040C261C480CA13CC0FB4
:40020000CECCD67CD84CDE84EA08EC080102021E04010502060409020C100E010F0210201A011D011E202001220228012A08302031013502361F3E413F11400241054220D8
:40024000440145FE46DF47BC483F49FF4AFF4BFF4C224EF04F0C508C51105602572C580459045A245B245D885E085F11684069016AC06B01B880BE40D608D804DB04DD90F8
:40028000DF010002014409010A840B021008110118011B011F802084234030403240395540054A104B415144522053015C805F106340688869556A08786084808780C00DB9
:4002C000C20BC40ACC08CE0FD00CD208D630D801DE0CE408E602E804EA01EC10EE02EE02E804EA01EC10120817043302372238023A403D403E0169406B206C016F02850807
:40030000C460CCE0CEF0E6101240144030403304360837103A043E02420183409402960199089B049E409F22A208C430CCF0CEC0D010E6803E105108570459085D08800160
:400340008206832086019402960199089B409E069F32CE20D460D6C0E290E6201B041D088F2096109B409F02A508A704AB10C630EA201104150117087F2085048720C40C6C
:40038000DE01080209400E08670873049105930CAF0CB304C20BD801DC04EC041A104508821083209105A802AA04AD40C608D0010B4047808F809105A508A720C208D00403
:4003C000E40823202510271096109B409F20AF02C8E0EE405B409B40AA10AB10B510D480E820EA801040132014801F20370879047D019105A508A720AF40C40EC601CC0136
:40040000DE0378407C8098C0AB28B508DC01DE04EC080008010102140C080D010E080F01102A11A8BDFF03C000000000000000000000FD00300000063600360000360000DD
:40044000002A0000000000004000000000000000C3000000000000000000F000D020200020200600000808000800A00086011801000100000002000000080000000900009D
:40048000000000000000000000000000000000000000000000000000000000000000000000000000000000000000000000000000000000000000000000000000000000003C
:4004C00000000000000000000000000000000000000000000000000000000000000000000000000000000000000000000000000000000000000000000000000000000000FC
:4005000000000000000000000000000000000000000000000000000000000000000000000000000000000000000000000000000000000000000000000000000000000000BB
:40054000000000000000000000000000000000000000000000000000000000000000000000000000000000000000000000000000000000000000000000000000000000007B
:0200000490006A
:0400000000004005B7
:0200000490105A
:04000000BC90ACAF55
:0200000490303A
:02000000C354E7
:0200000490402A
:4000000000000000000000000000000000000000000000000000000000000000000000000000000000000000000000000000000000000000000000000000000000000000C0
:400040000000000000000000000000000000000000000000000000000000000000000000000000000000000000000000000000000000000000000000000000000000000080
:400080000000000000000000000000000000000000000000000000000000000000000000000000000000000000000000000000000000000000000000000000000000000040
:4000C0000000000000000000000000000000000000000000000000000000000000000000000000000000000000000000000000000000000000000000000000000000000000
:0200000490501A
:0C00000000012E16106900012E21D3BD56
:00000001FF