:400000000080002011000000ED030000ED03000008B5044B1A6803F53F5302331A6000F0E7F900BFFA46004010B5054C237833B9044B13B10448AFF300800123237010BDB7
:400040003081FF1F00000000F01C0000084B10B51BB108480849AFF300800848036803B910BD074B002BFBD0BDE81040184700BF00000000F01C00003481FF1F0881FF1FD9
:4000800000000000034BDA8B034B110A19705A70704700BF7081FF1F4C81FF1F034BDA8B034B110A9970DA70704700BF9481FF1F4C81FF1F704700BF08B5024B187901F05C
:4000C0005FF908BD4C81FF1F08B500F08DFE04200146204A00F096FE01F06CFA01F0FCF901F086F901F01EF901F0B6F801F04EF87F2001F045F97F2001F0DCF87F2001F01A
:4001000073F87F2001F00AF801F032FC01F05CFB01F03CFC01F066FB00F0C4FD0120014600F0F2FD0420012100F0EEFD0020012100F0C6FD0220012100F0E6FD0820012171
:4001400000F0E2FD0120014600F0BAFD00F0BCFF08BD00BF4C81FF1F08B5064801F04EFC054801F073FC054801F098FC044801F0BDFC08BD850000009D000000B500000030
:40018000B900000038B5022001214FF4804241F6FF7301F01DFA054600F080FC044620210246062300F094FC20464CF2A871064A92B200F0A1FC2846214600F03FFC284620
:4001C000012100F0F3FB38BD7081FF1F38B5022001214FF4804241F6FF7301F019FA054600F05CFC044620210246062300F070FC20464CF2AC71064A92B200F07DFC284601
:40020000214600F01BFC2846012100F0CFFB38BD9481FF1F38B5012001464FF48042134601F072FC054600F039FC044601210246042300F04DFC204646F25A4146F61602BB
:4002400000F05AFC2846214600F0F8FB2846012100F0ACFB38BD00BF38B5012001464FF4804241F6FF7301F06FFC054600F016FC044601210246042300F02AFC204646F666
:400280003601064A92B200F037FC2846214600F0D5FB2846012100F089FB38BD5081FF1F38B5022001214FF48042134601F06AFC054600F0F3FB044602210246042300F0F8
:4002C00007FC204645F6A03146F6082200F014FC2846214600F0B2FB2846012100F066FB38BD00BF38B5022001214FF48042134601F068FC054600F0D1FB0446022102467C
:40030000042300F0E5FB204645F6A23146F60C2200F0F2FB2846214600F090FB2846012100F044FB38BD00BF38B5022001214FF48042134601F066FC054600F0AFFB044637
:4003400002210246002300F0C3FB204646F628214CF2A07200F0D0FB2846214600F06EFB2846012100F022FB38BD00BF38B5022001214FF48042134601F062FC054600F0B3
:400380008DFB044602210246002300F0A1FB204646F62C214CF2A47200F0AEFB2846214600F04CFB2846012100F000FB38BD00BF08B5FFF775FFFFF795FFFFF7B5FFFFF7E9
:4003C000D5FFFFF7DFFEFFF701FFFFF723FFFFF743FF08BD08B562B6FFF776FEFFF7E8FFFFF7BAFE012000F097FBFBE7FEE700BF08B5104E104D16E029686B68AC68002250
:4004000004E051F8040B43F8040B0432A242F8D1E868002203E0002143F8041B04328242F9D11035013E002EE6D101F027FCFFF7D1FFFEE7010000009423000008B5134AC5
:40044000134B1A60134A136843F40073136000230AE0032B03D8104A52F8231000E00F490F4A42F8231001332F2BF2D90D4B1A780D4B1A700A4A0D4B1A6000F069F900F037
:400480007BFA00220A4B1A6008BD00BF0004FA050CED00E014ED00E000000000ED0300000080FF1FBC7600400481FF1F08ED00E00081FF1FFEE700BFF0B40022174611E0C6
:4004C00050F82760F3B226F0FF0608E001EB420511F812406D78A5550132013BDBB2002BF4D10137242FEBD9F0BC704708B50A46002101F0F4FB08BD2DE9F041414B1B7841
:40050000DBB2414E3478E4B2404F3D78EDB203F007013F4A11701B090132137044F00303337045F003033B704AF24002394B1A80F02211331A704FF0060E103383F800E06B
:400540004023354A13704FF48171BF3211800E2102F5CE621170953213700232137006321370023213709021F532117001222B490A7002310A700A310B7004310A708020F9
:400580000431087008310B700220063108700421DFF89CC08CF800100CF1590C8CF800200CF1080C8CF800204FF0100CDFF8848088F800C008F1080888F800C0DFF878C094
:4005C0008CF80030164B18704433187004331970082004331870043319701249143319601149043319600D3383F800E007331A700A2000F0A7FA3D70347044220B4B1A7022
:40060000BDE8F081CF010049F8460040F94600406E5800400C5100403D510040045A0040DC5A00402201200407010401765800402A5A0040905A0040DB5A004008B501F096
:4006400043FB08BD38B50024334B1C80502202331A70032202331A80182330490B7002310A802F4A1370232102321180023213702C482D490422FFF7E1FF06222B4B1A7071
:400680005222A3F580731A70294B1B78DBB2294A137040F62A52284B1A8042F25122023B1A8019250CE0254B1B7803F0010343EA440404F003044FF4F07000F04DF9013D3F
:4006C0000DB1032CEFD115B90320FFF7F3FE1C4A4FF48073138007231370002319490B704820023108701370053213700222164B1A7004220A331A70144A137843F00F031F
:400700001370013A137843F001031370013A137843F08003137038BD80400040864000408A40004000410040C8070048004300400F010049A14600402242004025420040CC
:40074000044000400640004001400040A243004038B572B66122564B1A70FFF773FF554A137843F00403137000240CE0524963001A1952000A4423445B00C8589188FFF7E5
:40078000B5FE0134E4B2072CF0D900240BE04A49A3001A1952000A44106B516B0622FFF74DFF0134E4B2002CF1D04FF090404349FFF782FE0A25424B1D7042480421FFF74F
:4007C00095FE414841490422FFF738FF404841490422FFF733FF40480421FFF787FE3F480421FFF783FE3E483E490422FFF726FF3D483E490422FFF721FF3D480421FFF71F
:4008000075FE3C480421FFF771FE3B483B490422FFF714FF3A483B490422FFF70FFF3A4A137843F0020313701032137843F002031370364C237843F040032370A2F586320A
:40084000513A137843F010031370314831490822FFF7F4FE304831492A46FFF7EFFE304830490522FFF7EAFE2F4830492A46FFF7E5FE2F482F490822FFF7E0FE2E482F4945
:400880000822FFF7DBFE2E482E490822FFF7D6FE64222D4B1A702D4A137843F008031370FFF72AFE2A4821460E22FFF7C7FE38BD00480040E8460040F41C0000940000485A
:4008C000835800400076004050760040CC07004808760040D0070048107600401876004020760040D407004828760040D8070048307600403876004040760040DC070048A2
:4009000048760040E007004803500140A04300400251004088070048C051004090070048CB5100409C070048F0510040A407004812510040B007004822510040B807004822
:4009400032510040C0070048DB08014022430040B0430040000000000230800803D000BF01380046FCD17047EFF3108072B6704780F31088704700BF0B4A7F23137080216D
:40098000517007E0DA0002F1804202F5F042013BDBB21370002BF5D1DB0003F1804303F5F04300221A7070470C81FF1F172815D831B103010A495A5C42F020025A5405E0CD
:4009C000030107495A5C02F0DF025A540001044A835C43F00103835400207047012070471070004017280BD80001064A835C03F0F10301F0070143EA410181540020704774
:400A0000012070471070004041F6FF73994201D14FF4005141F6FF739A4201D14FF40052172808D8C00000F1804000F5EC408180C280002070470120704700BF172805D8CA
:400A4000034B03EB0010417200207047012070471070004017281BD810B4C00000F1804404F5EC44D201D2B201F07F01114321709DF804201201D2B203F00F031343637049
:400A80009DF8083003F00F03A3700020E07001E0012070475DF8044B704700BF10B5FFF763FF0A4B5B78182B0BD9084A1478013B5370E30003F1804303F5F0431B781370EA
:400AC00000E0FF24FFF754FF204610BD0C81FF1F10F0800F0CD111F4704F0BD1C00000F1804000F5F04001808270C37000207047012070470120704710F0800F08D1C000D5
:400B000000F1804000F5F0408180C280002070470120704701BE704710B5044605E0084B1868FFF719FFA4F50044B4F5004FF6D8034B586800FB04F0FFF70EFF10BD00BF73
:400B40001481FF1F08B5034B1B7A03FB00F0FFF703FF08BD1481FF1F70B504460E46074B1D681F2802D90020FFF7D4FF04F01F04103455F8240045F8246070BD08ED00E090
:400B800038B504460D46072902D90020FFF7C2FF1F2C02D90020FFF7BDFF04F01F0000F1604000F564406D01EDB2057038BD00BFF8B5244A137843F01003137002F50342B3
:400BC000DA32137803F0FE0313703F2308321370043213701C4D4FF480741C482946224601F072F81A482946224601F06DF819481949224601F068F84FF400741748184957
:400C0000224601F061F817481749224601F05CF8164C174E04F14007354620686168A268E3680FC510342E46BC42F5D10020114B187000F079F8052000F07EF8F8220E4BBF
:400C40001A70F8BDA64300407022000000C4004000C5004000C60040301D000000C000407020000000C20040701E0000301E000000C700408CC7004084C70040084A1378AE
:400C800043F0100313701032137843F01003137002F50342CA32137843F0010313707047A643004008B5054B1B7823B9FFF780FF0122024B1A70FFF7E1FF08BD6081FF1FF3
:400CC00068B9104B1A7802F0CC021A701A780A431A701A780901C9B211431970704701280ED1084B1A7802F033021A7018788A00D2B202431A701A788901C9B21143197009
:400D0000704700BFB0C70040012904D1054B1A7810431870704721B9024A137823EA000010707047B4C7004000F01F00014B1870704700BF98C7004000F00F00014B187098
:400D4000704700BF9CC7004010B50122124B1A7081220E3B1A70082202331A70042211331A70002401331C704FF400420B4B1A600F200721FFF704FF0F200949FFF7ECFE4E
:400D8000084B1C70084B1C70084B1C70084B1C70084B1C8010BD00BFD649004080E100E0550E0000C481FF1FB881FF1FC581FF1FC681FF1FC081FF1F08B5FFF7D5FD084A80
:400DC000137843F0040313701032137843F004031370FFF7CDFD4FF40042024B1A6008BDA543004000E100E008B5054B1B7823B9FFF7AAFF0122024B1A70FFF7DDFF08BDBB
:400E00006181FF1F10B44FF400440B4B1C6032B113460A4A13600A4B18800A4B19800023094A1370094A13704FF40042084B1A605DF8044B704700BF80E100E0BC81FF1FE0
:400E4000C281FF1FC081FF1FC581FF1FC681FF1F00E100E0654B1B78DBB2654A137013F0080F32D0634B1B7813F0010F1CD0624A1378DBB261490968CB5CDBB25D490B7016
:400E800014215A4B19701378DBB25D4A137013780133DBB213705B4A137843F0110313700822594B1A708EE01022504B1A70554A137843F0120313700122534B1A70534ACA
:400EC000137843F0100313707DE013F0010F7AD04D4A1278D2B2042A1ED0082A3AD0012A68D1444B1B78DBB2414A5370484A128892B293420CD210223C4B1A703C4B5B78C6
:400F00003D4A13703E4A137004223F4B1A705AE00022364B1A7056E0394B1A783D4B1B889BB29A4212D2334B1B7831494B7010222E4B1A70324A1378DBB2304800684978C7
:400F4000C15413780133DBB213703CE00022274B1A7038E013F0020F1ED1294B1A782C4B1B889BB29A4210D2254A1378DBB223490968CB5CDBB21F490B7004211B4B1970FE
:400F800013780133DBB213701DE0FF22194B1A700422013B1A7016E0FF22164B1A700022013B1A7017490B7803F0EF030B70164B1A7008E00023144A13700F4A1370104A30
:400FC00013700A4A1370094B1B7813F0200F0CD00C4A137803F0EF03137000220A4B1A700A4A137803F0EF0313707047D74900406281FF1FD8490040C581FF1FBC81FF1FD9
:40100000C681FF1FB881FF1FC481FF1FD6490040C281FF1FC081FF1F08B5FFF7A5FC094A137843F020031370023A137843F0100313700432137843F010031370FFF798FCC3
:4010400008BD00BF99640040014B1878704700BF67640040014B1878704700BF6B64004008B501E00A4B1B780A4B1B7813F0080FF8D1FFF779FC084B1A7842F003021A708F
:401080001A7802F0FC021A70FFF772FC08BD00BF5A6400406B6400409A64004008B50722074B1A70FFF7DCFFFFF7CEFFFFF7D2FF0022044B1A70082204331A7008BD00BF6A
:4010C000896400408764004008B5054B1B7823B9FFF7E4FF0122024B1A70FFF79DFF08BD6481FF1F054A137843F0080313701032137843F008031370704700BFA843004025
:40110000054B1A7802F0FD021A701A7800F0020010431870704700BF2C580040014B1870704700BF835B0040064B1B78C3F3810303F19243063393F83831DBB2024A1370E1
:40114000704700BF2C5800400B46004008B5064B1A7802F0F3021A701A7800F00C0010431870FFF7E1FF08BD2C58004010B50024054B1C7001331C702046FFF7E7FF20469E
:40118000FFF7BEFF10BD00BF2C58004008B5074B1B7823B9FFF7EAFF0122044B1A70FFF7A1FF6420FFF7BAFF08BD00BF6581FF1F054A137843F0020313701032137843F0ED
:4011C00002031370704700BFA8430040054B1A7802F0FD021A701A7800F0020010431870704700BF24580040014B1870704700BF815B0040064B1B78C3F3810303F192438B
:40120000063393F83031DBB2024A1370704700BF245800400946004008B5064B1A7802F0F3021A701A7800F00C0010431870FFF7E1FF08BD2458004010B50024054B1C70D6
:4012400001331C702046FFF7E7FF2046FFF7BEFF10BD00BF2458004008B5074B1B7823B9FFF7EAFF0122044B1A70FFF7A1FF6420FFF7BAFF08BD00BF6681FF1F054A137886
:4012800043F0010313701032137843F001031370704700BFA8430040054B1A7802F0FD021A701A7800F0020010431870704700BF20580040014B1870704700BF805B0040FD
:4012C000064B1B78C3F3810303F19243063393F82031DBB2024A1370704700BF205800400846004008B5064B1A7802F0F3021A701A7800F00C0010431870FFF7E1FF08BDC5
:401300002058004010B50024054B1C7001331C702046FFF7E7FF2046FFF7BEFF10BD00BF2058004008B5074B1B7823B9FFF7EAFF0122044B1A70FFF7A1FF6420FFF7BAFFAF
:4013400008BD00BF6781FF1F054A137843F0040313701032137843F004031370704700BFA8430040054B1A7802F0FD021A701A7800F0020010431870704700BF285800402F
:40138000014B1870704700BF825B0040064B1B78C3F3810303F19243063393F82831DBB2024A1370704700BF285800400A46004008B5064B1A7802F0F3021A701A7800F00D
:4013C0000C0010431870FFF7E1FF08BD2858004010B50024054B1C7001331C702046FFF7E7FF2046FFF7BEFF10BD00BF2858004008B5074B1B7823B9FFF7EAFF0122044BB0
:401400001A70FFF7A1FF6420FFF7BAFF08BD00BF6881FF1F084A137843F0020313701032137843F00203137002F65932137843F001031370704700BFA3430040014B188066
:40144000704700BF104F0040014B1880704700BF124F0040014B1870704700BF0F4F004008B51A4A137843F0020313700232137803F08F0343F010031370154B1A7802F01C
:40148000CF021A701A7842F030021A701A7802F0F0021A701A7842F00F021A704FF47A70FFF7CCFF4FF4FA70FFF7CEFF0020FFF7D1FF084A137843F00203137002F66A3282
:4014C000137843F00103137008BD00BF0C4F0040174F0040A343004008B5054B1B7823B9FFF7BEFF0122024B1A70FFF793FF08BD6981FF1F084A137843F001031370103265
:40150000137843F00103137002F64D32137843F001031370704700BFA3430040014B1880704700BF044F0040014B1880704700BF064F0040014B1870704700BF034F004056
:4015400008B5194A137843F0020313700232137803F08F0343F010031370144B1A7802F0CF021A701A7842F030021A701A7802F0F0021A701A7842F00F021A706420FFF761
:40158000CDFF6420FFF7D0FF0020FFF7D3FF084A137843F00103137002F65E32137843F00103137008BD00BF004F00400B4F0040A343004008B5054B1B7823B9FFF7C0FFC6
:4015C0000122024B1A70FFF795FF08BD6A81FF1FF0B583B086460F4616461D460B4C08232370002200920192184671463A46FFF731FA207831462A46FFF706FA207802219F
:40160000FFF7F0F9207803B0F0BD00BF2481FF1FF0B583B086460F4616461D460B4C09232370002200920192184671463A46FFF711FA207831462A46FFF7E6F92078022197
:40164000FFF7D0F9207803B0F0BD00BF2581FF1F08B50A2813D00C2802D0082809D104E04FF400624FF480510DE080224FF4807109E00020FFF74EFA0022114603E04FF408
:4016800000724FF480610020094B188042F2107303FB01F303F6C413064981FB0301DB17C3EBE12304490B6092B2044B1A8008BDD081FF1FAD8BDB68CC81FF1FC881FF1F36
:4016C00038B5FFF751F905461E4A137843F0020313701032137843F002031370193A137843F0040313701032137843F00403137002F5AA521932137843F00303137004246A
:40170000114B1C70013B1A7802F0BF021A701A7842F003021A700822053B1A700222A3F59753123B1A70094A137843F0080313700A20FFF707FA064B1C602846FFF718F9F0
:4017400038BD00BFAB4300400E5900402F5B004080E200E010B504460A280DD00C2802D0082804D101E0C42207E0442205E00020FFF7D0F9C42200E08422034B1A70204629
:40178000FFF766FF10BD00BF0A59004008B5102000F006F902200721FFF7F2F902200749FFF7DAF9064A137843F0060313700C20FFF7D0FF0022034B1A8008BDF5170000F7
:4017C00009590040D281FF1F08B5054B1B7823B9FFF7DCFF0122024B1A70FFF771FF08BD6B81FF1F024A137843F001031370704708590040704700BF08B50A2813D00C28F5
:4018000002D0082809D104E04FF400624FF480510DE080224FF4807109E00020FFF77AF90022114603E04FF400724FF480610020094B188042F2107303FB01F303F6C41340
:40184000064981FB0301DB17C3EBE12304490B6092B2044B1A8008BDD481FF1FAD8BDB68DC81FF1FD881FF1F38B5FFF77DF804461E4A137843F0010313701032137843F01C
:4018800001031370193A137843F0020313701032137843F00203137002F5AA521132137843F0030313700422114B1A70013B1A7802F0BF021A701A7842F003021A7008226F
:4018C000053B1A700225A3F597530C3B1D70094A137843F0080313700A20FFF733F9064B1D602046FFF744F838BD00BFAB43004006590040275B004080E200E010B50446BC
:401900000A280DD00C2802D0082804D101E0C42207E0442205E00020FFF7FCF8C42200E08422034B1A702046FFF766FF10BD00BF0259004008B5102000F03CF80120072104
:40194000FFF71EF901200749FFF706F9064A137843F0060313700C20FFF7D0FF0022034B1A8008BD9D19000001590040D681FF1F08B5054B1B7823B9FFF7DCFF0122024B18
:401980001A70FFF771FF08BD6C81FF1F024A137843F001031370704700590040704700BF034B1A7800F0F80010431870704700BF8A400040034B1A7800F0F800104318704A
:4019C000704700BF86400040014B1B681865704708ED00E04001C0B2014B1870704700BF04E400E01022014B1A60704700E100E01022014B1A60704780E100E010B504465F
:401A0000FFF7F6FF2046FFF7DFFF0720FFF7E2FFFFF7E8FF10BD00BF014B1B685865704708ED00E04001C0B2014B1870704700BF05E400E02022014B1A60704700E100E0BC
:401A40002022014B1A60704780E100E010B50446FFF7F6FF2046FFF7DFFF0720FFF7E2FFFFF7E8FF10BD00BF014B1B689865704708ED00E04001C0B2014B1870704700BF76
:401A800006E400E04022014B1A60704700E100E04022014B1A60704780E100E010B50446FFF7F6FF2046FFF7DFFF0720FFF7E2FFFFF7E8FF10BD00BF014B1B6818647047FF
:401AC00008ED00E04001C0B2014B1870704700BF00E400E00122014B1A60704700E100E00122014B1A60704780E100E010B50446FFF7F6FF2046FFF7DFFF0720FFF7E2FFDC
:401B0000FFF7E8FF10BD00BFF0B583B086460F4616461D460B4C0A232370002200920192184671463A46FEF795FF207831462A46FEF76AFF20780221FEF754FF207803B0DD
:401B4000F0BD00BF2681FF1FF0B583B086460F4616461D460A4C0023237000930193184671463A46FEF776FF207831462A46FEF74BFF20780221FEF735FF207803B0F0BDB0
:401B80002781FF1FF0B583B086460F4616461D460B4C04232370002200920192184671463A46FEF757FF207831462A46FEF72CFF20780221FEF716FF207803B0F0BD00BF54
:401BC0002881FF1FF0B583B086460F4616461D460B4C05232370002200920192184671463A46FEF737FF207831462A46FEF70CFF20780221FEF7F6FE207803B0F0BD00BF73
:401C00002981FF1FF0B583B086460F4616461D460A4C0620207000230093019371463A46FEF718FF207831462A46FEF7EDFE20780221FEF7D7FE207803B0F0BD2A81FF1FE6
:401C4000F0B583B086460F4616461D460A4C0720207000230093019371463A46FEF7FAFE207831462A46FEF7CFFE20780221FEF7B9FE207803B0F0BD2B81FF1F0E4B70B549
:401C80001E460E4C0025E41AA410A54204D056F8253098470135F8E700F06AFB084B094C1E46E41AA4100025A54204D056F8253098470135F8E770BD7C2300007C23000048
:401CC0007C2300008423000010B5431E0A44914204D011F8014B03F8014FF8E710BD03460244934202D003F8011BFAE77047000000000000C84900401900004F0040180041
:401D000040510040300000000140001000140140000800400140000A004C0140000200500140200010510140800700480600000021F8050144F80B4067F81B8081F8050193
:401D4000A6F81901C2F807018561922109F9290121F9050188A2A2210000000000000000000000000000000000000000000000000000000000000000000000000000000017
:401D80000000000000000000000000000000000000000000000000000000000000000000000000000000000000000000000000000000000000000000000000000000000023
:401DC00000000000000000000000000000000000000000000000000000000000000000000000000000000000000000000000000000000000000000000000000000000000E3
:401E0000000000000000000000000000000000000000000000000000000000000000000000000000000000000000000000000000180C00000000000000000000B1180000B5
:401E4000990C0000990C000000000000000000000000000000000000000000000000000000000000000000000000000000000000640A0000382D0000FE770000BC02010011
:401E8000A2DE01000B11030065900400C6430600610508009FA70900F8FB0A0057DA0B00A6270C0057DA0B00F8FB0A009FA7090061050800C6430600659004000B1103008E
:401EC000A2DE0100BC020100FE770000382D0000640A00004F8A0000AEC9000083440100D9FB010084EA020043050400803B0500B678060047A6070098AD08003F7A0900BA
:401F000003FC090078280A0003FC09003F7A090098AD080047A60700B6780600803B05004305040084EA0200D9FB010083440100AEC900004F8A0000000000000000000047
:401F40000000000000000000000000000000000000000000000000000000000000000000000000000000000000000000000000000000000000000000000000000000000061
:401F80000000000000000000000000000000000000000000000000000000000000000000000000000000000000000000000000000000000000000000000000000000000021
:401FC00000000000000000000000000000000000000000000000000000000000000000000000000000000000000000000000000000000000000000000000000000000000E1
:4020000000000000000000000000000000000000000000000000000000000000000000000000000000000000000000000000000000000000000000000000000000000000A0
:402040000000000000000000000000000000000000000000000000000000000000000000000000000000000000000000000000000000000000000000000000000000000060
:402080000000000000000000000000000000000000000000000000000000000000000000000000000000000000000000000000000000000000000000000000000000000020
:4020C00000000000000000000000000000000000000000000000000000000000000000000000000000000000000000000000000000000000000000000000000000000000E0
:40210000000000000000000000000000000000000000000000000000000000000000000000000000000000000000000000000000000000000000000000000000000000009F
:40214000000000000000000000000000000000000000000000000000000000000000000000000000000000000000000000000000000000000000000000000000000000005F
:40218000000000000000000000000000000000000000000000000000000000000000000000000000000000000000000000000000000000000000000000000000000000001F
:4021C00000000000000000000000000000000000000000000000000000000000000000000000000000000000000000000000000000000000000000000000000000000000DF
:40220000000000000000000000000000000000000000000000000000000000000000000000000000000000000000000000000000000000000000000000000000000000009E
:40224000000000000000000000000000000000000000000000000000000000000000000000000000000000000000000000000000201300256117802601008026010080269A
:4022800001008026E00E8026C20C8026020080066587186D6409183E00008026032080262102187FE60E8026C80C8026000080066B87186D6A09183E000080260120802643
:4022C0002102187F00000000000000000000000000000000000000000000000000000000000000000000000000000000000000000000000000000000000000000000000024
:40230000000000000000000000000000000000000000000000000000000000000000000000000000000000000000000000000000000000000000000000000000000000009D
:40234000000000000000000000000000000000000000000000000000000000000000000000000000000000000000000000000000F8B500BFF8BC08BC9E4670474D00000091
:402380003D040000F8B500BFF8BC08BC9E46704729000000A82300000881FF1F28000000B000000000000000000000007F800000FF0700000000A08C401901004800000017
:4023C00000A24A04FFFFFFFFFFFFFFFF00000000000000000000000000000000000000000000000000000000000000000000000000000000000000000000000000000000F5
:40240000000000000000000000000000000000000000000000000000000000000000000000000000000000000000000000000000000000000000000000000000000000009C
:40244000000000000000000000000000000000000000000000000000000000000000000000000000000000000000000000000000000000000000000000000000000000005C
:40248000000000000000000000000000000000000000000000000000000000000000000000000000000000000000000000000000000000000000000000000000000000001C
:4024C00000000000000000000000000000000000000000000000000000000000000000000000000000000000000000000000000000000000000000000000000000000000DC
:020000040003F7
:0200000480007A
:4000000001450040044F004006520040025B0040036400400201014006030140080501403C0601403C070140290801403B090140450A0140370B0140030D0140010F01403C
:400040004F1401403A150140501601404917014005190140041A0140051B01401140014017410140184201400F430140064401400D4501400A4601401247014012480140A8
:400080000E490140154C01400B4D014009500140035101407E0201800A360D801636112012201908602461367C4027842F84874789078B788310E20498C09A019B10A880CB
:4000C000AA01B04086018D018F2098C09A019B10E22CE801010102030302060307030A010B010D010E010F021201130116011A031B031C011E021F012203230127032A0332
:400100002B012C012E022F03300337033A023B80580459045C885F3187028A019202930194029702A302A901AA01AE02B001B301B502B602B820BA02BB20BE40BF04D44145
:40014000D804D904DB04DC88DD30DF210120041805020602080909010E910F0410061404154016081701180819A21A441D011E801F022108222023042680270128082902D3
:400180002E5A2F843005350136A038083C103DC03E0559805B28610879087F4084028708960298C09A019B30A101C0F2C2FCC4D3CAF5CCB3CEF2D60ED802DE82E208E410E4
:4001C000E604EE100701130226012C013101320135023E045608580459045B045C305D305F0184028501880189018E028F01910196029C02A802AF02B402B501B601B7029B
:40020000BE50BF10D602D72CD804D904DB24DC80DD80DE08DF0100200144020809080A0211101620178019A01BC01F0420062610278028013201340239543F045D205E80DE
:4002400063806660670469546A0278807A0886408C808F80940495549602970898039C809D80A010A108A240A401A804AA40AD21B010B220C007C205C4A2CA08CC81CE4E55
:40028000D630D831DE0CE410E604EE10021E080109010A080C100E011C011E02240126042E012F013101361F3E403F01400241054220440145CE46FB470D481F49FF4AFFFA
:4002C0004BFF4C224EF04F0C508C51105608580459045A245B045D385F01684069016AC06B019C01A301A402AA01B002B501B601BE01C001C9FFCAFFCBFFCD20CEF0D110C7
:40030000D420D604D804D904DA04DB04DC99DD39DF01E210E301000201500A020D801001110412021610172018011D801F81208026202A402F803A2040254108458048202B
:4003400049804A405128525058205A405C085D09600A65086601678A78808201844087408A208C229B20A202AB20C00BC281C465CA88CE04D01CD208D68CD8FCDE08E0025D
:40038000E230E6108202E201EA80E2040203030104021509170219031B0C1E011F04330135023603370C402349FF4AFF4BFF4C0C4D205110580459045A045C995D095F0196
:4003C000621063016410651180018104820283028502860387048A018B068E018F06920393069601970699029A039B049C019D059E029F02A106A203A603A706A901AA03A1
:40040000AB02AF06B107B603BA80BB02C023CC03CD2FCEFFD110D804D904DA04DC88DD09DF31E210E301E410E5110006040105C807080A020E610F041404151016201701E5
:400440001A021D401F802128228027402DA82E2131283280361837493A013C013D103E403F04412845287F408A808F409005924193849602980499289A019B01A001A2181B
:40048000A780AD01AF10C0FCC2F1C470CAF0CCFECEF1D066DE80E290E608EC10EE0C00090102030904040683070B0A0B0B040E090F0B1040120113031609170218101A01D4
:4004C0001B021C091D021F012020220123032602270B2A092B0E2E092F033203330634803501367C37083AE83B883F10401649FF4AFF4BFF4C0C4D205110580459045A04D8
:400500005C885D095F316210630164106511800184019D019E01A701B401B701C052CC03CD2FCEFFD110D608D804D904DA04DB04DC99DD99DF01E210E301E410E511000659
:400540000419070108800D010E210F0414041682170818041B101E211F142002218024112550268827082B102D282E0A2F923180369837013D203EC13F044004458048017B
:400580004F2058405B107F4083108404870290089240938494109603970898C099209A019B119E08A302A540A780AC08B104B340C0FCC2F1C4F0CAF2CCF8CEF0D014D228BF
:4005C000D60CDE80E004E280E440EA08EC80EE08AE10E004E280E440EA0838203E1058045F011A088604E408EC10EE0C14801B021F0832043408361039083A403F414320C5
:400600004A104B01C420C630CCE0CEF0D010124013201440304034803B023C023D20420895089608974198809C089E40A720AB0AC470CC30CEE0D010E820EC803C204F804B
:40064000510857048340850486088B409508960897439A409C089E08A401A510A720AB20CE20D220D460E230E640E8801B041D0880088F20960897029A409C08A411A508B6
:40068000A724B510B701C630E620108014607F048080C40CDE01080409100E0262026F20811097089820B040C20BD802DA01EA011A104508860297089824A201A602A720E7
:4006C000C608D0010A20478082108E018FA097089820A201A508A720B004B610C208D004E002E208E408EE09232025102710640869108A048F10960897029F20A401A720C2
:40070000AC10B240C8E0D880DA40EA105A808408851088018E4095109C08A401AB01AF20B510D480E610EE301040131014801C021F8037087A087C20820888018F08971895
:400740009820A508AF10C40EC601CC01DE03E201E40278407C808704970898C0AB80AF80B508DC01DE04EC080008010102140A080C080D01110112141B0100BD013F03C0DD
:40078000AAAA200000000000000000000000FD00300000063600360000360000002A0000000000004000000000000000C3000000000000000000F000D0202000202006007D
:4007C000000808000800A00086011801000A00000001000000040000000500000008000000090000000000000000000000000000000000000000000000000000000000007C
:4008000000000000000000000000000000000000000000000000000000000000000000000000000000000000000000000000000000000000000000000000000000000000B8
:400840000000000000000000000000000000000000000000000000000000000000000000000000000000000000000000000000000000000000000000000000000000000078
:400880000000000000000000000000000000000000000000000000000000000000000000000000000000000000000000000000000000000000000000000000000000000038
:4008C00000000000000000000000000000000000000000000000000000000000000000000000000000000000000000000000000000000000000000000000000000000000F8
:0200000490006A
:0400000000004005B7
:0200000490105A
:04000000BC90ACAF55
:0200000490303A
:02000000857FFA
:0200000490402A
:4000000000000000000000000000000000000000000000000000000000000000000000000000000000000000000000000000000000000000000000000000000000000000C0
:400040000000000000000000000000000000000000000000000000000000000000000000000000000000000000000000000000000000000000000000000000000000000080
:400080000000000000000000000000000000000000000000000000000000000000000000000000000000000000000000000000000000000000000000000000000000000040
:4000C0000000000000000000000000000000000000000000000000000000000000000000000000000000000000000000000000000000000000000000000000000000000000
:0200000490501A
:0C00000000012E16106900012E2395E867
:00000001FF