:4000000000800020110000009D0300009D03000008B5044B1A6803F53F5302331A6000F0BFF900BFFA46004010B5054C237833B9044B13B10448AFF300800123237010BD7F
:400040003081FF1F00000000CC1B0000084B10B51BB108480849AFF300800848036803B910BD074B002BFBD0BDE81040184700BF00000000CC1B00003481FF1F0881FF1F23
:4000800000000000034B1A8E034B110A19705A70704700BF6C81FF1F4C81FF1F034B1A8E034B110A9970DA70704700BFA081FF1F4C81FF1F08B5024B187901F017F908BD6F
:4000C0004C81FF1F08B500F043FE04200146204A00F04CFE01F024FA01F0B4F901F03EF901F0D6F801F06EF801F006F87F2001F0FDF87F2001F094F87F2001F02BF87F204B
:4001000000F0C2FF01F0EAFB01F014FB01F0F4FB01F01EFB00F07AFD0120014600F0A8FD0420012100F0A4FD0020012100F07CFD0220012100F09CFD0820012100F098FDCC
:400140000120014600F070FD00F074FF08BD00BF4C81FF1F08B5064801F006FC054801F02BFC054801F050FC00F022FF08BD00BF850000009D000000B500000038B5022080
:4001800001214FF4804241F6FF7301F0D7F9054600F038FC044632210246062300F04CFC20464CF2A871064A92B200F059FC2846214600F0F7FB2846012100F0ABFB38BD91
:4001C0006C81FF1F38B5022001214FF4804241F6FF7301F0D3F9054600F014FC044632210246062300F028FC20464CF2AC71064A92B200F035FC2846214600F0D3FB284674
:40020000012100F087FB38BDA081FF1F38B5012001464FF4804241F6FF7301F003FC054600F0F0FB044601210246042300F004FC204646F25441064A92B200F011FC2846E0
:40024000214600F0AFFB2846012100F063FB38BD5081FF1F38B5022001214FF48042134601F0FEFB054600F0CDFB044602210246042300F0E1FB204645F6A03146F60822BF
:4002800000F0EEFB2846214600F08CFB2846012100F040FB38BD00BF38B5022001214FF48042134601F0FCFB054600F0ABFB044602210246042300F0BFFB204645F6A23158
:4002C00046F60C0200F0CCFB2846214600F06AFB2846012100F01EFB38BD00BF38B5022001214FF48042134601F0FAFB054600F089FB044602210246002300F09DFB20468C
:4003000046F628214CF2A07200F0AAFB2846214600F048FB2846012100F0FCFA38BD00BF38B5022001214FF48042134601F0F6FB054600F067FB044602210246002300F04B
:400340007BFB204646F62C014CF2A47200F088FB2846214600F026FB2846012100F0DAFA38BD00BF08B5FFF775FFFFF795FFFFF7B5FFFFF7D5FFFFF701FFFFF723FFFFF75A
:4003800045FF08BD08B562B6FFF79CFEFFF7EAFFFFF7E0FE012000F073FBFBE7FEE700BF08B5104E104D16E029686B68AC68002204E051F8040B43F8040B0432A242F8D1A6
:4003C000E868002203E0002143F8041B04328242F9D11035013E002EE6D101F0BDFBFFF7D1FFFEE7010000006422000008B5134A134B1A60134A136843F40073136000231B
:400400000AE0032B03D8104A52F8231000E00F490F4A42F8231001332F2BF2D90D4B1A780D4B1A700A4A0D4B1A6000F069F900F057FA00220A4B1A6008BD00BF0004FA059E
:400440000CED00E014ED00E0000000009D0300000080FF1FBC7600400481FF1F08ED00E00081FF1FFEE700BFF0B40022174611E050F82760F3B226F0FF0608E001EB420599
:4004800011F812406D78A5550132013BDBB2002BF4D10137242FEBD9F0BC704708B50A46002101F08AFB08BD2DE9F041414B1B78DBB2414E3478E4B2404F3D78EDB203F061
:4004C00007013F4A11701B090132137044F00303337045F003033B704AF24002394B1A80F02211331A704FF0060E103383F800E04023354A13704FF48171BF3211800E2195
:4005000002F5CE621170953213700232137006321370023213709021F532117001222B490A7002310A700A310B7004310A7080200431087008310B7002200631087004212D
:40054000DFF89CC08CF800100CF1590C8CF800200CF1080C8CF800204FF0100CDFF8848088F800C008F1080888F800C0DFF878C08CF80030164B18704433187004331970CF
:40058000082004331870043319701249143319601149043319600D3383F800E007331A700A2000F083FA3D70347044220B4B1A70BDE8F081CF010049F8460040F9460040B6
:4005C0006E5800400C5100403D510040045A0040DC5A00402201200407010401765800402A5A0040905A0040DB5A004008B501F0D9FA08BD38B50024334B1C805022023399
:400600001A70032202331A80182330490B7002310A802F4A1370232102321180023213702C482D490422FFF7E1FF06222B4B1A705222A3F580731A70294B1B78DBB2294AF6
:40064000137040F62A52284B1A8042F25122023B1A8019250CE0254B1B7803F0010343EA440404F003044FF4F07000F029F9013D0DB1032CEFD115B90320FFF7F3FE1C4A48
:400680004FF48073138007231370002319490B704820023108701370053213700222164B1A7004220A331A70144A137843F00F031370013A137843F001031370013A137881
:4006C00043F08003137038BD80400040864000408A4000400041004028070048004300400F010049A14600402242004025420040044000400640004001400040A2430040C6
:4007000038B572B66122494B1A70FFF773FF484A137843F00403137000240CE0454963001A1952000A4423445B00C8589188FFF7B5FE0134E4B2072CF0D94FF090403E49EC
:40074000FFF792FE0A253D4B1D703D480421FFF7A5FE3C480421FFF7A1FE3B480421FFF79DFE3A483A490422FFF740FF39483A490422FFF73BFF39480421FFF78FFE384892
:400780000421FFF78BFE374837490422FFF72EFF364837490422FFF729FF364A137843F0020313701032137843F002031370324C237843F040032370A2F58632513A137836
:4007C00043F0100313702D482D490822FFF70EFF2C482D492A46FFF709FF2C482C490522FFF704FF2B482C492A46FFF7FFFE2B482B490822FFF7FAFE2A482B490822FFF767
:40080000F5FE2A482A490822FFF7F0FE6422294B1A70294A137843F008031370FFF744FE264821460E22FFF7E1FE38BD00480040E8460040D01B00009400004883580040B0
:40084000007600400876004010760040187600402C070048207600403007004828760040307600404076004034070048487600403807004803500140A04300400251004094
:40088000E8060048C0510040F0060048CB510040FC060048F051004004070048125100401007004822510040180700483251004020070048DB16014022430040B0430040A1
:4008C0000230800803D000BF01380046FCD17047EFF3108072B6704780F31088704700BF0B4A7F2313708021517007E0DA0002F1804202F5F042013BDBB21370002BF5D11F
:40090000DB0003F1804303F5F04300221A7070470C81FF1F172815D831B103010A495A5C42F020025A5405E0030107495A5C02F0DF025A540001044A835C43F00103835423
:4009400000207047012070471070004017280BD80001064A835C03F0F10301F0070143EA4101815400207047012070471070004041F6FF73994201D14FF4005141F6FF7390
:400980009A4201D14FF40052172808D8C00000F1804000F5EC408180C280002070470120704700BF172805D8034B03EB0010417200207047012070471070004017281BD8D6
:4009C00010B4C00000F1804404F5EC44D201D2B201F07F01114321709DF804201201D2B203F00F03134363709DF8083003F00F03A3700020E07001E0012070475DF8044BB8
:400A0000704700BF10B5FFF763FF0A4B5B78182B0BD9084A1478013B5370E30003F1804303F5F0431B78137000E0FF24FFF754FF204610BD0C81FF1F10F0800F0CD111F481
:400A4000704F0BD1C00000F1804000F5F04001808270C37000207047012070470120704710F0800F08D1C00000F1804000F5F0408180C280002070470120704701BE7047B2
:400A800010B5044605E0084B1868FFF719FFA4F50044B4F5004FF6D8034B586800FB04F0FFF70EFF10BD00BF1481FF1F08B5034B1B7A03FB00F0FFF703FF08BD1481FF1F81
:400AC00070B504460E46074B1D681F2802D90020FFF7D4FF04F01F04103455F8240045F8246070BD08ED00E038B504460D46072902D90020FFF7C2FF1F2C02D90020FFF71A
:400B0000BDFF04F01F0000F1604000F564406D01EDB2057038BD00BFF8B5244A137843F01003137002F50342DA32137803F0FE0313703F2308321370043213701C4D4FF449
:400B400080741C482946224601F02CF81A482946224601F027F819481949224601F022F84FF4007417481849224601F01BF817481749224601F016F8164C174E04F14007A6
:400B8000354620686168A268E3680FC510342E46BC42F5D10020114B187000F079F8052000F07EF8F8220E4B1A70F8BDA64300404021000000C4004000C5004000C6004089
:400BC000001C000000C00040401F000000C20040401D0000001D000000C700408CC7004084C70040084A137843F0100313701032137843F01003137002F50342CA321378DA
:400C000043F0010313707047A643004008B5054B1B7823B9FFF780FF0122024B1A70FFF7E1FF08BD5C81FF1F68B9104B1A7802F0CC021A701A780A431A701A780901C9B2C1
:400C400011431970704701280ED1084B1A7802F033021A7018788A00D2B202431A701A788901C9B211431970704700BFB0C70040012904D1054B1A7810431870704721B9E7
:400C8000024A137823EA000010707047B4C7004000F01F00014B1870704700BF98C7004000F00F00014B1870704700BF9CC7004010B50122124B1A7081220E3B1A7008220B
:400CC00002331A70042211331A70002401331C704FF400420B4B1A600F200721FFF704FF0F200949FFF7ECFE084B1C70084B1C70084B1C70084B1C70084B1C8010BD00BF60
:400D0000D649004080E100E0BD0D0000E081FF1FD481FF1FE181FF1FE281FF1FDC81FF1F08B5FFF7D5FD084A137843F0040313701032137843F004031370FFF7CDFD4FF42F
:400D40000042024B1A6008BDA543004000E100E008B5054B1B7823B9FFF7AAFF0122024B1A70FFF7DDFF08BD5D81FF1F10B44FF400440B4B1C6032B113460A4A13600A4B9F
:400D800018800A4B19800023094A1370094A13704FF40042084B1A605DF8044B704700BF80E100E0D881FF1FDE81FF1FDC81FF1FE181FF1FE281FF1F00E100E0654B1B78BD
:400DC000DBB2654A137013F0080F32D0634B1B7813F0010F1CD0624A1378DBB261490968CB5CDBB25D490B7014215A4B19701378DBB25D4A137013780133DBB213705B4A0B
:400E0000137843F0110313700822594B1A708EE01022504B1A70554A137843F0120313700122534B1A70534A137843F0100313707DE013F0010F7AD04D4A1278D2B2042A82
:400E40001ED0082A3AD0012A68D1444B1B78DBB2414A5370484A128892B293420CD210223C4B1A703C4B5B783D4A13703E4A137004223F4B1A705AE00022364B1A7056E03B
:400E8000394B1A783D4B1B889BB29A4212D2334B1B7831494B7010222E4B1A70324A1378DBB2304800684978C15413780133DBB213703CE00022274B1A7038E013F0020FEA
:400EC0001ED1294B1A782C4B1B889BB29A4210D2254A1378DBB223490968CB5CDBB21F490B7004211B4B197013780133DBB213701DE0FF22194B1A700422013B1A7016E00C
:400F0000FF22164B1A700022013B1A7017490B7803F0EF030B70164B1A7008E00023144A13700F4A1370104A13700A4A1370094B1B7813F0200F0CD00C4A137803F0EF0358
:400F4000137000220A4B1A700A4A137803F0EF0313707047D74900405E81FF1FD8490040E181FF1FD881FF1FE281FF1FD481FF1FE081FF1FD6490040DE81FF1FDC81FF1F70
:400F800008B5FFF7A5FC094A137843F020031370033A137843F010031370A2F58072137843F010031370FFF797FC08BD97650040704700BF014B1878704700BF646500405D
:400FC000014B1878704700BF6464004008B501E00A4B1B780A4B1B7813F0080FF8D1FFF777FC084B1A7842F003021A701A7802F0FC021A70FFF770FC08BD00BF546400404D
:40100000646400409464004008B50722074B1A70FFF7DCFFFFF7CEFFFFF7D2FF0022044B1A700822A3F580731A7008BD876500408465004008B5054B1B7823B9FFF7E4FFAA
:401040000122024B1A70FFF79BFF08BD6081FF1F054A137843F0080313701032137843F008031370704700BFA8430040054B1A7802F0FD021A701A7800F00200104318709C
:40108000704700BF2C580040014B1870704700BF835B0040064B1B78C3F3810303F19243063393F83831DBB2024A1370704700BF2C5800400B46004008B5064B1A7802F0C1
:4010C000F3021A701A7800F00C0010431870FFF7E1FF08BD2C58004010B50024054B1C7001331C702046FFF7E7FF2046FFF7BEFF10BD00BF2C58004008B5074B1B7823B9FB
:40110000FFF7EAFF0122044B1A70FFF7A1FF6420FFF7BAFF08BD00BF6181FF1F054A137843F0020313701032137843F002031370704700BFA8430040054B1A7802F0FD02F6
:401140001A701A7800F0020010431870704700BF24580040014B1870704700BF815B0040064B1B78C3F3810303F19243063393F83031DBB2024A1370704700BF2458004054
:401180000946004008B5064B1A7802F0F3021A701A7800F00C0010431870FFF7E1FF08BD2458004010B50024054B1C7001331C702046FFF7E7FF2046FFF7BEFF10BD00BF63
:4011C0002458004008B5074B1B7823B9FFF7EAFF0122044B1A70FFF7A1FF6420FFF7BAFF08BD00BF6281FF1F054A137843F0010313701032137843F001031370704700BFFB
:40120000A8430040054B1A7802F0FD021A701A7800F0020010431870704700BF20580040014B1870704700BF805B0040064B1B78C3F3810303F19243063393F82031DBB2AB
:40124000024A1370704700BF205800400846004008B5064B1A7802F0F3021A701A7800F00C0010431870FFF7E1FF08BD2058004010B50024054B1C7001331C702046FFF735
:40128000E7FF2046FFF7BEFF10BD00BF2058004008B5074B1B7823B9FFF7EAFF0122044B1A70FFF7A1FF6420FFF7BAFF08BD00BF6381FF1F054A137843F00403137010326A
:4012C000137843F004031370704700BFA8430040054B1A7802F0FD021A701A7800F0020010431870704700BF28580040014B1870704700BF825B0040064B1B78C3F381038E
:4013000003F19243063393F82831DBB2024A1370704700BF285800400A46004008B5064B1A7802F0F3021A701A7800F00C0010431870FFF7E1FF08BD2858004010B50024E7
:40134000054B1C7001331C702046FFF7E7FF2046FFF7BEFF10BD00BF2858004008B5074B1B7823B9FFF7EAFF0122044B1A70FFF7A1FF6420FFF7BAFF08BD00BF6481FF1F81
:40138000084A137843F0020313701032137843F00203137002F65932137843F001031370704700BFA3430040014B1880704700BF104F0040014B1880704700BF124F0040B5
:4013C000014B1870704700BF0F4F004008B51A4A137843F0020313700232137803F08F0343F010031370154B1A7802F0CF021A701A7842F030021A701A7802F0F0021A70D2
:401400001A7842F00F021A704FF47A70FFF7CCFF4FF4FA70FFF7CEFF0020FFF7D1FF084A137843F00203137002F66A32137843F00103137008BD00BF0C4F0040174F0040D3
:40144000A343004008B5054B1B7823B9FFF7BEFF0122024B1A70FFF793FF08BD6581FF1F084A137843F0010313701032137843F00103137002F64D32137843F001031370F2
:40148000704700BFA3430040014B1880704700BF044F0040014B1880704700BF064F0040014B1870704700BF034F004008B5194A137843F0020313700232137803F08F032E
:4014C00043F010031370144B1A7802F0CF021A701A7842F030021A701A7802F0F0021A701A7842F00F021A706420FFF7CDFF6420FFF7D0FF0020FFF7D3FF084A137843F07F
:401500000103137002F65E32137843F00103137008BD00BF004F00400B4F0040A343004008B5054B1B7823B9FFF7C0FF0122024B1A70FFF795FF08BD6681FF1FF0B583B02D
:4015400086460F4616461D460B4C08232370002200920192184671463A46FFF72FFA207831462A46FFF704FA20780221FFF7EEF9207803B0F0BD00BF2481FF1FF0B583B01E
:4015800086460F4616461D460B4C09232370002200920192184671463A46FFF70FFA207831462A46FFF7E4F920780221FFF7CEF9207803B0F0BD00BF2581FF1F08B50A2826
:4015C00013D00C2802D0082809D104E04FF400624FF480510DE080224FF4807109E00020FFF74CFA0022114603E04FF400724FF480610020094B188042F2107303FB01F369
:4016000003F6C413064981FB0301DB17C3EBE12304490B6092B2044B1A8008BDEC81FF1FAD8BDB68E881FF1FE481FF1F38B5FFF74FF905461E4A137843F002031370103247
:40164000137843F002031370193A137843F0040313701032137843F00403137002F5AA521932137843F0030313700424114B1C70013B1A7802F0BF021A701A7842F0030296
:401680001A700822053B1A700222A3F59753123B1A70094A137843F0080313700A20FFF705FA064B1C602846FFF716F938BD00BFAB4300400E5900402F5B004080E200E09C
:4016C00010B504460A280DD00C2802D0082804D101E0C42207E0442205E00020FFF7CEF9C42200E08422034B1A702046FFF766FF10BD00BF0A59004008B5102000F006F9DB
:4017000002200721FFF7F0F902200749FFF7D8F9064A137843F0060313700C20FFF7D0FF0022034B1A8008BD6117000009590040EE81FF1F08B5054B1B7823B9FFF7DCFFF9
:401740000122024B1A70FFF771FF08BD6781FF1F024A137843F001031370704708590040704700BF08B50A2813D00C2802D0082809D104E04FF400624FF480510DE08022D1
:401780004FF4807109E00020FFF778F90022114603E04FF400724FF480610020094B188042F2107303FB01F303F6C413064981FB0301DB17C3EBE12304490B6092B2044B0D
:4017C0001A8008BDF081FF1FAD8BDB68F881FF1FF481FF1F38B5FFF77BF804461E4A137843F0010313701032137843F001031370193A137843F0020313701032137843F0E9
:401800000203137002F5AA521132137843F0030313700422114B1A70013B1A7802F0BF021A701A7842F003021A700822053B1A700225A3F597530C3B1D70094A137843F0B7
:40184000080313700A20FFF731F9064B1D602046FFF742F838BD00BFAB43004006590040275B004080E200E010B504460A280DD00C2802D0082804D101E0C42207E044226A
:4018800005E00020FFF7FAF8C42200E08422034B1A702046FFF766FF10BD00BF0259004008B5102000F03CF801200721FFF71CF901200749FFF704F9064A137843F006032F
:4018C00013700C20FFF7D0FF0022034B1A8008BD0919000001590040F281FF1F08B5054B1B7823B9FFF7DCFF0122024B1A70FFF771FF08BD6881FF1F024A137843F00103D1
:401900001370704700590040704700BF034B1A7800F0F80010431870704700BF8A400040034B1A7800F0F80010431870704700BF86400040014B1B681865704708ED00E044
:401940004001C0B2014B1870704700BF04E400E01022014B1A60704700E100E01022014B1A60704780E100E010B50446FFF7F6FF2046FFF7DFFF0720FFF7E2FFFFF7E8FF33
:4019800010BD00BF014B1B685865704708ED00E04001C0B2014B1870704700BF05E400E02022014B1A60704700E100E02022014B1A60704780E100E010B50446FFF7F6FF43
:4019C0002046FFF7DFFF0720FFF7E2FFFFF7E8FF10BD00BF014B1B681864704708ED00E04001C0B2014B1870704700BF00E400E00122014B1A60704700E100E00122014BDE
:401A00001A60704780E100E010B50446FFF7F6FF2046FFF7DFFF0720FFF7E2FFFFF7E8FF10BD00BFF0B583B086460F4616461D460A4C0023237000930193184671463A4619
:401A4000FEF7BCFF207831462A46FEF791FF20780221FEF77BFF207803B0F0BD2681FF1FF0B583B086460F4616461D460B4C03232370002200920192184671463A46FEF732
:401A80009DFF207831462A46FEF772FF20780221FEF75CFF207803B0F0BD00BF2781FF1FF0B583B086460F4616461D460B4C04232370002200920192184671463A46FEF783
:401AC0007DFF207831462A46FEF752FF20780221FEF73CFF207803B0F0BD00BF2881FF1FF0B583B086460F4616461D460A4C0520207000230093019371463A46FEF75EFFA6
:401B0000207831462A46FEF733FF20780221FEF71DFF207803B0F0BD2981FF1FF0B583B086460F4616461D460A4C0620207000230093019371463A46FEF740FF20783146EB
:401B40002A46FEF715FF20780221FEF7FFFE207803B0F0BD2A81FF1F0E4B70B51E460E4C0025E41AA410A54204D056F8253098470135F8E700F064FB084B094C1E46E41AC0
:401B8000A4100025A54204D056F8253098470135F8E770BD4C2200004C2200004C2200005422000010B5431E0A44914204D011F8014B03F8014FF8E710BD03460244934242
:401BC00002D003F8011BFAE77047000000000000C84900401900004F0040180040510040300000000140001000140140000800400140000A004C01400002005001402000D9
:401C000021F8050144F80B4067F81B8081F80501A6F81901C2F807018561922109F9290121F9050188A2A22100000000000000000000000000000000000000000000000039
:401C40000000000000000000000000000000000000000000000000000000000000000000000000000000000000000000000000000000000000000000000000000000000064
:401C80000000000000000000000000000000000000000000000000000000000000000000000000000000000000000000000000000000000000000000000000000000000024
:401CC00000000000000000000000000000000000000000000000000000000000000000000000000000000000000000000000000000000000000000000000000000000000E4
:401D0000180C00000000000000000000B1180000990C0000990C0000000000000000000000000000000000000000000000000000000000000000000000000000000000006C
:401D4000640A0000382D0000FE770000BC020100A2DE01000B11030065900400C6430600610508009FA70900F8FB0A0057DA0B00A6270C0057DA0B00F8FB0A009FA709005D
:401D800061050800C6430600659004000B110300A2DE0100BC020100FE770000382D0000640A00004F8A0000AEC9000083440100D9FB010084EA020043050400803B05009D
:401DC000B678060047A6070098AD08003F7A090003FC090078280A0003FC09003F7A090098AD080047A60700B6780600803B05004305040084EA0200D9FB010083440100A2
:401E0000AEC900004F8A0000000000000000000000000000000000000000000000000000000000000000000000000000000000000000000000000000000000000000000052
:401E40000000000000000000000000000000000000000000000000000000000000000000000000000000000000000000000000000000000000000000000000000000000062
:401E80000000000000000000000000000000000000000000000000000000000000000000000000000000000000000000000000000000000000000000000000000000000022
:401EC00000000000000000000000000000000000000000000000000000000000000000000000000000000000000000000000000000000000000000000000000000000000E2
:401F000000000000000000000000000000000000000000000000000000000000000000000000000000000000000000000000000000000000000000000000000000000000A1
:401F40000000000000000000000000000000000000000000000000000000000000000000000000000000000000000000000000000000000000000000000000000000000061
:401F80000000000000000000000000000000000000000000000000000000000000000000000000000000000000000000000000000000000000000000000000000000000021
:401FC00000000000000000000000000000000000000000000000000000000000000000000000000000000000000000000000000000000000000000000000000000000000E1
:4020000000000000000000000000000000000000000000000000000000000000000000000000000000000000000000000000000000000000000000000000000000000000A0
:402040000000000000000000000000000000000000000000000000000000000000000000000000000000000000000000000000000000000000000000000000000000000060
:402080000000000000000000000000000000000000000000000000000000000000000000000000000000000000000000000000000000000000000000000000000000000020
:4020C00000000000000000000000000000000000000000000000000000000000000000000000000000000000000000000000000000000000000000000000000000000000E0
:40210000000000000000000000000000000000000000000000000000000000000000000000000000000000000000000000000000000000000000000000000000000000009F
:402140002013002561178026010080260100802601008026E00E8026C20C8026020080066587186D6409183E00008026032080262102187FE60E8026C80C8026000080066D
:402180006B87186D6A09183E00008026012080262102187F0000000000000000000000000000000000000000000000000000000000000000000000000000000000000000B8
:4021C00000000000000000000000000000000000000000000000000000000000000000000000000000000000000000000000000000000000000000000000000000000000DF
:40220000000000000000000000000000000000000000000000000000000000000000000000000000000000000000000000000000000000000000000000000000000000009E
:40224000F8B500BFF8BC08BC9E4670474D000000ED030000F8B500BFF8BC08BC9E46704729000000782200000881FF1F28000000D000000000000000000000007F800000C2
:402280007F0300000000A08C401901004800000000A24A04FFFFFFFFFFFFFF00000000000000000000000000000000000000000000000000000000000000000000000000E5
:4022C00000000000000000000000000000000000000000000000000000000000000000000000000000000000000000000000000000000000000000000000000000000000DE
:40230000000000000000000000000000000000000000000000000000000000000000000000000000000000000000000000000000000000000000000000000000000000009D
:40234000000000000000000000000000000000000000000000000000000000000000000000000000000000000000000000000000000000000000000000000000000000005D
:40238000000000000000000000000000000000000000000000000000000000000000000000000000000000000000000000000000000000000000000000000000000000001D
:020000040003F7
:0200000480007A
:4000000001450040044F004006520040025B0040016400400265004002010140050301404704014044050140540601404A0701400408014004090140030B0140010D01401D
:40004000020F0140561401404A150140381601404817014006190140021B014015400140104101400E42014012430140074401400F450140104601400F47014009480140C6
:4000800007490140154C0140064D01400A500140055101407E0201800A1B0D80161B112012201908602461367C4027842F84847884478707E204E60289089A019B08AA010D
:4000C000AF0804010804090116031F0130043202330134013E113F04400341024230440145BF46CD470E481F49FF4AFF4BFF4C224EF04F0C508C51105420560458045904DC
:400100005A245B045C035D385F21684069016AC06B018001820686078A058B018E018F01960797019A079E01A001A206A607A701AA01AB01AE01B101B403B605B808BAA09F
:40014000BB02D608D804D904DB04DC88DD30DF310020010805540780080809100B040C080E020F04150416801750180419081B011C081D541F802108250127802C082D0455
:400180002F143080358436803B103DA03E8040014104432048904C044D20501452805A015D806004620A630266407A207F40866A88108A0193109A019B08A508AF10C0F6C1
:4001C000C2E4C4F0CA60CC48CE34D00ED611D81FDE82E240E602EA08010203080603070A0B0A0D020F08130617071A021B0A1F02230A2603270A2B0A2F04310632023401C2
:40020000350137083A283B223F40402349FF4AFF4BFF4C0C4D2051105608580459045A045B045C885D995F316210630164106511821E83018C108E218F04950997029903D4
:400240009A019B0C9C219E02A220A421A604A821AA08B10CB301B420B502B61FBE50C023CC03CD2FCEFFD110D608D804D904DA04DB04DC90DD39DF01E210E301E410E51182
:400280000002014005040A0A0C10111412801704180119101E201F1420402128251027452C502D012F96312835043601375038403A013C083DA23E0A412943034528599010
:4002C0005C105E40600862407F408CC08E40902092089390940195089604972899249A019B089C089F50A004A101A2A0A380A550A601A720AE04AF40B204C029C243C42E46
:40030000CAF0CCF6CEF9D066D63CD80CDE80E240E410EE0439083F0459045F012420E410EA80EE04E240E602EA08E420E204E6020003020C040906021210130114101901AB
:400340001A0422102601301032013301340C36023E013F04405349FF4AFF4BFF4C0C4D2051105441580459045A045B045C095D395F01621063016410651180028101820421
:4003800083028401860287018A068B038C048D018E028F029206930194029604970398059A029B039E069F01A206A606A703AA06AB03AC06AF03B303B407BA20BB08C053D4
:4003C000CC03CD2FCEFFD110D804D904DA04DC88DD09DF31E210E301E410E511010803800504060A074008010A240C0A0E2A1240130814101511168119881A441BC41E0810
:400400002108250427102A202B042C082E883001321034103504360137403DB83E024220462049804F80580459205A4061087F408002810488048A408E04910192209380C0
:400440009604981199249A4B9B489F10A150A211A504AD84C0FCC2FEC4FCCA70CCF5CEF0D042D218D60ED802DE80E240E804EA01010202010603070209100A010C010D0229
:40048000120213021501160119081A011E011F02220123022601270229042A012C013603371F3A803BC05608580459045B045C885D305F31850289028F0291029202970130
:4004C000A801B202B302B401B701BE10BF04D602D728D804D904DB24DC83DD80DE08DF210504060A074008010C500D010E2011801209131014801621171018081A201B3054
:400500001E022002210425402D012E082F043205341035043601374039543DA83E225D806320640169546A0278807A297F408C04910392089398955C9606985099249A4ADD
:400540009B489F10A110A230A401A540A601A720A810AC80B410B580C0F0C2F8C4F2CAE0CCF3CEFED610D812DE86E480EA0CEE01A810E010E480E804EA08EE01E804EA010F
:4005800014041B023002368037023A403B023D083E8043208002810482208702C480C610CCE0CEF0D010E220E6401240144030403B043E2297029A209EC0A680A720AB020A
:4005C000AC04C430CC10CEE0E8303E105108570486808E808F2097069A409E82A680A720CE20D460E2401B041D08620166018E028F2096109E02A508A704AB01AE40AF04F0
:40060000C630D8C0E810EA40EE20122015017E0880048740C40CDE0108400B100D8062026C048A02910194049740A220A608C20BD802DA01E4041A201B04462085808E10A7
:400640009101940C97409840A180A220A608AF10C608D001E2020B4047808F809101940C97409E20A220A608AB04B040C208D004E408EA01232025202710892096109F208D
:40068000AA01C8E0EA205A208E10AA10AB10D480E820EA801040132014801C0437087A207D018A208C049101940C9E20A220AA28AD01C40EC601CC01DE03E008E4017840C4
:4006C0007C8098C0AB28DC01DE040008010102140A080B011008110112141A081B0100BD010F03C010AA112A000000000000FD00300000063600360000360000002A0000C4
:40070000000000004000000000000000C3000000000000000000F000D020200020200600000808000800A00086011801000300000004000000080000000900000000000000
:400740000000000000000000000000000000000000000000000000000000000000000000000000000000000000000000000000000000000000000000000000000000000079
:400780000000000000000000000000000000000000000000000000000000000000000000000000000000000000000000000000000000000000000000000000000000000039
:4007C00000000000000000000000000000000000000000000000000000000000000000000000000000000000000000000000000000000000000000000000000000000000F9
:4008000000000000000000000000000000000000000000000000000000000000000000000000000000000000000000000000000000000000000000000000000000000000B8
:0200000490006A
:0400000000004005B7
:0200000490105A
:04000000BC90ACAF55
:0200000490303A
:02000000CE9799
:0200000490402A
:4000000000000000000000000000000000000000000000000000000000000000000000000000000000000000000000000000000000000000000000000000000000000000C0
:400040000000000000000000000000000000000000000000000000000000000000000000000000000000000000000000000000000000000000000000000000000000000080
:400080000000000000000000000000000000000000000000000000000000000000000000000000000000000000000000000000000000000000000000000000000000000040
:4000C0000000000000000000000000000000000000000000000000000000000000000000000000000000000000000000000000000000000000000000000000000000000000
:0200000490501A
:0C00000000012E16106900012E22DF0006
:00000001FF